{
	"schemaVersion": "2.0.0",
	"contractName": "Exchange",
	"compilerOutput": {
		"abi": [
			{
				"constant": true,
				"inputs": [],
				"name": "EIP712_DOMAIN_SEPARATOR_SCHEMA_HASH",
				"outputs": [
					{
						"name": "",
						"type": "bytes32"
					}
				],
				"payable": false,
				"stateMutability": "view",
				"type": "function"
			},
			{
				"constant": true,
				"inputs": [
					{
						"name": "",
						"type": "bytes32"
					}
				],
				"name": "filled",
				"outputs": [
					{
						"name": "",
						"type": "uint256"
					}
				],
				"payable": false,
				"stateMutability": "view",
				"type": "function"
			},
			{
				"constant": false,
				"inputs": [
					{
						"components": [
							{
								"name": "makerAddress",
								"type": "address"
							},
							{
								"name": "takerAddress",
								"type": "address"
							},
							{
								"name": "feeRecipientAddress",
								"type": "address"
							},
							{
								"name": "senderAddress",
								"type": "address"
							},
							{
								"name": "makerAssetAmount",
								"type": "uint256"
							},
							{
								"name": "takerAssetAmount",
								"type": "uint256"
							},
							{
								"name": "makerFee",
								"type": "uint256"
							},
							{
								"name": "takerFee",
								"type": "uint256"
							},
							{
								"name": "expirationTimeSeconds",
								"type": "uint256"
							},
							{
								"name": "salt",
								"type": "uint256"
							},
							{
								"name": "makerAssetData",
								"type": "bytes"
							},
							{
								"name": "takerAssetData",
								"type": "bytes"
							}
						],
						"name": "orders",
						"type": "tuple[]"
					},
					{
						"name": "takerAssetFillAmounts",
						"type": "uint256[]"
					},
					{
						"name": "signatures",
						"type": "bytes[]"
					}
				],
				"name": "batchFillOrders",
				"outputs": [
					{
						"components": [
							{
								"name": "makerAssetFilledAmount",
								"type": "uint256"
							},
							{
								"name": "takerAssetFilledAmount",
								"type": "uint256"
							},
							{
								"name": "makerFeePaid",
								"type": "uint256"
							},
							{
								"name": "takerFeePaid",
								"type": "uint256"
							}
						],
						"name": "totalFillResults",
						"type": "tuple"
					}
				],
				"payable": false,
				"stateMutability": "nonpayable",
				"type": "function"
			},
			{
				"constant": true,
				"inputs": [
					{
						"name": "",
						"type": "bytes32"
					}
				],
				"name": "cancelled",
				"outputs": [
					{
						"name": "",
						"type": "bool"
					}
				],
				"payable": false,
				"stateMutability": "view",
				"type": "function"
			},
			{
				"constant": false,
				"inputs": [
					{
						"name": "hash",
						"type": "bytes32"
					},
					{
						"name": "signerAddress",
						"type": "address"
					},
					{
						"name": "signature",
						"type": "bytes"
					}
				],
				"name": "preSign",
				"outputs": [],
				"payable": false,
				"stateMutability": "nonpayable",
				"type": "function"
			},
			{
				"constant": false,
				"inputs": [
					{
						"components": [
							{
								"name": "makerAddress",
								"type": "address"
							},
							{
								"name": "takerAddress",
								"type": "address"
							},
							{
								"name": "feeRecipientAddress",
								"type": "address"
							},
							{
								"name": "senderAddress",
								"type": "address"
							},
							{
								"name": "makerAssetAmount",
								"type": "uint256"
							},
							{
								"name": "takerAssetAmount",
								"type": "uint256"
							},
							{
								"name": "makerFee",
								"type": "uint256"
							},
							{
								"name": "takerFee",
								"type": "uint256"
							},
							{
								"name": "expirationTimeSeconds",
								"type": "uint256"
							},
							{
								"name": "salt",
								"type": "uint256"
							},
							{
								"name": "makerAssetData",
								"type": "bytes"
							},
							{
								"name": "takerAssetData",
								"type": "bytes"
							}
						],
						"name": "leftOrder",
						"type": "tuple"
					},
					{
						"components": [
							{
								"name": "makerAddress",
								"type": "address"
							},
							{
								"name": "takerAddress",
								"type": "address"
							},
							{
								"name": "feeRecipientAddress",
								"type": "address"
							},
							{
								"name": "senderAddress",
								"type": "address"
							},
							{
								"name": "makerAssetAmount",
								"type": "uint256"
							},
							{
								"name": "takerAssetAmount",
								"type": "uint256"
							},
							{
								"name": "makerFee",
								"type": "uint256"
							},
							{
								"name": "takerFee",
								"type": "uint256"
							},
							{
								"name": "expirationTimeSeconds",
								"type": "uint256"
							},
							{
								"name": "salt",
								"type": "uint256"
							},
							{
								"name": "makerAssetData",
								"type": "bytes"
							},
							{
								"name": "takerAssetData",
								"type": "bytes"
							}
						],
						"name": "rightOrder",
						"type": "tuple"
					},
					{
						"name": "leftSignature",
						"type": "bytes"
					},
					{
						"name": "rightSignature",
						"type": "bytes"
					}
				],
				"name": "matchOrders",
				"outputs": [
					{
						"components": [
							{
								"components": [
									{
										"name": "makerAssetFilledAmount",
										"type": "uint256"
									},
									{
										"name": "takerAssetFilledAmount",
										"type": "uint256"
									},
									{
										"name": "makerFeePaid",
										"type": "uint256"
									},
									{
										"name": "takerFeePaid",
										"type": "uint256"
									}
								],
								"name": "left",
								"type": "tuple"
							},
							{
								"components": [
									{
										"name": "makerAssetFilledAmount",
										"type": "uint256"
									},
									{
										"name": "takerAssetFilledAmount",
										"type": "uint256"
									},
									{
										"name": "makerFeePaid",
										"type": "uint256"
									},
									{
										"name": "takerFeePaid",
										"type": "uint256"
									}
								],
								"name": "right",
								"type": "tuple"
							},
							{
								"name": "leftMakerAssetSpreadAmount",
								"type": "uint256"
							}
						],
						"name": "matchedFillResults",
						"type": "tuple"
					}
				],
				"payable": false,
				"stateMutability": "nonpayable",
				"type": "function"
			},
			{
				"constant": false,
				"inputs": [
					{
						"components": [
							{
								"name": "makerAddress",
								"type": "address"
							},
							{
								"name": "takerAddress",
								"type": "address"
							},
							{
								"name": "feeRecipientAddress",
								"type": "address"
							},
							{
								"name": "senderAddress",
								"type": "address"
							},
							{
								"name": "makerAssetAmount",
								"type": "uint256"
							},
							{
								"name": "takerAssetAmount",
								"type": "uint256"
							},
							{
								"name": "makerFee",
								"type": "uint256"
							},
							{
								"name": "takerFee",
								"type": "uint256"
							},
							{
								"name": "expirationTimeSeconds",
								"type": "uint256"
							},
							{
								"name": "salt",
								"type": "uint256"
							},
							{
								"name": "makerAssetData",
								"type": "bytes"
							},
							{
								"name": "takerAssetData",
								"type": "bytes"
							}
						],
						"name": "order",
						"type": "tuple"
					},
					{
						"name": "takerAssetFillAmount",
						"type": "uint256"
					},
					{
						"name": "signature",
						"type": "bytes"
					}
				],
				"name": "fillOrderNoThrow",
				"outputs": [
					{
						"components": [
							{
								"name": "makerAssetFilledAmount",
								"type": "uint256"
							},
							{
								"name": "takerAssetFilledAmount",
								"type": "uint256"
							},
							{
								"name": "makerFeePaid",
								"type": "uint256"
							},
							{
								"name": "takerFeePaid",
								"type": "uint256"
							}
						],
						"name": "fillResults",
						"type": "tuple"
					}
				],
				"payable": false,
				"stateMutability": "nonpayable",
				"type": "function"
			},
			{
				"constant": true,
				"inputs": [
					{
						"name": "",
						"type": "bytes4"
					}
				],
				"name": "assetProxies",
				"outputs": [
					{
						"name": "",
						"type": "address"
					}
				],
				"payable": false,
				"stateMutability": "view",
				"type": "function"
			},
			{
				"constant": false,
				"inputs": [
					{
						"components": [
							{
								"name": "makerAddress",
								"type": "address"
							},
							{
								"name": "takerAddress",
								"type": "address"
							},
							{
								"name": "feeRecipientAddress",
								"type": "address"
							},
							{
								"name": "senderAddress",
								"type": "address"
							},
							{
								"name": "makerAssetAmount",
								"type": "uint256"
							},
							{
								"name": "takerAssetAmount",
								"type": "uint256"
							},
							{
								"name": "makerFee",
								"type": "uint256"
							},
							{
								"name": "takerFee",
								"type": "uint256"
							},
							{
								"name": "expirationTimeSeconds",
								"type": "uint256"
							},
							{
								"name": "salt",
								"type": "uint256"
							},
							{
								"name": "makerAssetData",
								"type": "bytes"
							},
							{
								"name": "takerAssetData",
								"type": "bytes"
							}
						],
						"name": "orders",
						"type": "tuple[]"
					}
				],
				"name": "batchCancelOrders",
				"outputs": [],
				"payable": false,
				"stateMutability": "nonpayable",
				"type": "function"
			},
			{
				"constant": false,
				"inputs": [
					{
						"components": [
							{
								"name": "makerAddress",
								"type": "address"
							},
							{
								"name": "takerAddress",
								"type": "address"
							},
							{
								"name": "feeRecipientAddress",
								"type": "address"
							},
							{
								"name": "senderAddress",
								"type": "address"
							},
							{
								"name": "makerAssetAmount",
								"type": "uint256"
							},
							{
								"name": "takerAssetAmount",
								"type": "uint256"
							},
							{
								"name": "makerFee",
								"type": "uint256"
							},
							{
								"name": "takerFee",
								"type": "uint256"
							},
							{
								"name": "expirationTimeSeconds",
								"type": "uint256"
							},
							{
								"name": "salt",
								"type": "uint256"
							},
							{
								"name": "makerAssetData",
								"type": "bytes"
							},
							{
								"name": "takerAssetData",
								"type": "bytes"
							}
						],
						"name": "orders",
						"type": "tuple[]"
					},
					{
						"name": "takerAssetFillAmounts",
						"type": "uint256[]"
					},
					{
						"name": "signatures",
						"type": "bytes[]"
					}
				],
				"name": "batchFillOrKillOrders",
				"outputs": [
					{
						"components": [
							{
								"name": "makerAssetFilledAmount",
								"type": "uint256"
							},
							{
								"name": "takerAssetFilledAmount",
								"type": "uint256"
							},
							{
								"name": "makerFeePaid",
								"type": "uint256"
							},
							{
								"name": "takerFeePaid",
								"type": "uint256"
							}
						],
						"name": "totalFillResults",
						"type": "tuple"
					}
				],
				"payable": false,
				"stateMutability": "nonpayable",
				"type": "function"
			},
			{
				"constant": false,
				"inputs": [
					{
						"name": "targetOrderEpoch",
						"type": "uint256"
					}
				],
				"name": "cancelOrdersUpTo",
				"outputs": [],
				"payable": false,
				"stateMutability": "nonpayable",
				"type": "function"
			},
			{
				"constant": false,
				"inputs": [
					{
						"components": [
							{
								"name": "makerAddress",
								"type": "address"
							},
							{
								"name": "takerAddress",
								"type": "address"
							},
							{
								"name": "feeRecipientAddress",
								"type": "address"
							},
							{
								"name": "senderAddress",
								"type": "address"
							},
							{
								"name": "makerAssetAmount",
								"type": "uint256"
							},
							{
								"name": "takerAssetAmount",
								"type": "uint256"
							},
							{
								"name": "makerFee",
								"type": "uint256"
							},
							{
								"name": "takerFee",
								"type": "uint256"
							},
							{
								"name": "expirationTimeSeconds",
								"type": "uint256"
							},
							{
								"name": "salt",
								"type": "uint256"
							},
							{
								"name": "makerAssetData",
								"type": "bytes"
							},
							{
								"name": "takerAssetData",
								"type": "bytes"
							}
						],
						"name": "orders",
						"type": "tuple[]"
					},
					{
						"name": "takerAssetFillAmounts",
						"type": "uint256[]"
					},
					{
						"name": "signatures",
						"type": "bytes[]"
					}
				],
				"name": "batchFillOrdersNoThrow",
				"outputs": [
					{
						"components": [
							{
								"name": "makerAssetFilledAmount",
								"type": "uint256"
							},
							{
								"name": "takerAssetFilledAmount",
								"type": "uint256"
							},
							{
								"name": "makerFeePaid",
								"type": "uint256"
							},
							{
								"name": "takerFeePaid",
								"type": "uint256"
							}
						],
						"name": "totalFillResults",
						"type": "tuple"
					}
				],
				"payable": false,
				"stateMutability": "nonpayable",
				"type": "function"
			},
			{
				"constant": true,
				"inputs": [
					{
						"name": "assetProxyId",
						"type": "bytes4"
					}
				],
				"name": "getAssetProxy",
				"outputs": [
					{
						"name": "",
						"type": "address"
					}
				],
				"payable": false,
				"stateMutability": "view",
				"type": "function"
			},
			{
				"constant": true,
				"inputs": [
					{
						"name": "",
						"type": "bytes32"
					}
				],
				"name": "transactions",
				"outputs": [
					{
						"name": "",
						"type": "bool"
					}
				],
				"payable": false,
				"stateMutability": "view",
				"type": "function"
			},
			{
				"constant": false,
				"inputs": [
					{
						"components": [
							{
								"name": "makerAddress",
								"type": "address"
							},
							{
								"name": "takerAddress",
								"type": "address"
							},
							{
								"name": "feeRecipientAddress",
								"type": "address"
							},
							{
								"name": "senderAddress",
								"type": "address"
							},
							{
								"name": "makerAssetAmount",
								"type": "uint256"
							},
							{
								"name": "takerAssetAmount",
								"type": "uint256"
							},
							{
								"name": "makerFee",
								"type": "uint256"
							},
							{
								"name": "takerFee",
								"type": "uint256"
							},
							{
								"name": "expirationTimeSeconds",
								"type": "uint256"
							},
							{
								"name": "salt",
								"type": "uint256"
							},
							{
								"name": "makerAssetData",
								"type": "bytes"
							},
							{
								"name": "takerAssetData",
								"type": "bytes"
							}
						],
						"name": "order",
						"type": "tuple"
					},
					{
						"name": "takerAssetFillAmount",
						"type": "uint256"
					},
					{
						"name": "signature",
						"type": "bytes"
					}
				],
				"name": "fillOrKillOrder",
				"outputs": [
					{
						"components": [
							{
								"name": "makerAssetFilledAmount",
								"type": "uint256"
							},
							{
								"name": "takerAssetFilledAmount",
								"type": "uint256"
							},
							{
								"name": "makerFeePaid",
								"type": "uint256"
							},
							{
								"name": "takerFeePaid",
								"type": "uint256"
							}
						],
						"name": "fillResults",
						"type": "tuple"
					}
				],
				"payable": false,
				"stateMutability": "nonpayable",
				"type": "function"
			},
			{
				"constant": false,
				"inputs": [
					{
						"name": "validatorAddress",
						"type": "address"
					},
					{
						"name": "approval",
						"type": "bool"
					}
				],
				"name": "setSignatureValidatorApproval",
				"outputs": [],
				"payable": false,
				"stateMutability": "nonpayable",
				"type": "function"
			},
			{
				"constant": true,
				"inputs": [
					{
						"name": "",
						"type": "address"
					},
					{
						"name": "",
						"type": "address"
					}
				],
				"name": "allowedValidators",
				"outputs": [
					{
						"name": "",
						"type": "bool"
					}
				],
				"payable": false,
				"stateMutability": "view",
				"type": "function"
			},
			{
				"constant": false,
				"inputs": [
					{
						"components": [
							{
								"name": "makerAddress",
								"type": "address"
							},
							{
								"name": "takerAddress",
								"type": "address"
							},
							{
								"name": "feeRecipientAddress",
								"type": "address"
							},
							{
								"name": "senderAddress",
								"type": "address"
							},
							{
								"name": "makerAssetAmount",
								"type": "uint256"
							},
							{
								"name": "takerAssetAmount",
								"type": "uint256"
							},
							{
								"name": "makerFee",
								"type": "uint256"
							},
							{
								"name": "takerFee",
								"type": "uint256"
							},
							{
								"name": "expirationTimeSeconds",
								"type": "uint256"
							},
							{
								"name": "salt",
								"type": "uint256"
							},
							{
								"name": "makerAssetData",
								"type": "bytes"
							},
							{
								"name": "takerAssetData",
								"type": "bytes"
							}
						],
						"name": "orders",
						"type": "tuple[]"
					},
					{
						"name": "takerAssetFillAmount",
						"type": "uint256"
					},
					{
						"name": "signatures",
						"type": "bytes[]"
					}
				],
				"name": "marketSellOrders",
				"outputs": [
					{
						"components": [
							{
								"name": "makerAssetFilledAmount",
								"type": "uint256"
							},
							{
								"name": "takerAssetFilledAmount",
								"type": "uint256"
							},
							{
								"name": "makerFeePaid",
								"type": "uint256"
							},
							{
								"name": "takerFeePaid",
								"type": "uint256"
							}
						],
						"name": "totalFillResults",
						"type": "tuple"
					}
				],
				"payable": false,
				"stateMutability": "nonpayable",
				"type": "function"
			},
			{
				"constant": true,
				"inputs": [
					{
						"name": "",
						"type": "bytes32"
					},
					{
						"name": "",
						"type": "address"
					}
				],
				"name": "preSigned",
				"outputs": [
					{
						"name": "",
						"type": "bool"
					}
				],
				"payable": false,
				"stateMutability": "view",
				"type": "function"
			},
			{
				"constant": false,
				"inputs": [
					{
						"name": "assetProxyId",
						"type": "bytes4"
					},
					{
						"name": "newAssetProxy",
						"type": "address"
					},
					{
						"name": "oldAssetProxy",
						"type": "address"
					}
				],
				"name": "registerAssetProxy",
				"outputs": [],
				"payable": false,
				"stateMutability": "nonpayable",
				"type": "function"
			},
			{
				"constant": true,
				"inputs": [],
				"name": "owner",
				"outputs": [
					{
						"name": "",
						"type": "address"
					}
				],
				"payable": false,
				"stateMutability": "view",
				"type": "function"
			},
			{
				"constant": true,
				"inputs": [
					{
						"name": "hash",
						"type": "bytes32"
					},
					{
						"name": "signerAddress",
						"type": "address"
					},
					{
						"name": "signature",
						"type": "bytes"
					}
				],
				"name": "isValidSignature",
				"outputs": [
					{
						"name": "isValid",
						"type": "bool"
					}
				],
				"payable": false,
				"stateMutability": "view",
				"type": "function"
			},
			{
				"constant": false,
				"inputs": [
					{
						"components": [
							{
								"name": "makerAddress",
								"type": "address"
							},
							{
								"name": "takerAddress",
								"type": "address"
							},
							{
								"name": "feeRecipientAddress",
								"type": "address"
							},
							{
								"name": "senderAddress",
								"type": "address"
							},
							{
								"name": "makerAssetAmount",
								"type": "uint256"
							},
							{
								"name": "takerAssetAmount",
								"type": "uint256"
							},
							{
								"name": "makerFee",
								"type": "uint256"
							},
							{
								"name": "takerFee",
								"type": "uint256"
							},
							{
								"name": "expirationTimeSeconds",
								"type": "uint256"
							},
							{
								"name": "salt",
								"type": "uint256"
							},
							{
								"name": "makerAssetData",
								"type": "bytes"
							},
							{
								"name": "takerAssetData",
								"type": "bytes"
							}
						],
						"name": "orders",
						"type": "tuple[]"
					},
					{
						"name": "makerAssetFillAmount",
						"type": "uint256"
					},
					{
						"name": "signatures",
						"type": "bytes[]"
					}
				],
				"name": "marketBuyOrdersNoThrow",
				"outputs": [
					{
						"components": [
							{
								"name": "makerAssetFilledAmount",
								"type": "uint256"
							},
							{
								"name": "takerAssetFilledAmount",
								"type": "uint256"
							},
							{
								"name": "makerFeePaid",
								"type": "uint256"
							},
							{
								"name": "takerFeePaid",
								"type": "uint256"
							}
						],
						"name": "totalFillResults",
						"type": "tuple"
					}
				],
				"payable": false,
				"stateMutability": "nonpayable",
				"type": "function"
			},
			{
				"constant": true,
				"inputs": [
					{
						"components": [
							{
								"name": "makerAddress",
								"type": "address"
							},
							{
								"name": "takerAddress",
								"type": "address"
							},
							{
								"name": "feeRecipientAddress",
								"type": "address"
							},
							{
								"name": "senderAddress",
								"type": "address"
							},
							{
								"name": "makerAssetAmount",
								"type": "uint256"
							},
							{
								"name": "takerAssetAmount",
								"type": "uint256"
							},
							{
								"name": "makerFee",
								"type": "uint256"
							},
							{
								"name": "takerFee",
								"type": "uint256"
							},
							{
								"name": "expirationTimeSeconds",
								"type": "uint256"
							},
							{
								"name": "salt",
								"type": "uint256"
							},
							{
								"name": "makerAssetData",
								"type": "bytes"
							},
							{
								"name": "takerAssetData",
								"type": "bytes"
							}
						],
						"name": "order",
						"type": "tuple"
					},
					{
						"name": "takerAssetFilledAmount",
						"type": "uint256"
					}
				],
				"name": "calculateFillResults",
				"outputs": [
					{
						"components": [
							{
								"name": "makerAssetFilledAmount",
								"type": "uint256"
							},
							{
								"name": "takerAssetFilledAmount",
								"type": "uint256"
							},
							{
								"name": "makerFeePaid",
								"type": "uint256"
							},
							{
								"name": "takerFeePaid",
								"type": "uint256"
							}
						],
						"name": "fillResults",
						"type": "tuple"
					}
				],
				"payable": false,
				"stateMutability": "pure",
				"type": "function"
			},
			{
				"constant": false,
				"inputs": [
					{
						"components": [
							{
								"name": "makerAddress",
								"type": "address"
							},
							{
								"name": "takerAddress",
								"type": "address"
							},
							{
								"name": "feeRecipientAddress",
								"type": "address"
							},
							{
								"name": "senderAddress",
								"type": "address"
							},
							{
								"name": "makerAssetAmount",
								"type": "uint256"
							},
							{
								"name": "takerAssetAmount",
								"type": "uint256"
							},
							{
								"name": "makerFee",
								"type": "uint256"
							},
							{
								"name": "takerFee",
								"type": "uint256"
							},
							{
								"name": "expirationTimeSeconds",
								"type": "uint256"
							},
							{
								"name": "salt",
								"type": "uint256"
							},
							{
								"name": "makerAssetData",
								"type": "bytes"
							},
							{
								"name": "takerAssetData",
								"type": "bytes"
							}
						],
						"name": "order",
						"type": "tuple"
					},
					{
						"name": "takerAssetFillAmount",
						"type": "uint256"
					},
					{
						"name": "signature",
						"type": "bytes"
					}
				],
				"name": "fillOrder",
				"outputs": [
					{
						"components": [
							{
								"name": "makerAssetFilledAmount",
								"type": "uint256"
							},
							{
								"name": "takerAssetFilledAmount",
								"type": "uint256"
							},
							{
								"name": "makerFeePaid",
								"type": "uint256"
							},
							{
								"name": "takerFeePaid",
								"type": "uint256"
							}
						],
						"name": "fillResults",
						"type": "tuple"
					}
				],
				"payable": false,
				"stateMutability": "nonpayable",
				"type": "function"
			},
			{
				"constant": false,
				"inputs": [
					{
						"name": "salt",
						"type": "uint256"
					},
					{
						"name": "signerAddress",
						"type": "address"
					},
					{
						"name": "data",
						"type": "bytes"
					},
					{
						"name": "signature",
						"type": "bytes"
					}
				],
				"name": "executeTransaction",
				"outputs": [],
				"payable": false,
				"stateMutability": "nonpayable",
				"type": "function"
			},
			{
				"constant": true,
				"inputs": [
					{
						"components": [
							{
								"name": "makerAddress",
								"type": "address"
							},
							{
								"name": "takerAddress",
								"type": "address"
							},
							{
								"name": "feeRecipientAddress",
								"type": "address"
							},
							{
								"name": "senderAddress",
								"type": "address"
							},
							{
								"name": "makerAssetAmount",
								"type": "uint256"
							},
							{
								"name": "takerAssetAmount",
								"type": "uint256"
							},
							{
								"name": "makerFee",
								"type": "uint256"
							},
							{
								"name": "takerFee",
								"type": "uint256"
							},
							{
								"name": "expirationTimeSeconds",
								"type": "uint256"
							},
							{
								"name": "salt",
								"type": "uint256"
							},
							{
								"name": "makerAssetData",
								"type": "bytes"
							},
							{
								"name": "takerAssetData",
								"type": "bytes"
							}
						],
						"name": "order",
						"type": "tuple"
					}
				],
				"name": "getOrderInfo",
				"outputs": [
					{
						"components": [
							{
								"name": "orderStatus",
								"type": "uint8"
							},
							{
								"name": "orderHash",
								"type": "bytes32"
							},
							{
								"name": "orderTakerAssetFilledAmount",
								"type": "uint256"
							}
						],
						"name": "orderInfo",
						"type": "tuple"
					}
				],
				"payable": false,
				"stateMutability": "view",
				"type": "function"
			},
			{
				"constant": false,
				"inputs": [
					{
						"components": [
							{
								"name": "makerAddress",
								"type": "address"
							},
							{
								"name": "takerAddress",
								"type": "address"
							},
							{
								"name": "feeRecipientAddress",
								"type": "address"
							},
							{
								"name": "senderAddress",
								"type": "address"
							},
							{
								"name": "makerAssetAmount",
								"type": "uint256"
							},
							{
								"name": "takerAssetAmount",
								"type": "uint256"
							},
							{
								"name": "makerFee",
								"type": "uint256"
							},
							{
								"name": "takerFee",
								"type": "uint256"
							},
							{
								"name": "expirationTimeSeconds",
								"type": "uint256"
							},
							{
								"name": "salt",
								"type": "uint256"
							},
							{
								"name": "makerAssetData",
								"type": "bytes"
							},
							{
								"name": "takerAssetData",
								"type": "bytes"
							}
						],
						"name": "order",
						"type": "tuple"
					}
				],
				"name": "cancelOrder",
				"outputs": [],
				"payable": false,
				"stateMutability": "nonpayable",
				"type": "function"
			},
			{
				"constant": true,
				"inputs": [
					{
						"name": "",
						"type": "address"
					},
					{
						"name": "",
						"type": "address"
					}
				],
				"name": "orderEpoch",
				"outputs": [
					{
						"name": "",
						"type": "uint256"
					}
				],
				"payable": false,
				"stateMutability": "view",
				"type": "function"
			},
			{
				"constant": true,
				"inputs": [],
				"name": "ZRX_ASSET_DATA",
				"outputs": [
					{
						"name": "",
						"type": "bytes"
					}
				],
				"payable": false,
				"stateMutability": "view",
				"type": "function"
			},
			{
				"constant": false,
				"inputs": [
					{
						"components": [
							{
								"name": "makerAddress",
								"type": "address"
							},
							{
								"name": "takerAddress",
								"type": "address"
							},
							{
								"name": "feeRecipientAddress",
								"type": "address"
							},
							{
								"name": "senderAddress",
								"type": "address"
							},
							{
								"name": "makerAssetAmount",
								"type": "uint256"
							},
							{
								"name": "takerAssetAmount",
								"type": "uint256"
							},
							{
								"name": "makerFee",
								"type": "uint256"
							},
							{
								"name": "takerFee",
								"type": "uint256"
							},
							{
								"name": "expirationTimeSeconds",
								"type": "uint256"
							},
							{
								"name": "salt",
								"type": "uint256"
							},
							{
								"name": "makerAssetData",
								"type": "bytes"
							},
							{
								"name": "takerAssetData",
								"type": "bytes"
							}
						],
						"name": "orders",
						"type": "tuple[]"
					},
					{
						"name": "takerAssetFillAmount",
						"type": "uint256"
					},
					{
						"name": "signatures",
						"type": "bytes[]"
					}
				],
				"name": "marketSellOrdersNoThrow",
				"outputs": [
					{
						"components": [
							{
								"name": "makerAssetFilledAmount",
								"type": "uint256"
							},
							{
								"name": "takerAssetFilledAmount",
								"type": "uint256"
							},
							{
								"name": "makerFeePaid",
								"type": "uint256"
							},
							{
								"name": "takerFeePaid",
								"type": "uint256"
							}
						],
						"name": "totalFillResults",
						"type": "tuple"
					}
				],
				"payable": false,
				"stateMutability": "nonpayable",
				"type": "function"
			},
			{
				"constant": true,
				"inputs": [],
				"name": "EIP712_DOMAIN_HASH",
				"outputs": [
					{
						"name": "",
						"type": "bytes32"
					}
				],
				"payable": false,
				"stateMutability": "view",
				"type": "function"
			},
			{
				"constant": false,
				"inputs": [
					{
						"components": [
							{
								"name": "makerAddress",
								"type": "address"
							},
							{
								"name": "takerAddress",
								"type": "address"
							},
							{
								"name": "feeRecipientAddress",
								"type": "address"
							},
							{
								"name": "senderAddress",
								"type": "address"
							},
							{
								"name": "makerAssetAmount",
								"type": "uint256"
							},
							{
								"name": "takerAssetAmount",
								"type": "uint256"
							},
							{
								"name": "makerFee",
								"type": "uint256"
							},
							{
								"name": "takerFee",
								"type": "uint256"
							},
							{
								"name": "expirationTimeSeconds",
								"type": "uint256"
							},
							{
								"name": "salt",
								"type": "uint256"
							},
							{
								"name": "makerAssetData",
								"type": "bytes"
							},
							{
								"name": "takerAssetData",
								"type": "bytes"
							}
						],
						"name": "orders",
						"type": "tuple[]"
					},
					{
						"name": "makerAssetFillAmount",
						"type": "uint256"
					},
					{
						"name": "signatures",
						"type": "bytes[]"
					}
				],
				"name": "marketBuyOrders",
				"outputs": [
					{
						"components": [
							{
								"name": "makerAssetFilledAmount",
								"type": "uint256"
							},
							{
								"name": "takerAssetFilledAmount",
								"type": "uint256"
							},
							{
								"name": "makerFeePaid",
								"type": "uint256"
							},
							{
								"name": "takerFeePaid",
								"type": "uint256"
							}
						],
						"name": "totalFillResults",
						"type": "tuple"
					}
				],
				"payable": false,
				"stateMutability": "nonpayable",
				"type": "function"
			},
			{
				"constant": true,
				"inputs": [],
				"name": "currentContextAddress",
				"outputs": [
					{
						"name": "",
						"type": "address"
					}
				],
				"payable": false,
				"stateMutability": "view",
				"type": "function"
			},
			{
				"constant": false,
				"inputs": [
					{
						"name": "newOwner",
						"type": "address"
					}
				],
				"name": "transferOwnership",
				"outputs": [],
				"payable": false,
				"stateMutability": "nonpayable",
				"type": "function"
			},
			{
				"constant": true,
				"inputs": [],
				"name": "VERSION",
				"outputs": [
					{
						"name": "",
						"type": "string"
					}
				],
				"payable": false,
				"stateMutability": "view",
				"type": "function"
			},
			{
				"inputs": [
					{
						"name": "_zrxAssetData",
						"type": "bytes"
					}
				],
				"payable": false,
				"stateMutability": "nonpayable",
				"type": "constructor"
			},
			{
				"anonymous": false,
				"inputs": [
					{
						"indexed": true,
						"name": "signerAddress",
						"type": "address"
					},
					{
						"indexed": true,
						"name": "validatorAddress",
						"type": "address"
					},
					{
						"indexed": false,
						"name": "approved",
						"type": "bool"
					}
				],
				"name": "SignatureValidatorApproval",
				"type": "event"
			},
			{
				"anonymous": false,
				"inputs": [
					{
						"indexed": true,
						"name": "makerAddress",
						"type": "address"
					},
					{
						"indexed": true,
						"name": "feeRecipientAddress",
						"type": "address"
					},
					{
						"indexed": false,
						"name": "takerAddress",
						"type": "address"
					},
					{
						"indexed": false,
						"name": "senderAddress",
						"type": "address"
					},
					{
						"indexed": false,
						"name": "makerAssetFilledAmount",
						"type": "uint256"
					},
					{
						"indexed": false,
						"name": "takerAssetFilledAmount",
						"type": "uint256"
					},
					{
						"indexed": false,
						"name": "makerFeePaid",
						"type": "uint256"
					},
					{
						"indexed": false,
						"name": "takerFeePaid",
						"type": "uint256"
					},
					{
						"indexed": true,
						"name": "orderHash",
						"type": "bytes32"
					},
					{
						"indexed": false,
						"name": "makerAssetData",
						"type": "bytes"
					},
					{
						"indexed": false,
						"name": "takerAssetData",
						"type": "bytes"
					}
				],
				"name": "Fill",
				"type": "event"
			},
			{
				"anonymous": false,
				"inputs": [
					{
						"indexed": true,
						"name": "makerAddress",
						"type": "address"
					},
					{
						"indexed": true,
						"name": "feeRecipientAddress",
						"type": "address"
					},
					{
						"indexed": false,
						"name": "senderAddress",
						"type": "address"
					},
					{
						"indexed": true,
						"name": "orderHash",
						"type": "bytes32"
					},
					{
						"indexed": false,
						"name": "makerAssetData",
						"type": "bytes"
					},
					{
						"indexed": false,
						"name": "takerAssetData",
						"type": "bytes"
					}
				],
				"name": "Cancel",
				"type": "event"
			},
			{
				"anonymous": false,
				"inputs": [
					{
						"indexed": true,
						"name": "makerAddress",
						"type": "address"
					},
					{
						"indexed": true,
						"name": "senderAddress",
						"type": "address"
					},
					{
						"indexed": false,
						"name": "orderEpoch",
						"type": "uint256"
					}
				],
				"name": "CancelUpTo",
				"type": "event"
			},
			{
				"anonymous": false,
				"inputs": [
					{
						"indexed": false,
						"name": "id",
						"type": "bytes4"
					},
					{
						"indexed": false,
						"name": "newAssetProxy",
						"type": "address"
					},
					{
						"indexed": false,
						"name": "oldAssetProxy",
						"type": "address"
					}
				],
				"name": "AssetProxySet",
				"type": "event"
			}
		],
		"evm": {
			"bytecode": {
				"linkReferences": {},
				"object": "0x60806040523480156200001157600080fd5b50604051620055cd380380620055cd833981018060405262000037919081019062000433565b805181906200004e90600090602084019062000332565b5050604080517f454950373132446f6d61696e28000000000000000000000000000000000000006020808301919091527f737472696e67206e616d652c0000000000000000000000000000000000000000602d8301527f737472696e672076657273696f6e2c000000000000000000000000000000000060398301527f6164647265737320766572696679696e67436f6e74726163740000000000000060488301527f2900000000000000000000000000000000000000000000000000000000000000606183015282516042818403018152606290920192839052815191929182918401908083835b60208310620001585780518252601f19909201916020918201910162000137565b51815160209384036101000a6000190180199092169116179052604080519290940182900382208285018552600b8084527f30782050726f746f636f6c000000000000000000000000000000000000000000928401928352945190965091945090928392508083835b60208310620001e25780518252601f199092019160209182019101620001c1565b51815160209384036101000a600019018019909216911617905260408051929094018290038220828501855260018084527f3200000000000000000000000000000000000000000000000000000000000000928401928352945190965091945090928392508083835b602083106200026c5780518252601f1990920191602091820191016200024b565b51815160209384036101000a6000190180199092169116179052604051919093018190038120620002a797969550935030920190506200048f565b6040516020818303038152906040526040518082805190602001908083835b60208310620002e75780518252601f199092019160209182019101620002c6565b5181516000196020949094036101000a939093019283169219169190911790526040519201829003909120600155505060028054600160a060020a0319163317905550620005639050565b828054600181600116156101000203166002900490600052602060002090601f016020900481019282601f106200037557805160ff1916838001178555620003a5565b82800160010185558215620003a5579182015b82811115620003a557825182559160200191906001019062000388565b50620003b3929150620003b7565b5090565b620003d491905b80821115620003b35760008155600101620003be565b90565b6000601f82018313620003e957600080fd5b815162000400620003fa82620004fc565b620004d5565b915080825260208301602083018583830111156200041d57600080fd5b6200042a83828462000530565b50505092915050565b6000602082840312156200044657600080fd5b81516001604060020a038111156200045d57600080fd5b6200046b84828501620003d7565b949350505050565b6200047e8162000524565b82525050565b6200047e81620003d4565b608081016200049f828762000484565b620004ae602083018662000484565b620004bd604083018562000484565b620004cc606083018462000473565b95945050505050565b6040518181016001604060020a0381118282101715620004f457600080fd5b604052919050565b60006001604060020a038211156200051357600080fd5b506020601f91909101601f19160190565b600160a060020a031690565b60005b838110156200054d57818101518382015260200162000533565b838111156200055d576000848401525b50505050565b61505a80620005736000396000f3006080604052600436106101c15763ffffffff7c01000000000000000000000000000000000000000000000000000000006000350416632624b2d981146101c6578063288cdc91146101f1578063297bb70b146102115780632ac126221461023e5780633683ef8e1461026b5780633c28d8611461028d5780633e228bae146102ba5780633fd3c997146102da5780634ac14782146103075780634d0ae546146103275780634f9559b11461034757806350dde190146103675780636070410814610387578063642f2eaf146103b457806364a3bc15146103d457806377fcce68146103f45780637b8e3514146104145780637e1d98081461043457806382c174d014610454578063833abf3a146104745780638da5cb5b1461049457806393634702146104a9578063a3e20380146104c9578063ad1876b5146104e9578063b4be83d514610509578063bfc8bfce14610529578063c75e0a8114610549578063d46b02c314610576578063d9bfa73e14610596578063db123b1a146105b6578063dd1c7d18146105d8578063e306f779146105f8578063e5fa431b1461060d578063eea086ba1461062d578063f2fde38b14610642578063ffa1ad7414610662575b600080fd5b3480156101d257600080fd5b506101db610677565b6040516101e89190614c15565b60405180910390f35b3480156101fd57600080fd5b506101db61020c3660046140be565b6107cb565b34801561021d57600080fd5b5061023161022c366004613fc3565b6107dd565b6040516101e89190614eac565b34801561024a57600080fd5b5061025e6102593660046140be565b61086d565b6040516101e89190614c07565b34801561027757600080fd5b5061028b6102863660046140fb565b610882565b005b34801561029957600080fd5b506102ad6102a8366004614272565b61095b565b6040516101e89190614eba565b3480156102c657600080fd5b506102316102d5366004614379565b610a47565b3480156102e657600080fd5b506102fa6102f53660046141be565b610c57565b6040516101e89190614cde565b34801561031357600080fd5b5061028b610322366004613f8e565b610c7f565b34801561033357600080fd5b50610231610342366004613fc3565b610cb7565b34801561035357600080fd5b5061028b6103623660046140be565b610d3e565b34801561037357600080fd5b50610231610382366004613fc3565b610e62565b34801561039357600080fd5b506103a76103a23660046141be565b610ee9565b6040516101e89190614b38565b3480156103c057600080fd5b5061025e6103cf3660046140be565b610f37565b3480156103e057600080fd5b506102316103ef366004614379565b610f4c565b34801561040057600080fd5b5061028b61040f366004613f5e565b610fa6565b34801561042057600080fd5b5061025e61042f366004613f24565b611051565b34801561044057600080fd5b5061023161044f366004614057565b611071565b34801561046057600080fd5b5061025e61046f3660046140dc565b611142565b34801561048057600080fd5b5061028b61048f3660046141fa565b611162565b3480156104a057600080fd5b506103a761140e565b3480156104b557600080fd5b5061025e6104c4366004614163565b61142a565b3480156104d557600080fd5b506102316104e4366004614057565b611c50565b3480156104f557600080fd5b50610231610504366004614332565b611d60565b34801561051557600080fd5b50610231610524366004614379565b611dcb565b34801561053557600080fd5b5061028b6105443660046143c2565b611e4f565b34801561055557600080fd5b5061056961056436600461423d565b6120ca565b6040516101e89190614ec9565b34801561058257600080fd5b5061028b61059136600461423d565b6121c5565b3480156105a257600080fd5b506101db6105b1366004613f24565b6121f0565b3480156105c257600080fd5b506105cb61220d565b6040516101e89190614ccd565b3480156105e457600080fd5b506102316105f3366004614057565b6122b9565b34801561060457600080fd5b506101db61237f565b34801561061957600080fd5b50610231610628366004614057565b612385565b34801561063957600080fd5b506103a7612459565b34801561064e57600080fd5b5061028b61065d366004613f06565b612475565b34801561066e57600080fd5b506105cb612526565b604080517f454950373132446f6d61696e28000000000000000000000000000000000000006020808301919091527f737472696e67206e616d652c0000000000000000000000000000000000000000602d8301527f737472696e672076657273696f6e2c000000000000000000000000000000000060398301527f6164647265737320766572696679696e67436f6e74726163740000000000000060488301527f2900000000000000000000000000000000000000000000000000000000000000606183015282516042818403018152606290920192839052815191929182918401908083835b6020831061079b57805182527fffffffffffffffffffffffffffffffffffffffffffffffffffffffffffffffe0909201916020918201910161075e565b6001836020036101000a038019825116818451168082178552505050505050905001915050604051809103902081565b60036020526000908152604090205481565b6107e5613b2c565b60006107ef613b2c565b600091505b85518210156108645761084d868381518110151561080e57fe5b90602001906020020151868481518110151561082657fe5b90602001906020020151868581518110151561083e57fe5b90602001906020020151611dcb565b9050610859838261255d565b6001909101906107f4565b50509392505050565b60046020526000908152604090205460ff1681565b6108bd848484848080601f0160208091040260200160405190810160405280939291908181526020018383808284375061142a945050505050565b15156108fe576040517f08c379a00000000000000000000000000000000000000000000000000000000081526004016108f590614d5c565b60405180910390fd5b5050600091825260066020908152604080842073ffffffffffffffffffffffffffffffffffffffff9093168452919052902080547fffffffffffffffffffffffffffffffffffffffffffffffffffffffffffffff00166001179055565b610963613b55565b61096b613b84565b610973613b84565b6101608088015161014080890191909152880151908701526000610996886120ca565b92506109a1876120ca565b91506109ab6125bf565b90506109b78888612607565b6109cb888885604001518560400151612663565b8051602001519094506109e590899085908490808b612727565b60208085015101516109fe90889084908490808a612727565b610a178882856020015186604001518860000151612944565b610a308782846020015185604001518860200151612944565b610a3c888883876129f0565b505050949350505050565b610a4f613b2c565b604080517fb4be83d5000000000000000000000000000000000000000000000000000000008082526060600483018181528851606485019081526020808b01516084870152958a015160a48601529189015160c4850152608089015160e485015260a089015161010485015260c089015161012485015260e0890151610144850152610100890151610164850152610120890151610184850152610140890180516101a486019081526101608b01516101c487015261018090525180516101e48601819052939591938493926024870192849261020489019291820191601f82010460005b81811015610b52578351855260209485019490930192600101610b34565b50505050818103610160808401919091528c0151805180835260209283019291820191601f82010460005b81811015610b9b578351855260209485019490930192600101610b7d565b5050508b84525084810360209384019081528a518083529093918201918b81019190601f82010460005b81811015610be3578351855260209485019490930192600101610bc5565b5060808a8b86038c305af4808015610c025760018114610c2057610c43565b60008e52600060208f0152600060408f0152600060608f0152610c43565b8b518e5260208c015160208f015260408c015160408f015260608c015160608f01525b505050505050505050505050509392505050565b600a6020526000908152604090205473ffffffffffffffffffffffffffffffffffffffff1681565b60005b8151811015610cb357610cab8282815181101515610c9c57fe5b906020019060200201516121c5565b600101610c82565b5050565b610cbf613b2c565b6000610cc9613b2c565b600091505b855182101561086457610d278683815181101515610ce857fe5b906020019060200201518684815181101515610d0057fe5b906020019060200201518685815181101515610d1857fe5b90602001906020020151610f4c565b9050610d33838261255d565b600190910190610cce565b600080600080610d4c6125bf565b935073ffffffffffffffffffffffffffffffffffffffff84163314610d715733610d74565b60005b73ffffffffffffffffffffffffffffffffffffffff8086166000908152600560209081526040808320938516835292905220549093506001860192509050808211610deb576040517f08c379a00000000000000000000000000000000000000000000000000000000081526004016108f590614dec565b73ffffffffffffffffffffffffffffffffffffffff80851660008181526005602090815260408083209488168084529490915290819020859055517f82af639571738f4ebd4268fb0363d8957ebe1bbb9e78dba5ebd69eed39b154f090610e53908690614c15565b60405180910390a35050505050565b610e6a613b2c565b6000610e74613b2c565b600091505b855182101561086457610ed28683815181101515610e9357fe5b906020019060200201518684815181101515610eab57fe5b906020019060200201518685815181101515610ec357fe5b90602001906020020151610a47565b9050610ede838261255d565b600190910190610e79565b7fffffffff0000000000000000000000000000000000000000000000000000000081166000908152600a602052604090205473ffffffffffffffffffffffffffffffffffffffff165b919050565b60086020526000908152604090205460ff1681565b610f54613b2c565b610f5f848484611dcb565b60208101519091508314610f9f576040517f08c379a00000000000000000000000000000000000000000000000000000000081526004016108f590614e0c565b9392505050565b6000610fb06125bf565b73ffffffffffffffffffffffffffffffffffffffff8181166000818152600760209081526040808320948916808452949091529081902080547fffffffffffffffffffffffffffffffffffffffffffffffffffffffffffffff00168715151790555192935090917fa8656e308026eeabce8f0bc18048433252318ab80ac79da0b3d3d8697dfba89190611044908690614c07565b60405180910390a3505050565b600760209081526000928352604080842090915290825290205460ff1681565b611079613b2c565b6060600080611086613b2c565b87600081518110151561109557fe5b9060200190602002015161016001519350600092505b8751831015611137578388848151811015156110c357fe5b9060200190602002015161016001819052506110e3878660200151612bd0565b915061110f88848151811015156110f657fe5b9060200190602002015183888681518110151561083e57fe5b905061111b858261255d565b868560200151141561112c57611137565b6001909201916110ab565b505050509392505050565b600660209081526000928352604080842090915290825290205460ff1681565b6002546000908190819073ffffffffffffffffffffffffffffffffffffffff1633146111ba576040517f08c379a00000000000000000000000000000000000000000000000000000000081526004016108f590614e2c565b7fffffffff0000000000000000000000000000000000000000000000000000000086166000908152600a602052604090205473ffffffffffffffffffffffffffffffffffffffff908116935084168314611240576040517f08c379a00000000000000000000000000000000000000000000000000000000081526004016108f590614e4c565b84915073ffffffffffffffffffffffffffffffffffffffff82161561135b578173ffffffffffffffffffffffffffffffffffffffff1663ae25532e6040518163ffffffff167c0100000000000000000000000000000000000000000000000000000000028152600401602060405180830381600087803b1580156112c357600080fd5b505af11580156112d7573d6000803e3d6000fd5b505050506040513d601f19601f820116820180604052506112fb91908101906141dc565b90507fffffffff000000000000000000000000000000000000000000000000000000008082169087161461135b576040517f08c379a00000000000000000000000000000000000000000000000000000000081526004016108f590614dac565b7fffffffff0000000000000000000000000000000000000000000000000000000086166000908152600a60205260409081902080547fffffffffffffffffffffffff00000000000000000000000000000000000000001673ffffffffffffffffffffffffffffffffffffffff8516179055517f8a2dd3a51ca5ffc0567e29c662be273787eba535497a208f9ef15bc4652f1214906113fe90889088908890614ca5565b60405180910390a1505050505050565b60025473ffffffffffffffffffffffffffffffffffffffff1681565b60008060008060008060008060008951111515611473576040517f08c379a00000000000000000000000000000000000000000000000000000000081526004016108f590614ddc565b61147c89612be2565b7f010000000000000000000000000000000000000000000000000000000000000090049650600960ff8816106114de576040517f08c379a00000000000000000000000000000000000000000000000000000000081526004016108f590614d1c565b8660ff1660098111156114ed57fe5b955060008660098111156114fd57fe5b1415611535576040517f08c379a00000000000000000000000000000000000000000000000000000000081526004016108f590614dcc565b600186600981111561154357fe5b141561158b57885115611582576040517f08c379a00000000000000000000000000000000000000000000000000000000081526004016108f590614e9c565b60009750611c42565b600286600981111561159957fe5b14156116d45788516041146115da576040517f08c379a00000000000000000000000000000000000000000000000000000000081526004016108f590614cec565b8860008151811015156115e957fe5b01602001517f010000000000000000000000000000000000000000000000000000000000000090819004810204945061162989600163ffffffff612ca616565b935061163c89602163ffffffff612ca616565b925060018b868686604051600081526020016040526040516116619493929190614c70565b60206040516020810390808403906000865af1158015611685573d6000803e3d6000fd5b50506040517fffffffffffffffffffffffffffffffffffffffffffffffffffffffffffffffe0015173ffffffffffffffffffffffffffffffffffffffff8c81169082161499509250611c429050565b60038660098111156116e257fe5b1415611888578851604114611723576040517f08c379a00000000000000000000000000000000000000000000000000000000081526004016108f590614cec565b88600081518110151561173257fe5b01602001517f010000000000000000000000000000000000000000000000000000000000000090819004810204945061177289600163ffffffff612ca616565b935061178589602163ffffffff612ca616565b925060018b60405160200180807f19457468657265756d205369676e6564204d6573736167653a0a333200000000815250601c0182600019166000191681526020019150506040516020818303038152906040526040518082805190602001908083835b6020831061182657805182527fffffffffffffffffffffffffffffffffffffffffffffffffffffffffffffffe090920191602091820191016117e9565b51815160209384036101000a7fffffffffffffffffffffffffffffffffffffffffffffffffffffffffffffffff018019909216911617905260408051929094018290038220600083529101928390526116619450925089918991508890614c70565b600486600981111561189657fe5b14156118f5578851156118d5576040517f08c379a00000000000000000000000000000000000000000000000000000000081526004016108f590614e9c565b73ffffffffffffffffffffffffffffffffffffffff8a1633149750611c42565b600586600981111561190357fe5b14156119b6576040517f1626ba7e00000000000000000000000000000000000000000000000000000000815273ffffffffffffffffffffffffffffffffffffffff8b1690631626ba7e9061195d908e908d90600401614c50565b602060405180830381600087803b15801561197757600080fd5b505af115801561198b573d6000803e3d6000fd5b505050506040513d601f19601f820116820180604052506119af91908101906140a0565b9750611c42565b60068660098111156119c457fe5b1415611a71576119d389612cf1565b73ffffffffffffffffffffffffffffffffffffffff808c1660009081526007602090815260408083209385168352929052205490915060ff161515611a1b5760009750611c42565b6040517f9363470200000000000000000000000000000000000000000000000000000000815273ffffffffffffffffffffffffffffffffffffffff82169063936347029061195d908e908e908e90600401614c23565b6007866009811115611a7f57fe5b1415611abf5760008b815260066020908152604080832073ffffffffffffffffffffffffffffffffffffffff8e16845290915290205460ff169750611c42565b6008866009811115611acd57fe5b1415611c10578851604114611b0e576040517f08c379a00000000000000000000000000000000000000000000000000000000081526004016108f590614cec565b886000815181101515611b1d57fe5b01602001517f0100000000000000000000000000000000000000000000000000000000000000908190048102049450611b5d89600163ffffffff612ca616565b9350611b7089602163ffffffff612ca616565b925060018b60405160200180807f19457468657265756d205369676e6564204d6573736167653a0a200000000000815250601b0182600019166000191681526020019150506040516020818303038152906040526040518082805190602001908083836020831061182657805182527fffffffffffffffffffffffffffffffffffffffffffffffffffffffffffffffe090920191602091820191016117e9565b6040517f08c379a00000000000000000000000000000000000000000000000000000000081526004016108f590614d1c565b505050505050509392505050565b611c58613b2c565b60606000806000611c67613b2c565b886000815181101515611c7657fe5b9060200190602002015161014001519450600093505b8851841015611d5457848985815181101515611ca457fe5b6020908102909101015161014001528551611cc0908990612bd0565b9250611d038985815181101515611cd357fe5b9060200190602002015160a001518a86815181101515611cef57fe5b906020019060200201516080015185612d6a565b9150611d2f8985815181101515611d1657fe5b90602001906020020151838987815181101515610ec357fe5b9050611d3b868261255d565b8551881415611d4957611d54565b600190930192611c8c565b50505050509392505050565b611d68613b2c565b6020810182905260a08301516080840151611d84918491612d6a565b8152602081015160a084015160c0850151611da0929190612d6a565b6040820152602081015160a084015160e0850151611dbf929190612d6a565b60608201525b92915050565b611dd3613b2c565b611ddb613b84565b6000806000611de9886120ca565b9350611df36125bf565b9250611e078860a001518560400151612bd0565b9150611e138783612d87565b9050611e238885858a858b612727565b611e2d8882611d60565b9450611e4488848660200151876040015189612944565b611137888487612d9d565b60095460009073ffffffffffffffffffffffffffffffffffffffff1615611ea2576040517f08c379a00000000000000000000000000000000000000000000000000000000081526004016108f590614e1c565b611ee5611ee0888888888080601f01602080910402602001604051908101604052809392919081815260200183838082843750612eb2945050505050565b6130f3565b60008181526008602052604090205490915060ff1615611f31576040517f08c379a00000000000000000000000000000000000000000000000000000000081526004016108f590614d4c565b73ffffffffffffffffffffffffffffffffffffffff8616331461200257611f89818785858080601f0160208091040260200160405190810160405280939291908181526020018383808284375061142a945050505050565b1515611fc1576040517f08c379a00000000000000000000000000000000000000000000000000000000081526004016108f590614e8c565b600980547fffffffffffffffffffffffff00000000000000000000000000000000000000001673ffffffffffffffffffffffffffffffffffffffff88161790555b6000818152600860205260409081902080547fffffffffffffffffffffffffffffffffffffffffffffffffffffffffffffff001660011790555130908690869080838380828437820191505092505050600060405180830381855af49150501515612099576040517f08c379a00000000000000000000000000000000000000000000000000000000081526004016108f590614d7c565b5050600980547fffffffffffffffffffffffff00000000000000000000000000000000000000001690555050505050565b6120d2613b84565b6120db82613273565b6020820152608082015115156120f85760015b60ff168152610f32565b60a0820151151561210a5760026120ee565b610100820151421061211d5760046120ee565b60208082015160009081526004909152604090205460ff16156121415760066120ee565b610120820151825173ffffffffffffffffffffffffffffffffffffffff9081166000908152600560209081526040808320606088015190941683529290522054111561218e5760066120ee565b602080820151600090815260039091526040908190205490820181905260a0830151116121bc5760056120ee565b60038152919050565b6121cd613b84565b6121d6826120ca565b90506121e28282613281565b610cb3828260200151613398565b600560209081526000928352604080842090915290825290205481565b6000805460408051602060026001851615610100027fffffffffffffffffffffffffffffffffffffffffffffffffffffffffffffffff0190941693909304601f810184900484028201840190925281815292918301828280156122b15780601f10612286576101008083540402835291602001916122b1565b820191906000526020600020905b81548152906001019060200180831161229457829003601f168201915b505050505081565b6122c1613b2c565b60606000806122ce613b2c565b8760008151811015156122dd57fe5b9060200190602002015161016001519350600092505b87518310156111375783888481518110151561230b57fe5b90602001906020020151610160018190525061232b878660200151612bd0565b9150612357888481518110151561233e57fe5b90602001906020020151838886815181101515610ec357fe5b9050612363858261255d565b868560200151141561237457611137565b6001909201916122f3565b60015481565b61238d613b2c565b6060600080600061239c613b2c565b8860008151811015156123ab57fe5b9060200190602002015161014001519450600093505b8851841015611d54578489858151811015156123d957fe5b60209081029091010151610140015285516123f5908990612bd0565b92506124088985815181101515611cd357fe5b9150612434898581518110151561241b57fe5b9060200190602002015183898781518110151561083e57fe5b9050612440868261255d565b855188141561244e57611d54565b6001909301926123c1565b60095473ffffffffffffffffffffffffffffffffffffffff1681565b60025473ffffffffffffffffffffffffffffffffffffffff1633146124c6576040517f08c379a00000000000000000000000000000000000000000000000000000000081526004016108f590614e2c565b73ffffffffffffffffffffffffffffffffffffffff81161561252357600280547fffffffffffffffffffffffff00000000000000000000000000000000000000001673ffffffffffffffffffffffffffffffffffffffff83161790555b50565b60408051808201909152600b81527f322e302e312d616c706861000000000000000000000000000000000000000000602082015281565b8151815161256b919061343f565b825260208083015190820151612581919061343f565b60208301526040808301519082015161259a919061343f565b6040830152606080830151908201516125b3919061343f565b60609092019190915250565b600954600090819073ffffffffffffffffffffffffffffffffffffffff16156126005760095473ffffffffffffffffffffffffffffffffffffffff16611dc5565b3392915050565b6126198260a001518260a0015161344e565b61262b8360800151836080015161344e565b1015610cb3576040517f08c379a00000000000000000000000000000000000000000000000000000000081526004016108f590614e7c565b61266b613b55565b60008060008061267f8960a0015188612bd0565b935061268f8860a0015187612bd0565b925061269f83896080015161344e565b6126ad858a60a0015161344e565b116126cf578391506126c88860a00151896080015184612d6a565b90506126e8565b8290506126e588608001518960a0015183612d6a565b91505b6126f28983611d60565b85526126fe8882611d60565b60208087018290528651519101516127169190612bd0565b604086015250505050949350505050565b845160ff16600314612765576040517f08c379a00000000000000000000000000000000000000000000000000000000081526004016108f590614e5c565b82151561279e576040517f08c379a00000000000000000000000000000000000000000000000000000000081526004016108f590614d8c565b606086015173ffffffffffffffffffffffffffffffffffffffff161561281157606086015173ffffffffffffffffffffffffffffffffffffffff163314612811576040517f08c379a00000000000000000000000000000000000000000000000000000000081526004016108f590614e6c565b602086015173ffffffffffffffffffffffffffffffffffffffff161561289c578373ffffffffffffffffffffffffffffffffffffffff16866020015173ffffffffffffffffffffffffffffffffffffffff1614151561289c576040517f08c379a00000000000000000000000000000000000000000000000000000000081526004016108f590614cfc565b604085015115156128f2576128ba856020015187600001518361142a565b15156128f2576040517f08c379a00000000000000000000000000000000000000000000000000000000081526004016108f590614d2c565b612905828760a001518860800151613472565b1561293c576040517f08c379a00000000000000000000000000000000000000000000000000000000081526004016108f590614d6c565b505050505050565b61295282826020015161343f565b600084815260036020908152604091829020929092558681015187518451938501518584015160608701516101408c01516101608d015196518b9873ffffffffffffffffffffffffffffffffffffffff9788169897909616967f0bcc4c97732e47d9946f229edb95f5b6323f601300e4690de719993f3c371129966129e1968f96339692959194909390614b46565b60405180910390a45050505050565b60008054604080516020601f60027fffffffffffffffffffffffffffffffffffffffffffffffffffffffffffffffff610100600188161502019095169490940493840181900481028201810190925282815260609390929091830182828015612a9a5780601f10612a6f57610100808354040283529160200191612a9a565b820191906000526020600020905b815481529060010190602001808311612a7d57829003601f168201915b50505050509050612ac2856101400151866000015186600001518560200151602001516134c3565b61014084015184518651845160200151612ade939291906134c3565b612af785610140015186600001518585604001516134c3565b612b1381866000015187604001518560000151604001516134c3565b612b2f81856000015186604001518560200151604001516134c3565b836040015173ffffffffffffffffffffffffffffffffffffffff16856040015173ffffffffffffffffffffffffffffffffffffffff161415612b9957612b9481848760400151612b8f86600001516060015187602001516060015161343f565b6134c3565b612bc9565b612bb1818487604001518560000151606001516134c3565b612bc9818486604001518560200151606001516134c3565b5050505050565b600082821115612bdc57fe5b50900390565b6000808251111515612c20576040517f08c379a00000000000000000000000000000000000000000000000000000000081526004016108f590614dbc565b815182907fffffffffffffffffffffffffffffffffffffffffffffffffffffffffffffffff8101908110612c5057fe5b016020015182517fffffffffffffffffffffffffffffffffffffffffffffffffffffffffffffffff01909252507f0100000000000000000000000000000000000000000000000000000000000000908190040290565b600081602001835110151515612ce8576040517f08c379a00000000000000000000000000000000000000000000000000000000081526004016108f590614d0c565b50016020015190565b60006014825110151515612d31576040517f08c379a00000000000000000000000000000000000000000000000000000000081526004016108f590614e3c565b612d3f82601484510361365b565b82517fffffffffffffffffffffffffffffffffffffffffffffffffffffffffffffffec019092525090565b6000612d7f612d79858461344e565b846136bc565b949350505050565b6000818310612d965781610f9f565b5090919050565b60008054604080516020601f60027fffffffffffffffffffffffffffffffffffffffffffffffffffffffffffffffff610100600188161502019095169490940493840181900481028201810190925282815260609390929091830182828015612e475780601f10612e1c57610100808354040283529160200191612e47565b820191906000526020600020905b815481529060010190602001808311612e2a57829003601f168201915b50505050509050612e6784610140015185600001518585600001516134c3565b612e8084610160015184866000015185602001516134c3565b612e98818560000151866040015185604001516134c3565b612eac8184866040015185606001516134c3565b50505050565b604080517f5a65726f45785472616e73616374696f6e2800000000000000000000000000006020808301919091527f75696e743235362073616c742c0000000000000000000000000000000000000060328301527f61646472657373207369676e6572416464726573732c00000000000000000000603f8301527f627974657320646174610000000000000000000000000000000000000000000060558301527f2900000000000000000000000000000000000000000000000000000000000000605f830152825180830384018152606090920192839052815160009384938493909282918401908083835b60208310612fdb57805182527fffffffffffffffffffffffffffffffffffffffffffffffffffffffffffffffe09092019160209182019101612f9e565b51815160209384036101000a7fffffffffffffffffffffffffffffffffffffffffffffffffffffffffffffffff018019909216911617905260405191909301819003812089519097508995509093508392850191508083835b6020831061307157805182527fffffffffffffffffffffffffffffffffffffffffffffffffffffffffffffffe09092019160209182019101613034565b51815160209384036101000a7fffffffffffffffffffffffffffffffffffffffffffffffffffffffffffffffff01801990921691161790526040805192909401829003822097825281019a909a525073ffffffffffffffffffffffffffffffffffffffff97909716968801969096525050606085015250506080909120919050565b60006040805190810160405280600281526020017f1901000000000000000000000000000000000000000000000000000000000000815250600154836040516020018084805190602001908083835b6020831061317f57805182527fffffffffffffffffffffffffffffffffffffffffffffffffffffffffffffffe09092019160209182019101613142565b51815160209384036101000a7fffffffffffffffffffffffffffffffffffffffffffffffffffffffffffffffff0180199092169116179052920194855250838101929092525060408051808403830181529281019081905282519293509182918401908083835b6020831061322357805182527fffffffffffffffffffffffffffffffffffffffffffffffffffffffffffffffe090920191602091820191016131e6565b5181516020939093036101000a7fffffffffffffffffffffffffffffffffffffffffffffffffffffffffffffffff0180199091169216919091179052604051920182900390912095945050505050565b6000611dc5611ee0836136d3565b805160009060ff166003146132c2576040517f08c379a00000000000000000000000000000000000000000000000000000000081526004016108f590614e5c565b606083015173ffffffffffffffffffffffffffffffffffffffff161561333557606083015173ffffffffffffffffffffffffffffffffffffffff163314613335576040517f08c379a00000000000000000000000000000000000000000000000000000000081526004016108f590614e6c565b61333d6125bf565b835190915073ffffffffffffffffffffffffffffffffffffffff808316911614613393576040517f08c379a00000000000000000000000000000000000000000000000000000000081526004016108f590614d3c565b505050565b6000818152600460205260409081902080547fffffffffffffffffffffffffffffffffffffffffffffffffffffffffffffff001660011790558281015183516101408501516101608601519351859473ffffffffffffffffffffffffffffffffffffffff9485169493909316927fdc47b3613d9fe400085f6dbdc99453462279057e6207385042827ed6b1a62cf79261343392339290614bca565b60405180910390a45050565b600082820183811015610f9f57fe5b600082820283158061346a575082848281151561346757fe5b04145b1515610f9f57fe5b60008060008480151561348157fe5b86850991508115156134965760009250610864565b6134b56134a683620f424061344e565b6134b0888761344e565b6136bc565b6103e8109695505050505050565b60008060008084111561365257865160031061350b576040517f08c379a00000000000000000000000000000000000000000000000000000000081526004016108f590614dfc565b6020878101517fffffffff00000000000000000000000000000000000000000000000000000000166000818152600a90925260409091205490935073ffffffffffffffffffffffffffffffffffffffff169150811515613597576040517f08c379a00000000000000000000000000000000000000000000000000000000081526004016108f590614d9c565b604051660fffffffffffe0603f895101168060840182017fa85e59e40000000000000000000000000000000000000000000000000000000083526080600484015273ffffffffffffffffffffffffffffffffffffffff8916602484015273ffffffffffffffffffffffffffffffffffffffff88166044840152866064840152608483015b81811015613633578a51815260209a8b019a0161361b565b610200848584038660008a5af1945084151561364d573d84fd5b505050505b50505050505050565b60008160140183511015151561369d576040517f08c379a00000000000000000000000000000000000000000000000000000000081526004016108f590614e3c565b50016014015173ffffffffffffffffffffffffffffffffffffffff1690565b60008082848115156136ca57fe5b04949350505050565b604080517f4f726465722800000000000000000000000000000000000000000000000000006020808301919091527f61646472657373206d616b6572416464726573732c000000000000000000000060268301527f616464726573732074616b6572416464726573732c0000000000000000000000603b8301527f6164647265737320666565526563697069656e74416464726573732c0000000060508301527f616464726573732073656e646572416464726573732c00000000000000000000606c8301527f75696e74323536206d616b65724173736574416d6f756e742c0000000000000060828301527f75696e743235362074616b65724173736574416d6f756e742c00000000000000609b8301527f75696e74323536206d616b65724665652c00000000000000000000000000000060b48301527f75696e743235362074616b65724665652c00000000000000000000000000000060c58301527f75696e743235362065787069726174696f6e54696d655365636f6e64732c000060d68301527f75696e743235362073616c742c0000000000000000000000000000000000000060f48301527f6279746573206d616b65724173736574446174612c00000000000000000000006101018301527f62797465732074616b65724173736574446174610000000000000000000000006101168301527f290000000000000000000000000000000000000000000000000000000000000061012a830152825161010b81840301815261012b90920192839052815160009384938493849391929182918401908083835b6020831061395b57805182527fffffffffffffffffffffffffffffffffffffffffffffffffffffffffffffffe0909201916020918201910161391e565b51815160209384036101000a7fffffffffffffffffffffffffffffffffffffffffffffffffffffffffffffffff01801990921691161790526040519190930181900381206101408b0151805191995095509093508392850191508083835b602083106139f657805182527fffffffffffffffffffffffffffffffffffffffffffffffffffffffffffffffe090920191602091820191016139b9565b51815160209384036101000a7fffffffffffffffffffffffffffffffffffffffffffffffffffffffffffffffff01801990921691161790526040519190930181900381206101608b0151805191985095509093508392850191508083835b60208310613a9157805182527fffffffffffffffffffffffffffffffffffffffffffffffffffffffffffffffe09092019160209182019101613a54565b5181516020939093036101000a7fffffffffffffffffffffffffffffffffffffffffffffffffffffffffffffffff018019909116921691909117905260405192018290039091207fffffffffffffffffffffffffffffffffffffffffffffffffffffffffffffffe0890180516101408b018051610160909c0180519a84529881529288526101a0822091529890525050509190525090919050565b608060405190810160405280600081526020016000815260200160008152602001600081525090565b61012060405190810160405280613b6a613b2c565b8152602001613b77613b2c565b8152602001600081525090565b604080516060810182526000808252602082018190529181019190915290565b6000610f9f8235614f69565b6000601f82018313613bc157600080fd5b8135613bd4613bcf82614efe565b614ed7565b81815260209384019390925082018360005b83811015613c125781358601613bfc8882613d6e565b8452506020928301929190910190600101613be6565b5050505092915050565b6000601f82018313613c2d57600080fd5b8135613c3b613bcf82614efe565b81815260209384019390925082018360005b83811015613c125781358601613c638882613dbd565b8452506020928301929190910190600101613c4d565b6000601f82018313613c8a57600080fd5b8135613c98613bcf82614efe565b91508181835260208401935060208101905083856020840282011115613cbd57600080fd5b60005b83811015613c125781613cd38882613d01565b8452506020928301929190910190600101613cc0565b6000610f9f8235614f82565b6000610f9f8251614f82565b6000610f9f8235614f87565b6000610f9f8235614f8a565b6000610f9f8251614f8a565b600080601f83018413613d3757600080fd5b50813567ffffffffffffffff811115613d4f57600080fd5b602083019150836001820283011115613d6757600080fd5b9250929050565b6000601f82018313613d7f57600080fd5b8135613d8d613bcf82614f1f565b91508082526020830160208301858383011115613da957600080fd5b613db4838284614fc0565b50505092915050565b60006101808284031215613dd057600080fd5b613ddb610180614ed7565b90506000613de98484613ba4565b8252506020613dfa84848301613ba4565b6020830152506040613e0e84828501613ba4565b6040830152506060613e2284828501613ba4565b6060830152506080613e3684828501613d01565b60808301525060a0613e4a84828501613d01565b60a08301525060c0613e5e84828501613d01565b60c08301525060e0613e7284828501613d01565b60e083015250610100613e8784828501613d01565b61010083015250610120613e9d84828501613d01565b6101208301525061014082013567ffffffffffffffff811115613ebf57600080fd5b613ecb84828501613d6e565b6101408301525061016082013567ffffffffffffffff811115613eed57600080fd5b613ef984828501613d6e565b6101608301525092915050565b600060208284031215613f1857600080fd5b6000612d7f8484613ba4565b60008060408385031215613f3757600080fd5b6000613f438585613ba4565b9250506020613f5485828601613ba4565b9150509250929050565b60008060408385031215613f7157600080fd5b6000613f7d8585613ba4565b9250506020613f5485828601613ce9565b600060208284031215613fa057600080fd5b813567ffffffffffffffff811115613fb757600080fd5b612d7f84828501613c1c565b600080600060608486031215613fd857600080fd5b833567ffffffffffffffff811115613fef57600080fd5b613ffb86828701613c1c565b935050602084013567ffffffffffffffff81111561401857600080fd5b61402486828701613c79565b925050604084013567ffffffffffffffff81111561404157600080fd5b61404d86828701613bb0565b9150509250925092565b60008060006060848603121561406c57600080fd5b833567ffffffffffffffff81111561408357600080fd5b61408f86828701613c1c565b935050602061402486828701613d01565b6000602082840312156140b257600080fd5b6000612d7f8484613cf5565b6000602082840312156140d057600080fd5b6000612d7f8484613d01565b600080604083850312156140ef57600080fd5b6000613f438585613d01565b6000806000806060858703121561411157600080fd5b600061411d8787613d01565b945050602061412e87828801613ba4565b935050604085013567ffffffffffffffff81111561414b57600080fd5b61415787828801613d25565b95989497509550505050565b60008060006060848603121561417857600080fd5b60006141848686613d01565b935050602061419586828701613ba4565b925050604084013567ffffffffffffffff8111156141b257600080fd5b61404d86828701613d6e565b6000602082840312156141d057600080fd5b6000612d7f8484613d0d565b6000602082840312156141ee57600080fd5b6000612d7f8484613d19565b60008060006060848603121561420f57600080fd5b600061421b8686613d0d565b935050602061422c86828701613ba4565b925050604061404d86828701613ba4565b60006020828403121561424f57600080fd5b813567ffffffffffffffff81111561426657600080fd5b612d7f84828501613dbd565b6000806000806080858703121561428857600080fd5b843567ffffffffffffffff81111561429f57600080fd5b6142ab87828801613dbd565b945050602085013567ffffffffffffffff8111156142c857600080fd5b6142d487828801613dbd565b935050604085013567ffffffffffffffff8111156142f157600080fd5b6142fd87828801613d6e565b925050606085013567ffffffffffffffff81111561431a57600080fd5b61432687828801613d6e565b91505092959194509250565b6000806040838503121561434557600080fd5b823567ffffffffffffffff81111561435c57600080fd5b61436885828601613dbd565b9250506020613f5485828601613d01565b60008060006060848603121561438e57600080fd5b833567ffffffffffffffff8111156143a557600080fd5b6143b186828701613dbd565b935050602061419586828701613d01565b600080600080600080608087890312156143db57600080fd5b60006143e78989613d01565b96505060206143f889828a01613ba4565b955050604087013567ffffffffffffffff81111561441557600080fd5b61442189828a01613d25565b9450945050606087013567ffffffffffffffff81111561444057600080fd5b61444c89828a01613d25565b92509250509295509295509295565b61446481614f69565b82525050565b61446481614f82565b61446481614f87565b61446481614f8a565b600061449082614f65565b8084526144a4816020860160208601614fcc565b6144ad81614ff8565b9093016020019392505050565b61446481614fb5565b601281527f4c454e4754485f36355f52455155495245440000000000000000000000000000602082015260400190565b600d81527f494e56414c49445f54414b455200000000000000000000000000000000000000602082015260400190565b602681527f475245415445525f4f525f455155414c5f544f5f33325f4c454e4754485f524560208201527f5155495245440000000000000000000000000000000000000000000000000000604082015260600190565b601581527f5349474e41545552455f554e535550504f525445440000000000000000000000602082015260400190565b601781527f494e56414c49445f4f524445525f5349474e4154555245000000000000000000602082015260400190565b600d81527f494e56414c49445f4d414b455200000000000000000000000000000000000000602082015260400190565b600f81527f494e56414c49445f54585f484153480000000000000000000000000000000000602082015260400190565b601181527f494e56414c49445f5349474e4154555245000000000000000000000000000000602082015260400190565b600e81527f524f554e44494e475f4552524f52000000000000000000000000000000000000602082015260400190565b601081527f4641494c45445f455845435554494f4e00000000000000000000000000000000602082015260400190565b601481527f494e56414c49445f54414b45525f414d4f554e54000000000000000000000000602082015260400190565b601a81527f41535345545f50524f58595f444f45535f4e4f545f4558495354000000000000602082015260400190565b601781527f41535345545f50524f58595f49445f4d49534d41544348000000000000000000602082015260400190565b602181527f475245415445525f5448414e5f5a45524f5f4c454e4754485f5245515549524560208201527f4400000000000000000000000000000000000000000000000000000000000000604082015260600190565b601181527f5349474e41545552455f494c4c4547414c000000000000000000000000000000602082015260400190565b601e81527f4c454e4754485f475245415445525f5448414e5f305f52455155495245440000602082015260400190565b601781527f494e56414c49445f4e45575f4f524445525f45504f4348000000000000000000602082015260400190565b601e81527f4c454e4754485f475245415445525f5448414e5f335f52455155495245440000602082015260400190565b601481527f434f4d504c4554455f46494c4c5f4641494c4544000000000000000000000000602082015260400190565b601281527f5245454e5452414e43595f494c4c4547414c0000000000000000000000000000602082015260400190565b601381527f4f4e4c595f434f4e54524143545f4f574e455200000000000000000000000000602082015260400190565b602681527f475245415445525f4f525f455155414c5f544f5f32305f4c454e4754485f524560208201527f5155495245440000000000000000000000000000000000000000000000000000604082015260600190565b601481527f41535345545f50524f58595f4d49534d41544348000000000000000000000000602082015260400190565b601081527f4f524445525f554e46494c4c41424c4500000000000000000000000000000000602082015260400190565b600e81527f494e56414c49445f53454e444552000000000000000000000000000000000000602082015260400190565b601881527f4e454741544956455f5350524541445f52455155495245440000000000000000602082015260400190565b601481527f494e56414c49445f54585f5349474e4154555245000000000000000000000000602082015260400190565b601181527f4c454e4754485f305f5245515549524544000000000000000000000000000000602082015260400190565b80516080830190614a868482614473565b506020820151614a996020850182614473565b506040820151614aac6040850182614473565b506060820151612eac6060850182614473565b8051610120830190614ad18482614a75565b506020820151614ae46080850182614a75565b506040820151612eac610100850182614473565b80516060830190614b098482614b2f565b506020820151614b1c6020850182614473565b506040820151612eac6040850182614473565b61446481614faf565b60208101611dc5828461445b565b6101008101614b55828b61445b565b614b62602083018a61445b565b614b6f6040830189614473565b614b7c6060830188614473565b614b896080830187614473565b614b9660a0830186614473565b81810360c0830152614ba88185614485565b905081810360e0830152614bbc8184614485565b9a9950505050505050505050565b60608101614bd8828661445b565b8181036020830152614bea8185614485565b90508181036040830152614bfe8184614485565b95945050505050565b60208101611dc5828461446a565b60208101611dc58284614473565b60608101614c318286614473565b614c3e602083018561445b565b8181036040830152614bfe8184614485565b60408101614c5e8285614473565b8181036020830152612d7f8184614485565b60808101614c7e8287614473565b614c8b6020830186614b2f565b614c986040830185614473565b614bfe6060830184614473565b60608101614cb3828661447c565b614cc0602083018561445b565b612d7f604083018461445b565b60208082528101610f9f8184614485565b60208101611dc582846144ba565b60208082528101611dc5816144c3565b60208082528101611dc5816144f3565b60208082528101611dc581614523565b60208082528101611dc581614579565b60208082528101611dc5816145a9565b60208082528101611dc5816145d9565b60208082528101611dc581614609565b60208082528101611dc581614639565b60208082528101611dc581614669565b60208082528101611dc581614699565b60208082528101611dc5816146c9565b60208082528101611dc5816146f9565b60208082528101611dc581614729565b60208082528101611dc581614759565b60208082528101611dc5816147af565b60208082528101611dc5816147df565b60208082528101611dc58161480f565b60208082528101611dc58161483f565b60208082528101611dc58161486f565b60208082528101611dc58161489f565b60208082528101611dc5816148cf565b60208082528101611dc5816148ff565b60208082528101611dc581614955565b60208082528101611dc581614985565b60208082528101611dc5816149b5565b60208082528101611dc5816149e5565b60208082528101611dc581614a15565b60208082528101611dc581614a45565b60808101611dc58284614a75565b6101208101611dc58284614abf565b60608101611dc58284614af8565b60405181810167ffffffffffffffff81118282101715614ef657600080fd5b604052919050565b600067ffffffffffffffff821115614f1557600080fd5b5060209081020190565b600067ffffffffffffffff821115614f3657600080fd5b506020601f919091017fffffffffffffffffffffffffffffffffffffffffffffffffffffffffffffffe0160190565b5190565b73ffffffffffffffffffffffffffffffffffffffff1690565b151590565b90565b7fffffffff000000000000000000000000000000000000000000000000000000001690565b60ff1690565b6000611dc582614f69565b82818337506000910152565b60005b83811015614fe7578181015183820152602001614fcf565b83811115612eac5750506000910152565b601f017fffffffffffffffffffffffffffffffffffffffffffffffffffffffffffffffe016905600a265627a7a7230582028bb8cc582b19d36401f0202affa376d7f5a5e53fde5a91c1b1fe4391c65989c6c6578706572696d656e74616cf50037",
				"opcodes": "PUSH1 0x80 PUSH1 0x40 MSTORE CALLVALUE DUP1 ISZERO PUSH3 0x11 JUMPI PUSH1 0x0 DUP1 REVERT JUMPDEST POP PUSH1 0x40 MLOAD PUSH3 0x55CD CODESIZE SUB DUP1 PUSH3 0x55CD DUP4 CODECOPY DUP2 ADD DUP1 PUSH1 0x40 MSTORE PUSH3 0x37 SWAP2 SWAP1 DUP2 ADD SWAP1 PUSH3 0x433 JUMP JUMPDEST DUP1 MLOAD DUP2 SWAP1 PUSH3 0x4E SWAP1 PUSH1 0x0 SWAP1 PUSH1 0x20 DUP5 ADD SWAP1 PUSH3 0x332 JUMP JUMPDEST POP POP PUSH1 0x40 DUP1 MLOAD PUSH32 0x454950373132446F6D61696E2800000000000000000000000000000000000000 PUSH1 0x20 DUP1 DUP4 ADD SWAP2 SWAP1 SWAP2 MSTORE PUSH32 0x737472696E67206E616D652C0000000000000000000000000000000000000000 PUSH1 0x2D DUP4 ADD MSTORE PUSH32 0x737472696E672076657273696F6E2C0000000000000000000000000000000000 PUSH1 0x39 DUP4 ADD MSTORE PUSH32 0x6164647265737320766572696679696E67436F6E747261637400000000000000 PUSH1 0x48 DUP4 ADD MSTORE PUSH32 0x2900000000000000000000000000000000000000000000000000000000000000 PUSH1 0x61 DUP4 ADD MSTORE DUP3 MLOAD PUSH1 0x42 DUP2 DUP5 SUB ADD DUP2 MSTORE PUSH1 0x62 SWAP1 SWAP3 ADD SWAP3 DUP4 SWAP1 MSTORE DUP2 MLOAD SWAP2 SWAP3 SWAP2 DUP3 SWAP2 DUP5 ADD SWAP1 DUP1 DUP4 DUP4 JUMPDEST PUSH1 0x20 DUP4 LT PUSH3 0x158 JUMPI DUP1 MLOAD DUP3 MSTORE PUSH1 0x1F NOT SWAP1 SWAP3 ADD SWAP2 PUSH1 0x20 SWAP2 DUP3 ADD SWAP2 ADD PUSH3 0x137 JUMP JUMPDEST MLOAD DUP2 MLOAD PUSH1 0x20 SWAP4 DUP5 SUB PUSH2 0x100 EXP PUSH1 0x0 NOT ADD DUP1 NOT SWAP1 SWAP3 AND SWAP2 AND OR SWAP1 MSTORE PUSH1 0x40 DUP1 MLOAD SWAP3 SWAP1 SWAP5 ADD DUP3 SWAP1 SUB DUP3 KECCAK256 DUP3 DUP6 ADD DUP6 MSTORE PUSH1 0xB DUP1 DUP5 MSTORE PUSH32 0x30782050726F746F636F6C000000000000000000000000000000000000000000 SWAP3 DUP5 ADD SWAP3 DUP4 MSTORE SWAP5 MLOAD SWAP1 SWAP7 POP SWAP2 SWAP5 POP SWAP1 SWAP3 DUP4 SWAP3 POP DUP1 DUP4 DUP4 JUMPDEST PUSH1 0x20 DUP4 LT PUSH3 0x1E2 JUMPI DUP1 MLOAD DUP3 MSTORE PUSH1 0x1F NOT SWAP1 SWAP3 ADD SWAP2 PUSH1 0x20 SWAP2 DUP3 ADD SWAP2 ADD PUSH3 0x1C1 JUMP JUMPDEST MLOAD DUP2 MLOAD PUSH1 0x20 SWAP4 DUP5 SUB PUSH2 0x100 EXP PUSH1 0x0 NOT ADD DUP1 NOT SWAP1 SWAP3 AND SWAP2 AND OR SWAP1 MSTORE PUSH1 0x40 DUP1 MLOAD SWAP3 SWAP1 SWAP5 ADD DUP3 SWAP1 SUB DUP3 KECCAK256 DUP3 DUP6 ADD DUP6 MSTORE PUSH1 0x1 DUP1 DUP5 MSTORE PUSH32 0x3200000000000000000000000000000000000000000000000000000000000000 SWAP3 DUP5 ADD SWAP3 DUP4 MSTORE SWAP5 MLOAD SWAP1 SWAP7 POP SWAP2 SWAP5 POP SWAP1 SWAP3 DUP4 SWAP3 POP DUP1 DUP4 DUP4 JUMPDEST PUSH1 0x20 DUP4 LT PUSH3 0x26C JUMPI DUP1 MLOAD DUP3 MSTORE PUSH1 0x1F NOT SWAP1 SWAP3 ADD SWAP2 PUSH1 0x20 SWAP2 DUP3 ADD SWAP2 ADD PUSH3 0x24B JUMP JUMPDEST MLOAD DUP2 MLOAD PUSH1 0x20 SWAP4 DUP5 SUB PUSH2 0x100 EXP PUSH1 0x0 NOT ADD DUP1 NOT SWAP1 SWAP3 AND SWAP2 AND OR SWAP1 MSTORE PUSH1 0x40 MLOAD SWAP2 SWAP1 SWAP4 ADD DUP2 SWAP1 SUB DUP2 KECCAK256 PUSH3 0x2A7 SWAP8 SWAP7 SWAP6 POP SWAP4 POP ADDRESS SWAP3 ADD SWAP1 POP PUSH3 0x48F JUMP JUMPDEST PUSH1 0x40 MLOAD PUSH1 0x20 DUP2 DUP4 SUB SUB DUP2 MSTORE SWAP1 PUSH1 0x40 MSTORE PUSH1 0x40 MLOAD DUP1 DUP3 DUP1 MLOAD SWAP1 PUSH1 0x20 ADD SWAP1 DUP1 DUP4 DUP4 JUMPDEST PUSH1 0x20 DUP4 LT PUSH3 0x2E7 JUMPI DUP1 MLOAD DUP3 MSTORE PUSH1 0x1F NOT SWAP1 SWAP3 ADD SWAP2 PUSH1 0x20 SWAP2 DUP3 ADD SWAP2 ADD PUSH3 0x2C6 JUMP JUMPDEST MLOAD DUP2 MLOAD PUSH1 0x0 NOT PUSH1 0x20 SWAP5 SWAP1 SWAP5 SUB PUSH2 0x100 EXP SWAP4 SWAP1 SWAP4 ADD SWAP3 DUP4 AND SWAP3 NOT AND SWAP2 SWAP1 SWAP2 OR SWAP1 MSTORE PUSH1 0x40 MLOAD SWAP3 ADD DUP3 SWAP1 SUB SWAP1 SWAP2 KECCAK256 PUSH1 0x1 SSTORE POP POP PUSH1 0x2 DUP1 SLOAD PUSH1 0x1 PUSH1 0xA0 PUSH1 0x2 EXP SUB NOT AND CALLER OR SWAP1 SSTORE POP PUSH3 0x563 SWAP1 POP JUMP JUMPDEST DUP3 DUP1 SLOAD PUSH1 0x1 DUP2 PUSH1 0x1 AND ISZERO PUSH2 0x100 MUL SUB AND PUSH1 0x2 SWAP1 DIV SWAP1 PUSH1 0x0 MSTORE PUSH1 0x20 PUSH1 0x0 KECCAK256 SWAP1 PUSH1 0x1F ADD PUSH1 0x20 SWAP1 DIV DUP2 ADD SWAP3 DUP3 PUSH1 0x1F LT PUSH3 0x375 JUMPI DUP1 MLOAD PUSH1 0xFF NOT AND DUP4 DUP1 ADD OR DUP6 SSTORE PUSH3 0x3A5 JUMP JUMPDEST DUP3 DUP1 ADD PUSH1 0x1 ADD DUP6 SSTORE DUP3 ISZERO PUSH3 0x3A5 JUMPI SWAP2 DUP3 ADD JUMPDEST DUP3 DUP2 GT ISZERO PUSH3 0x3A5 JUMPI DUP3 MLOAD DUP3 SSTORE SWAP2 PUSH1 0x20 ADD SWAP2 SWAP1 PUSH1 0x1 ADD SWAP1 PUSH3 0x388 JUMP JUMPDEST POP PUSH3 0x3B3 SWAP3 SWAP2 POP PUSH3 0x3B7 JUMP JUMPDEST POP SWAP1 JUMP JUMPDEST PUSH3 0x3D4 SWAP2 SWAP1 JUMPDEST DUP1 DUP3 GT ISZERO PUSH3 0x3B3 JUMPI PUSH1 0x0 DUP2 SSTORE PUSH1 0x1 ADD PUSH3 0x3BE JUMP JUMPDEST SWAP1 JUMP JUMPDEST PUSH1 0x0 PUSH1 0x1F DUP3 ADD DUP4 SGT PUSH3 0x3E9 JUMPI PUSH1 0x0 DUP1 REVERT JUMPDEST DUP2 MLOAD PUSH3 0x400 PUSH3 0x3FA DUP3 PUSH3 0x4FC JUMP JUMPDEST PUSH3 0x4D5 JUMP JUMPDEST SWAP2 POP DUP1 DUP3 MSTORE PUSH1 0x20 DUP4 ADD PUSH1 0x20 DUP4 ADD DUP6 DUP4 DUP4 ADD GT ISZERO PUSH3 0x41D JUMPI PUSH1 0x0 DUP1 REVERT JUMPDEST PUSH3 0x42A DUP4 DUP3 DUP5 PUSH3 0x530 JUMP JUMPDEST POP POP POP SWAP3 SWAP2 POP POP JUMP JUMPDEST PUSH1 0x0 PUSH1 0x20 DUP3 DUP5 SUB SLT ISZERO PUSH3 0x446 JUMPI PUSH1 0x0 DUP1 REVERT JUMPDEST DUP2 MLOAD PUSH1 0x1 PUSH1 0x40 PUSH1 0x2 EXP SUB DUP2 GT ISZERO PUSH3 0x45D JUMPI PUSH1 0x0 DUP1 REVERT JUMPDEST PUSH3 0x46B DUP5 DUP3 DUP6 ADD PUSH3 0x3D7 JUMP JUMPDEST SWAP5 SWAP4 POP POP POP POP JUMP JUMPDEST PUSH3 0x47E DUP2 PUSH3 0x524 JUMP JUMPDEST DUP3 MSTORE POP POP JUMP JUMPDEST PUSH3 0x47E DUP2 PUSH3 0x3D4 JUMP JUMPDEST PUSH1 0x80 DUP2 ADD PUSH3 0x49F DUP3 DUP8 PUSH3 0x484 JUMP JUMPDEST PUSH3 0x4AE PUSH1 0x20 DUP4 ADD DUP7 PUSH3 0x484 JUMP JUMPDEST PUSH3 0x4BD PUSH1 0x40 DUP4 ADD DUP6 PUSH3 0x484 JUMP JUMPDEST PUSH3 0x4CC PUSH1 0x60 DUP4 ADD DUP5 PUSH3 0x473 JUMP JUMPDEST SWAP6 SWAP5 POP POP POP POP POP JUMP JUMPDEST PUSH1 0x40 MLOAD DUP2 DUP2 ADD PUSH1 0x1 PUSH1 0x40 PUSH1 0x2 EXP SUB DUP2 GT DUP3 DUP3 LT OR ISZERO PUSH3 0x4F4 JUMPI PUSH1 0x0 DUP1 REVERT JUMPDEST PUSH1 0x40 MSTORE SWAP2 SWAP1 POP JUMP JUMPDEST PUSH1 0x0 PUSH1 0x1 PUSH1 0x40 PUSH1 0x2 EXP SUB DUP3 GT ISZERO PUSH3 0x513 JUMPI PUSH1 0x0 DUP1 REVERT JUMPDEST POP PUSH1 0x20 PUSH1 0x1F SWAP2 SWAP1 SWAP2 ADD PUSH1 0x1F NOT AND ADD SWAP1 JUMP JUMPDEST PUSH1 0x1 PUSH1 0xA0 PUSH1 0x2 EXP SUB AND SWAP1 JUMP JUMPDEST PUSH1 0x0 JUMPDEST DUP4 DUP2 LT ISZERO PUSH3 0x54D JUMPI DUP2 DUP2 ADD MLOAD DUP4 DUP3 ADD MSTORE PUSH1 0x20 ADD PUSH3 0x533 JUMP JUMPDEST DUP4 DUP2 GT ISZERO PUSH3 0x55D JUMPI PUSH1 0x0 DUP5 DUP5 ADD MSTORE JUMPDEST POP POP POP POP JUMP JUMPDEST PUSH2 0x505A DUP1 PUSH3 0x573 PUSH1 0x0 CODECOPY PUSH1 0x0 RETURN STOP PUSH1 0x80 PUSH1 0x40 MSTORE PUSH1 0x4 CALLDATASIZE LT PUSH2 0x1C1 JUMPI PUSH4 0xFFFFFFFF PUSH29 0x100000000000000000000000000000000000000000000000000000000 PUSH1 0x0 CALLDATALOAD DIV AND PUSH4 0x2624B2D9 DUP2 EQ PUSH2 0x1C6 JUMPI DUP1 PUSH4 0x288CDC91 EQ PUSH2 0x1F1 JUMPI DUP1 PUSH4 0x297BB70B EQ PUSH2 0x211 JUMPI DUP1 PUSH4 0x2AC12622 EQ PUSH2 0x23E JUMPI DUP1 PUSH4 0x3683EF8E EQ PUSH2 0x26B JUMPI DUP1 PUSH4 0x3C28D861 EQ PUSH2 0x28D JUMPI DUP1 PUSH4 0x3E228BAE EQ PUSH2 0x2BA JUMPI DUP1 PUSH4 0x3FD3C997 EQ PUSH2 0x2DA JUMPI DUP1 PUSH4 0x4AC14782 EQ PUSH2 0x307 JUMPI DUP1 PUSH4 0x4D0AE546 EQ PUSH2 0x327 JUMPI DUP1 PUSH4 0x4F9559B1 EQ PUSH2 0x347 JUMPI DUP1 PUSH4 0x50DDE190 EQ PUSH2 0x367 JUMPI DUP1 PUSH4 0x60704108 EQ PUSH2 0x387 JUMPI DUP1 PUSH4 0x642F2EAF EQ PUSH2 0x3B4 JUMPI DUP1 PUSH4 0x64A3BC15 EQ PUSH2 0x3D4 JUMPI DUP1 PUSH4 0x77FCCE68 EQ PUSH2 0x3F4 JUMPI DUP1 PUSH4 0x7B8E3514 EQ PUSH2 0x414 JUMPI DUP1 PUSH4 0x7E1D9808 EQ PUSH2 0x434 JUMPI DUP1 PUSH4 0x82C174D0 EQ PUSH2 0x454 JUMPI DUP1 PUSH4 0x833ABF3A EQ PUSH2 0x474 JUMPI DUP1 PUSH4 0x8DA5CB5B EQ PUSH2 0x494 JUMPI DUP1 PUSH4 0x93634702 EQ PUSH2 0x4A9 JUMPI DUP1 PUSH4 0xA3E20380 EQ PUSH2 0x4C9 JUMPI DUP1 PUSH4 0xAD1876B5 EQ PUSH2 0x4E9 JUMPI DUP1 PUSH4 0xB4BE83D5 EQ PUSH2 0x509 JUMPI DUP1 PUSH4 0xBFC8BFCE EQ PUSH2 0x529 JUMPI DUP1 PUSH4 0xC75E0A81 EQ PUSH2 0x549 JUMPI DUP1 PUSH4 0xD46B02C3 EQ PUSH2 0x576 JUMPI DUP1 PUSH4 0xD9BFA73E EQ PUSH2 0x596 JUMPI DUP1 PUSH4 0xDB123B1A EQ PUSH2 0x5B6 JUMPI DUP1 PUSH4 0xDD1C7D18 EQ PUSH2 0x5D8 JUMPI DUP1 PUSH4 0xE306F779 EQ PUSH2 0x5F8 JUMPI DUP1 PUSH4 0xE5FA431B EQ PUSH2 0x60D JUMPI DUP1 PUSH4 0xEEA086BA EQ PUSH2 0x62D JUMPI DUP1 PUSH4 0xF2FDE38B EQ PUSH2 0x642 JUMPI DUP1 PUSH4 0xFFA1AD74 EQ PUSH2 0x662 JUMPI JUMPDEST PUSH1 0x0 DUP1 REVERT JUMPDEST CALLVALUE DUP1 ISZERO PUSH2 0x1D2 JUMPI PUSH1 0x0 DUP1 REVERT JUMPDEST POP PUSH2 0x1DB PUSH2 0x677 JUMP JUMPDEST PUSH1 0x40 MLOAD PUSH2 0x1E8 SWAP2 SWAP1 PUSH2 0x4C15 JUMP JUMPDEST PUSH1 0x40 MLOAD DUP1 SWAP2 SUB SWAP1 RETURN JUMPDEST CALLVALUE DUP1 ISZERO PUSH2 0x1FD JUMPI PUSH1 0x0 DUP1 REVERT JUMPDEST POP PUSH2 0x1DB PUSH2 0x20C CALLDATASIZE PUSH1 0x4 PUSH2 0x40BE JUMP JUMPDEST PUSH2 0x7CB JUMP JUMPDEST CALLVALUE DUP1 ISZERO PUSH2 0x21D JUMPI PUSH1 0x0 DUP1 REVERT JUMPDEST POP PUSH2 0x231 PUSH2 0x22C CALLDATASIZE PUSH1 0x4 PUSH2 0x3FC3 JUMP JUMPDEST PUSH2 0x7DD JUMP JUMPDEST PUSH1 0x40 MLOAD PUSH2 0x1E8 SWAP2 SWAP1 PUSH2 0x4EAC JUMP JUMPDEST CALLVALUE DUP1 ISZERO PUSH2 0x24A JUMPI PUSH1 0x0 DUP1 REVERT JUMPDEST POP PUSH2 0x25E PUSH2 0x259 CALLDATASIZE PUSH1 0x4 PUSH2 0x40BE JUMP JUMPDEST PUSH2 0x86D JUMP JUMPDEST PUSH1 0x40 MLOAD PUSH2 0x1E8 SWAP2 SWAP1 PUSH2 0x4C07 JUMP JUMPDEST CALLVALUE DUP1 ISZERO PUSH2 0x277 JUMPI PUSH1 0x0 DUP1 REVERT JUMPDEST POP PUSH2 0x28B PUSH2 0x286 CALLDATASIZE PUSH1 0x4 PUSH2 0x40FB JUMP JUMPDEST PUSH2 0x882 JUMP JUMPDEST STOP JUMPDEST CALLVALUE DUP1 ISZERO PUSH2 0x299 JUMPI PUSH1 0x0 DUP1 REVERT JUMPDEST POP PUSH2 0x2AD PUSH2 0x2A8 CALLDATASIZE PUSH1 0x4 PUSH2 0x4272 JUMP JUMPDEST PUSH2 0x95B JUMP JUMPDEST PUSH1 0x40 MLOAD PUSH2 0x1E8 SWAP2 SWAP1 PUSH2 0x4EBA JUMP JUMPDEST CALLVALUE DUP1 ISZERO PUSH2 0x2C6 JUMPI PUSH1 0x0 DUP1 REVERT JUMPDEST POP PUSH2 0x231 PUSH2 0x2D5 CALLDATASIZE PUSH1 0x4 PUSH2 0x4379 JUMP JUMPDEST PUSH2 0xA47 JUMP JUMPDEST CALLVALUE DUP1 ISZERO PUSH2 0x2E6 JUMPI PUSH1 0x0 DUP1 REVERT JUMPDEST POP PUSH2 0x2FA PUSH2 0x2F5 CALLDATASIZE PUSH1 0x4 PUSH2 0x41BE JUMP JUMPDEST PUSH2 0xC57 JUMP JUMPDEST PUSH1 0x40 MLOAD PUSH2 0x1E8 SWAP2 SWAP1 PUSH2 0x4CDE JUMP JUMPDEST CALLVALUE DUP1 ISZERO PUSH2 0x313 JUMPI PUSH1 0x0 DUP1 REVERT JUMPDEST POP PUSH2 0x28B PUSH2 0x322 CALLDATASIZE PUSH1 0x4 PUSH2 0x3F8E JUMP JUMPDEST PUSH2 0xC7F JUMP JUMPDEST CALLVALUE DUP1 ISZERO PUSH2 0x333 JUMPI PUSH1 0x0 DUP1 REVERT JUMPDEST POP PUSH2 0x231 PUSH2 0x342 CALLDATASIZE PUSH1 0x4 PUSH2 0x3FC3 JUMP JUMPDEST PUSH2 0xCB7 JUMP JUMPDEST CALLVALUE DUP1 ISZERO PUSH2 0x353 JUMPI PUSH1 0x0 DUP1 REVERT JUMPDEST POP PUSH2 0x28B PUSH2 0x362 CALLDATASIZE PUSH1 0x4 PUSH2 0x40BE JUMP JUMPDEST PUSH2 0xD3E JUMP JUMPDEST CALLVALUE DUP1 ISZERO PUSH2 0x373 JUMPI PUSH1 0x0 DUP1 REVERT JUMPDEST POP PUSH2 0x231 PUSH2 0x382 CALLDATASIZE PUSH1 0x4 PUSH2 0x3FC3 JUMP JUMPDEST PUSH2 0xE62 JUMP JUMPDEST CALLVALUE DUP1 ISZERO PUSH2 0x393 JUMPI PUSH1 0x0 DUP1 REVERT JUMPDEST POP PUSH2 0x3A7 PUSH2 0x3A2 CALLDATASIZE PUSH1 0x4 PUSH2 0x41BE JUMP JUMPDEST PUSH2 0xEE9 JUMP JUMPDEST PUSH1 0x40 MLOAD PUSH2 0x1E8 SWAP2 SWAP1 PUSH2 0x4B38 JUMP JUMPDEST CALLVALUE DUP1 ISZERO PUSH2 0x3C0 JUMPI PUSH1 0x0 DUP1 REVERT JUMPDEST POP PUSH2 0x25E PUSH2 0x3CF CALLDATASIZE PUSH1 0x4 PUSH2 0x40BE JUMP JUMPDEST PUSH2 0xF37 JUMP JUMPDEST CALLVALUE DUP1 ISZERO PUSH2 0x3E0 JUMPI PUSH1 0x0 DUP1 REVERT JUMPDEST POP PUSH2 0x231 PUSH2 0x3EF CALLDATASIZE PUSH1 0x4 PUSH2 0x4379 JUMP JUMPDEST PUSH2 0xF4C JUMP JUMPDEST CALLVALUE DUP1 ISZERO PUSH2 0x400 JUMPI PUSH1 0x0 DUP1 REVERT JUMPDEST POP PUSH2 0x28B PUSH2 0x40F CALLDATASIZE PUSH1 0x4 PUSH2 0x3F5E JUMP JUMPDEST PUSH2 0xFA6 JUMP JUMPDEST CALLVALUE DUP1 ISZERO PUSH2 0x420 JUMPI PUSH1 0x0 DUP1 REVERT JUMPDEST POP PUSH2 0x25E PUSH2 0x42F CALLDATASIZE PUSH1 0x4 PUSH2 0x3F24 JUMP JUMPDEST PUSH2 0x1051 JUMP JUMPDEST CALLVALUE DUP1 ISZERO PUSH2 0x440 JUMPI PUSH1 0x0 DUP1 REVERT JUMPDEST POP PUSH2 0x231 PUSH2 0x44F CALLDATASIZE PUSH1 0x4 PUSH2 0x4057 JUMP JUMPDEST PUSH2 0x1071 JUMP JUMPDEST CALLVALUE DUP1 ISZERO PUSH2 0x460 JUMPI PUSH1 0x0 DUP1 REVERT JUMPDEST POP PUSH2 0x25E PUSH2 0x46F CALLDATASIZE PUSH1 0x4 PUSH2 0x40DC JUMP JUMPDEST PUSH2 0x1142 JUMP JUMPDEST CALLVALUE DUP1 ISZERO PUSH2 0x480 JUMPI PUSH1 0x0 DUP1 REVERT JUMPDEST POP PUSH2 0x28B PUSH2 0x48F CALLDATASIZE PUSH1 0x4 PUSH2 0x41FA JUMP JUMPDEST PUSH2 0x1162 JUMP JUMPDEST CALLVALUE DUP1 ISZERO PUSH2 0x4A0 JUMPI PUSH1 0x0 DUP1 REVERT JUMPDEST POP PUSH2 0x3A7 PUSH2 0x140E JUMP JUMPDEST CALLVALUE DUP1 ISZERO PUSH2 0x4B5 JUMPI PUSH1 0x0 DUP1 REVERT JUMPDEST POP PUSH2 0x25E PUSH2 0x4C4 CALLDATASIZE PUSH1 0x4 PUSH2 0x4163 JUMP JUMPDEST PUSH2 0x142A JUMP JUMPDEST CALLVALUE DUP1 ISZERO PUSH2 0x4D5 JUMPI PUSH1 0x0 DUP1 REVERT JUMPDEST POP PUSH2 0x231 PUSH2 0x4E4 CALLDATASIZE PUSH1 0x4 PUSH2 0x4057 JUMP JUMPDEST PUSH2 0x1C50 JUMP JUMPDEST CALLVALUE DUP1 ISZERO PUSH2 0x4F5 JUMPI PUSH1 0x0 DUP1 REVERT JUMPDEST POP PUSH2 0x231 PUSH2 0x504 CALLDATASIZE PUSH1 0x4 PUSH2 0x4332 JUMP JUMPDEST PUSH2 0x1D60 JUMP JUMPDEST CALLVALUE DUP1 ISZERO PUSH2 0x515 JUMPI PUSH1 0x0 DUP1 REVERT JUMPDEST POP PUSH2 0x231 PUSH2 0x524 CALLDATASIZE PUSH1 0x4 PUSH2 0x4379 JUMP JUMPDEST PUSH2 0x1DCB JUMP JUMPDEST CALLVALUE DUP1 ISZERO PUSH2 0x535 JUMPI PUSH1 0x0 DUP1 REVERT JUMPDEST POP PUSH2 0x28B PUSH2 0x544 CALLDATASIZE PUSH1 0x4 PUSH2 0x43C2 JUMP JUMPDEST PUSH2 0x1E4F JUMP JUMPDEST CALLVALUE DUP1 ISZERO PUSH2 0x555 JUMPI PUSH1 0x0 DUP1 REVERT JUMPDEST POP PUSH2 0x569 PUSH2 0x564 CALLDATASIZE PUSH1 0x4 PUSH2 0x423D JUMP JUMPDEST PUSH2 0x20CA JUMP JUMPDEST PUSH1 0x40 MLOAD PUSH2 0x1E8 SWAP2 SWAP1 PUSH2 0x4EC9 JUMP JUMPDEST CALLVALUE DUP1 ISZERO PUSH2 0x582 JUMPI PUSH1 0x0 DUP1 REVERT JUMPDEST POP PUSH2 0x28B PUSH2 0x591 CALLDATASIZE PUSH1 0x4 PUSH2 0x423D JUMP JUMPDEST PUSH2 0x21C5 JUMP JUMPDEST CALLVALUE DUP1 ISZERO PUSH2 0x5A2 JUMPI PUSH1 0x0 DUP1 REVERT JUMPDEST POP PUSH2 0x1DB PUSH2 0x5B1 CALLDATASIZE PUSH1 0x4 PUSH2 0x3F24 JUMP JUMPDEST PUSH2 0x21F0 JUMP JUMPDEST CALLVALUE DUP1 ISZERO PUSH2 0x5C2 JUMPI PUSH1 0x0 DUP1 REVERT JUMPDEST POP PUSH2 0x5CB PUSH2 0x220D JUMP JUMPDEST PUSH1 0x40 MLOAD PUSH2 0x1E8 SWAP2 SWAP1 PUSH2 0x4CCD JUMP JUMPDEST CALLVALUE DUP1 ISZERO PUSH2 0x5E4 JUMPI PUSH1 0x0 DUP1 REVERT JUMPDEST POP PUSH2 0x231 PUSH2 0x5F3 CALLDATASIZE PUSH1 0x4 PUSH2 0x4057 JUMP JUMPDEST PUSH2 0x22B9 JUMP JUMPDEST CALLVALUE DUP1 ISZERO PUSH2 0x604 JUMPI PUSH1 0x0 DUP1 REVERT JUMPDEST POP PUSH2 0x1DB PUSH2 0x237F JUMP JUMPDEST CALLVALUE DUP1 ISZERO PUSH2 0x619 JUMPI PUSH1 0x0 DUP1 REVERT JUMPDEST POP PUSH2 0x231 PUSH2 0x628 CALLDATASIZE PUSH1 0x4 PUSH2 0x4057 JUMP JUMPDEST PUSH2 0x2385 JUMP JUMPDEST CALLVALUE DUP1 ISZERO PUSH2 0x639 JUMPI PUSH1 0x0 DUP1 REVERT JUMPDEST POP PUSH2 0x3A7 PUSH2 0x2459 JUMP JUMPDEST CALLVALUE DUP1 ISZERO PUSH2 0x64E JUMPI PUSH1 0x0 DUP1 REVERT JUMPDEST POP PUSH2 0x28B PUSH2 0x65D CALLDATASIZE PUSH1 0x4 PUSH2 0x3F06 JUMP JUMPDEST PUSH2 0x2475 JUMP JUMPDEST CALLVALUE DUP1 ISZERO PUSH2 0x66E JUMPI PUSH1 0x0 DUP1 REVERT JUMPDEST POP PUSH2 0x5CB PUSH2 0x2526 JUMP JUMPDEST PUSH1 0x40 DUP1 MLOAD PUSH32 0x454950373132446F6D61696E2800000000000000000000000000000000000000 PUSH1 0x20 DUP1 DUP4 ADD SWAP2 SWAP1 SWAP2 MSTORE PUSH32 0x737472696E67206E616D652C0000000000000000000000000000000000000000 PUSH1 0x2D DUP4 ADD MSTORE PUSH32 0x737472696E672076657273696F6E2C0000000000000000000000000000000000 PUSH1 0x39 DUP4 ADD MSTORE PUSH32 0x6164647265737320766572696679696E67436F6E747261637400000000000000 PUSH1 0x48 DUP4 ADD MSTORE PUSH32 0x2900000000000000000000000000000000000000000000000000000000000000 PUSH1 0x61 DUP4 ADD MSTORE DUP3 MLOAD PUSH1 0x42 DUP2 DUP5 SUB ADD DUP2 MSTORE PUSH1 0x62 SWAP1 SWAP3 ADD SWAP3 DUP4 SWAP1 MSTORE DUP2 MLOAD SWAP2 SWAP3 SWAP2 DUP3 SWAP2 DUP5 ADD SWAP1 DUP1 DUP4 DUP4 JUMPDEST PUSH1 0x20 DUP4 LT PUSH2 0x79B JUMPI DUP1 MLOAD DUP3 MSTORE PUSH32 0xFFFFFFFFFFFFFFFFFFFFFFFFFFFFFFFFFFFFFFFFFFFFFFFFFFFFFFFFFFFFFFE0 SWAP1 SWAP3 ADD SWAP2 PUSH1 0x20 SWAP2 DUP3 ADD SWAP2 ADD PUSH2 0x75E JUMP JUMPDEST PUSH1 0x1 DUP4 PUSH1 0x20 SUB PUSH2 0x100 EXP SUB DUP1 NOT DUP3 MLOAD AND DUP2 DUP5 MLOAD AND DUP1 DUP3 OR DUP6 MSTORE POP POP POP POP POP POP SWAP1 POP ADD SWAP2 POP POP PUSH1 0x40 MLOAD DUP1 SWAP2 SUB SWAP1 KECCAK256 DUP2 JUMP JUMPDEST PUSH1 0x3 PUSH1 0x20 MSTORE PUSH1 0x0 SWAP1 DUP2 MSTORE PUSH1 0x40 SWAP1 KECCAK256 SLOAD DUP2 JUMP JUMPDEST PUSH2 0x7E5 PUSH2 0x3B2C JUMP JUMPDEST PUSH1 0x0 PUSH2 0x7EF PUSH2 0x3B2C JUMP JUMPDEST PUSH1 0x0 SWAP2 POP JUMPDEST DUP6 MLOAD DUP3 LT ISZERO PUSH2 0x864 JUMPI PUSH2 0x84D DUP7 DUP4 DUP2 MLOAD DUP2 LT ISZERO ISZERO PUSH2 0x80E JUMPI INVALID JUMPDEST SWAP1 PUSH1 0x20 ADD SWAP1 PUSH1 0x20 MUL ADD MLOAD DUP7 DUP5 DUP2 MLOAD DUP2 LT ISZERO ISZERO PUSH2 0x826 JUMPI INVALID JUMPDEST SWAP1 PUSH1 0x20 ADD SWAP1 PUSH1 0x20 MUL ADD MLOAD DUP7 DUP6 DUP2 MLOAD DUP2 LT ISZERO ISZERO PUSH2 0x83E JUMPI INVALID JUMPDEST SWAP1 PUSH1 0x20 ADD SWAP1 PUSH1 0x20 MUL ADD MLOAD PUSH2 0x1DCB JUMP JUMPDEST SWAP1 POP PUSH2 0x859 DUP4 DUP3 PUSH2 0x255D JUMP JUMPDEST PUSH1 0x1 SWAP1 SWAP2 ADD SWAP1 PUSH2 0x7F4 JUMP JUMPDEST POP POP SWAP4 SWAP3 POP POP POP JUMP JUMPDEST PUSH1 0x4 PUSH1 0x20 MSTORE PUSH1 0x0 SWAP1 DUP2 MSTORE PUSH1 0x40 SWAP1 KECCAK256 SLOAD PUSH1 0xFF AND DUP2 JUMP JUMPDEST PUSH2 0x8BD DUP5 DUP5 DUP5 DUP5 DUP1 DUP1 PUSH1 0x1F ADD PUSH1 0x20 DUP1 SWAP2 DIV MUL PUSH1 0x20 ADD PUSH1 0x40 MLOAD SWAP1 DUP2 ADD PUSH1 0x40 MSTORE DUP1 SWAP4 SWAP3 SWAP2 SWAP1 DUP2 DUP2 MSTORE PUSH1 0x20 ADD DUP4 DUP4 DUP1 DUP3 DUP5 CALLDATACOPY POP PUSH2 0x142A SWAP5 POP POP POP POP POP JUMP JUMPDEST ISZERO ISZERO PUSH2 0x8FE JUMPI PUSH1 0x40 MLOAD PUSH32 0x8C379A000000000000000000000000000000000000000000000000000000000 DUP2 MSTORE PUSH1 0x4 ADD PUSH2 0x8F5 SWAP1 PUSH2 0x4D5C JUMP JUMPDEST PUSH1 0x40 MLOAD DUP1 SWAP2 SUB SWAP1 REVERT JUMPDEST POP POP PUSH1 0x0 SWAP2 DUP3 MSTORE PUSH1 0x6 PUSH1 0x20 SWAP1 DUP2 MSTORE PUSH1 0x40 DUP1 DUP5 KECCAK256 PUSH20 0xFFFFFFFFFFFFFFFFFFFFFFFFFFFFFFFFFFFFFFFF SWAP1 SWAP4 AND DUP5 MSTORE SWAP2 SWAP1 MSTORE SWAP1 KECCAK256 DUP1 SLOAD PUSH32 0xFFFFFFFFFFFFFFFFFFFFFFFFFFFFFFFFFFFFFFFFFFFFFFFFFFFFFFFFFFFFFF00 AND PUSH1 0x1 OR SWAP1 SSTORE JUMP JUMPDEST PUSH2 0x963 PUSH2 0x3B55 JUMP JUMPDEST PUSH2 0x96B PUSH2 0x3B84 JUMP JUMPDEST PUSH2 0x973 PUSH2 0x3B84 JUMP JUMPDEST PUSH2 0x160 DUP1 DUP9 ADD MLOAD PUSH2 0x140 DUP1 DUP10 ADD SWAP2 SWAP1 SWAP2 MSTORE DUP9 ADD MLOAD SWAP1 DUP8 ADD MSTORE PUSH1 0x0 PUSH2 0x996 DUP9 PUSH2 0x20CA JUMP JUMPDEST SWAP3 POP PUSH2 0x9A1 DUP8 PUSH2 0x20CA JUMP JUMPDEST SWAP2 POP PUSH2 0x9AB PUSH2 0x25BF JUMP JUMPDEST SWAP1 POP PUSH2 0x9B7 DUP9 DUP9 PUSH2 0x2607 JUMP JUMPDEST PUSH2 0x9CB DUP9 DUP9 DUP6 PUSH1 0x40 ADD MLOAD DUP6 PUSH1 0x40 ADD MLOAD PUSH2 0x2663 JUMP JUMPDEST DUP1 MLOAD PUSH1 0x20 ADD MLOAD SWAP1 SWAP5 POP PUSH2 0x9E5 SWAP1 DUP10 SWAP1 DUP6 SWAP1 DUP5 SWAP1 DUP1 DUP12 PUSH2 0x2727 JUMP JUMPDEST PUSH1 0x20 DUP1 DUP6 ADD MLOAD ADD MLOAD PUSH2 0x9FE SWAP1 DUP9 SWAP1 DUP5 SWAP1 DUP5 SWAP1 DUP1 DUP11 PUSH2 0x2727 JUMP JUMPDEST PUSH2 0xA17 DUP9 DUP3 DUP6 PUSH1 0x20 ADD MLOAD DUP7 PUSH1 0x40 ADD MLOAD DUP9 PUSH1 0x0 ADD MLOAD PUSH2 0x2944 JUMP JUMPDEST PUSH2 0xA30 DUP8 DUP3 DUP5 PUSH1 0x20 ADD MLOAD DUP6 PUSH1 0x40 ADD MLOAD DUP9 PUSH1 0x20 ADD MLOAD PUSH2 0x2944 JUMP JUMPDEST PUSH2 0xA3C DUP9 DUP9 DUP4 DUP8 PUSH2 0x29F0 JUMP JUMPDEST POP POP POP SWAP5 SWAP4 POP POP POP POP JUMP JUMPDEST PUSH2 0xA4F PUSH2 0x3B2C JUMP JUMPDEST PUSH1 0x40 DUP1 MLOAD PUSH32 0xB4BE83D500000000000000000000000000000000000000000000000000000000 DUP1 DUP3 MSTORE PUSH1 0x60 PUSH1 0x4 DUP4 ADD DUP2 DUP2 MSTORE DUP9 MLOAD PUSH1 0x64 DUP6 ADD SWAP1 DUP2 MSTORE PUSH1 0x20 DUP1 DUP12 ADD MLOAD PUSH1 0x84 DUP8 ADD MSTORE SWAP6 DUP11 ADD MLOAD PUSH1 0xA4 DUP7 ADD MSTORE SWAP2 DUP10 ADD MLOAD PUSH1 0xC4 DUP6 ADD MSTORE PUSH1 0x80 DUP10 ADD MLOAD PUSH1 0xE4 DUP6 ADD MSTORE PUSH1 0xA0 DUP10 ADD MLOAD PUSH2 0x104 DUP6 ADD MSTORE PUSH1 0xC0 DUP10 ADD MLOAD PUSH2 0x124 DUP6 ADD MSTORE PUSH1 0xE0 DUP10 ADD MLOAD PUSH2 0x144 DUP6 ADD MSTORE PUSH2 0x100 DUP10 ADD MLOAD PUSH2 0x164 DUP6 ADD MSTORE PUSH2 0x120 DUP10 ADD MLOAD PUSH2 0x184 DUP6 ADD MSTORE PUSH2 0x140 DUP10 ADD DUP1 MLOAD PUSH2 0x1A4 DUP7 ADD SWAP1 DUP2 MSTORE PUSH2 0x160 DUP12 ADD MLOAD PUSH2 0x1C4 DUP8 ADD MSTORE PUSH2 0x180 SWAP1 MSTORE MLOAD DUP1 MLOAD PUSH2 0x1E4 DUP7 ADD DUP2 SWAP1 MSTORE SWAP4 SWAP6 SWAP2 SWAP4 DUP5 SWAP4 SWAP3 PUSH1 0x24 DUP8 ADD SWAP3 DUP5 SWAP3 PUSH2 0x204 DUP10 ADD SWAP3 SWAP2 DUP3 ADD SWAP2 PUSH1 0x1F DUP3 ADD DIV PUSH1 0x0 JUMPDEST DUP2 DUP2 LT ISZERO PUSH2 0xB52 JUMPI DUP4 MLOAD DUP6 MSTORE PUSH1 0x20 SWAP5 DUP6 ADD SWAP5 SWAP1 SWAP4 ADD SWAP3 PUSH1 0x1 ADD PUSH2 0xB34 JUMP JUMPDEST POP POP POP POP DUP2 DUP2 SUB PUSH2 0x160 DUP1 DUP5 ADD SWAP2 SWAP1 SWAP2 MSTORE DUP13 ADD MLOAD DUP1 MLOAD DUP1 DUP4 MSTORE PUSH1 0x20 SWAP3 DUP4 ADD SWAP3 SWAP2 DUP3 ADD SWAP2 PUSH1 0x1F DUP3 ADD DIV PUSH1 0x0 JUMPDEST DUP2 DUP2 LT ISZERO PUSH2 0xB9B JUMPI DUP4 MLOAD DUP6 MSTORE PUSH1 0x20 SWAP5 DUP6 ADD SWAP5 SWAP1 SWAP4 ADD SWAP3 PUSH1 0x1 ADD PUSH2 0xB7D JUMP JUMPDEST POP POP POP DUP12 DUP5 MSTORE POP DUP5 DUP2 SUB PUSH1 0x20 SWAP4 DUP5 ADD SWAP1 DUP2 MSTORE DUP11 MLOAD DUP1 DUP4 MSTORE SWAP1 SWAP4 SWAP2 DUP3 ADD SWAP2 DUP12 DUP2 ADD SWAP2 SWAP1 PUSH1 0x1F DUP3 ADD DIV PUSH1 0x0 JUMPDEST DUP2 DUP2 LT ISZERO PUSH2 0xBE3 JUMPI DUP4 MLOAD DUP6 MSTORE PUSH1 0x20 SWAP5 DUP6 ADD SWAP5 SWAP1 SWAP4 ADD SWAP3 PUSH1 0x1 ADD PUSH2 0xBC5 JUMP JUMPDEST POP PUSH1 0x80 DUP11 DUP12 DUP7 SUB DUP13 ADDRESS GAS DELEGATECALL DUP1 DUP1 ISZERO PUSH2 0xC02 JUMPI PUSH1 0x1 DUP2 EQ PUSH2 0xC20 JUMPI PUSH2 0xC43 JUMP JUMPDEST PUSH1 0x0 DUP15 MSTORE PUSH1 0x0 PUSH1 0x20 DUP16 ADD MSTORE PUSH1 0x0 PUSH1 0x40 DUP16 ADD MSTORE PUSH1 0x0 PUSH1 0x60 DUP16 ADD MSTORE PUSH2 0xC43 JUMP JUMPDEST DUP12 MLOAD DUP15 MSTORE PUSH1 0x20 DUP13 ADD MLOAD PUSH1 0x20 DUP16 ADD MSTORE PUSH1 0x40 DUP13 ADD MLOAD PUSH1 0x40 DUP16 ADD MSTORE PUSH1 0x60 DUP13 ADD MLOAD PUSH1 0x60 DUP16 ADD MSTORE JUMPDEST POP POP POP POP POP POP POP POP POP POP POP POP POP SWAP4 SWAP3 POP POP POP JUMP JUMPDEST PUSH1 0xA PUSH1 0x20 MSTORE PUSH1 0x0 SWAP1 DUP2 MSTORE PUSH1 0x40 SWAP1 KECCAK256 SLOAD PUSH20 0xFFFFFFFFFFFFFFFFFFFFFFFFFFFFFFFFFFFFFFFF AND DUP2 JUMP JUMPDEST PUSH1 0x0 JUMPDEST DUP2 MLOAD DUP2 LT ISZERO PUSH2 0xCB3 JUMPI PUSH2 0xCAB DUP3 DUP3 DUP2 MLOAD DUP2 LT ISZERO ISZERO PUSH2 0xC9C JUMPI INVALID JUMPDEST SWAP1 PUSH1 0x20 ADD SWAP1 PUSH1 0x20 MUL ADD MLOAD PUSH2 0x21C5 JUMP JUMPDEST PUSH1 0x1 ADD PUSH2 0xC82 JUMP JUMPDEST POP POP JUMP JUMPDEST PUSH2 0xCBF PUSH2 0x3B2C JUMP JUMPDEST PUSH1 0x0 PUSH2 0xCC9 PUSH2 0x3B2C JUMP JUMPDEST PUSH1 0x0 SWAP2 POP JUMPDEST DUP6 MLOAD DUP3 LT ISZERO PUSH2 0x864 JUMPI PUSH2 0xD27 DUP7 DUP4 DUP2 MLOAD DUP2 LT ISZERO ISZERO PUSH2 0xCE8 JUMPI INVALID JUMPDEST SWAP1 PUSH1 0x20 ADD SWAP1 PUSH1 0x20 MUL ADD MLOAD DUP7 DUP5 DUP2 MLOAD DUP2 LT ISZERO ISZERO PUSH2 0xD00 JUMPI INVALID JUMPDEST SWAP1 PUSH1 0x20 ADD SWAP1 PUSH1 0x20 MUL ADD MLOAD DUP7 DUP6 DUP2 MLOAD DUP2 LT ISZERO ISZERO PUSH2 0xD18 JUMPI INVALID JUMPDEST SWAP1 PUSH1 0x20 ADD SWAP1 PUSH1 0x20 MUL ADD MLOAD PUSH2 0xF4C JUMP JUMPDEST SWAP1 POP PUSH2 0xD33 DUP4 DUP3 PUSH2 0x255D JUMP JUMPDEST PUSH1 0x1 SWAP1 SWAP2 ADD SWAP1 PUSH2 0xCCE JUMP JUMPDEST PUSH1 0x0 DUP1 PUSH1 0x0 DUP1 PUSH2 0xD4C PUSH2 0x25BF JUMP JUMPDEST SWAP4 POP PUSH20 0xFFFFFFFFFFFFFFFFFFFFFFFFFFFFFFFFFFFFFFFF DUP5 AND CALLER EQ PUSH2 0xD71 JUMPI CALLER PUSH2 0xD74 JUMP JUMPDEST PUSH1 0x0 JUMPDEST PUSH20 0xFFFFFFFFFFFFFFFFFFFFFFFFFFFFFFFFFFFFFFFF DUP1 DUP7 AND PUSH1 0x0 SWAP1 DUP2 MSTORE PUSH1 0x5 PUSH1 0x20 SWAP1 DUP2 MSTORE PUSH1 0x40 DUP1 DUP4 KECCAK256 SWAP4 DUP6 AND DUP4 MSTORE SWAP3 SWAP1 MSTORE KECCAK256 SLOAD SWAP1 SWAP4 POP PUSH1 0x1 DUP7 ADD SWAP3 POP SWAP1 POP DUP1 DUP3 GT PUSH2 0xDEB JUMPI PUSH1 0x40 MLOAD PUSH32 0x8C379A000000000000000000000000000000000000000000000000000000000 DUP2 MSTORE PUSH1 0x4 ADD PUSH2 0x8F5 SWAP1 PUSH2 0x4DEC JUMP JUMPDEST PUSH20 0xFFFFFFFFFFFFFFFFFFFFFFFFFFFFFFFFFFFFFFFF DUP1 DUP6 AND PUSH1 0x0 DUP2 DUP2 MSTORE PUSH1 0x5 PUSH1 0x20 SWAP1 DUP2 MSTORE PUSH1 0x40 DUP1 DUP4 KECCAK256 SWAP5 DUP9 AND DUP1 DUP5 MSTORE SWAP5 SWAP1 SWAP2 MSTORE SWAP1 DUP2 SWAP1 KECCAK256 DUP6 SWAP1 SSTORE MLOAD PUSH32 0x82AF639571738F4EBD4268FB0363D8957EBE1BBB9E78DBA5EBD69EED39B154F0 SWAP1 PUSH2 0xE53 SWAP1 DUP7 SWAP1 PUSH2 0x4C15 JUMP JUMPDEST PUSH1 0x40 MLOAD DUP1 SWAP2 SUB SWAP1 LOG3 POP POP POP POP POP JUMP JUMPDEST PUSH2 0xE6A PUSH2 0x3B2C JUMP JUMPDEST PUSH1 0x0 PUSH2 0xE74 PUSH2 0x3B2C JUMP JUMPDEST PUSH1 0x0 SWAP2 POP JUMPDEST DUP6 MLOAD DUP3 LT ISZERO PUSH2 0x864 JUMPI PUSH2 0xED2 DUP7 DUP4 DUP2 MLOAD DUP2 LT ISZERO ISZERO PUSH2 0xE93 JUMPI INVALID JUMPDEST SWAP1 PUSH1 0x20 ADD SWAP1 PUSH1 0x20 MUL ADD MLOAD DUP7 DUP5 DUP2 MLOAD DUP2 LT ISZERO ISZERO PUSH2 0xEAB JUMPI INVALID JUMPDEST SWAP1 PUSH1 0x20 ADD SWAP1 PUSH1 0x20 MUL ADD MLOAD DUP7 DUP6 DUP2 MLOAD DUP2 LT ISZERO ISZERO PUSH2 0xEC3 JUMPI INVALID JUMPDEST SWAP1 PUSH1 0x20 ADD SWAP1 PUSH1 0x20 MUL ADD MLOAD PUSH2 0xA47 JUMP JUMPDEST SWAP1 POP PUSH2 0xEDE DUP4 DUP3 PUSH2 0x255D JUMP JUMPDEST PUSH1 0x1 SWAP1 SWAP2 ADD SWAP1 PUSH2 0xE79 JUMP JUMPDEST PUSH32 0xFFFFFFFF00000000000000000000000000000000000000000000000000000000 DUP2 AND PUSH1 0x0 SWAP1 DUP2 MSTORE PUSH1 0xA PUSH1 0x20 MSTORE PUSH1 0x40 SWAP1 KECCAK256 SLOAD PUSH20 0xFFFFFFFFFFFFFFFFFFFFFFFFFFFFFFFFFFFFFFFF AND JUMPDEST SWAP2 SWAP1 POP JUMP JUMPDEST PUSH1 0x8 PUSH1 0x20 MSTORE PUSH1 0x0 SWAP1 DUP2 MSTORE PUSH1 0x40 SWAP1 KECCAK256 SLOAD PUSH1 0xFF AND DUP2 JUMP JUMPDEST PUSH2 0xF54 PUSH2 0x3B2C JUMP JUMPDEST PUSH2 0xF5F DUP5 DUP5 DUP5 PUSH2 0x1DCB JUMP JUMPDEST PUSH1 0x20 DUP2 ADD MLOAD SWAP1 SWAP2 POP DUP4 EQ PUSH2 0xF9F JUMPI PUSH1 0x40 MLOAD PUSH32 0x8C379A000000000000000000000000000000000000000000000000000000000 DUP2 MSTORE PUSH1 0x4 ADD PUSH2 0x8F5 SWAP1 PUSH2 0x4E0C JUMP JUMPDEST SWAP4 SWAP3 POP POP POP JUMP JUMPDEST PUSH1 0x0 PUSH2 0xFB0 PUSH2 0x25BF JUMP JUMPDEST PUSH20 0xFFFFFFFFFFFFFFFFFFFFFFFFFFFFFFFFFFFFFFFF DUP2 DUP2 AND PUSH1 0x0 DUP2 DUP2 MSTORE PUSH1 0x7 PUSH1 0x20 SWAP1 DUP2 MSTORE PUSH1 0x40 DUP1 DUP4 KECCAK256 SWAP5 DUP10 AND DUP1 DUP5 MSTORE SWAP5 SWAP1 SWAP2 MSTORE SWAP1 DUP2 SWAP1 KECCAK256 DUP1 SLOAD PUSH32 0xFFFFFFFFFFFFFFFFFFFFFFFFFFFFFFFFFFFFFFFFFFFFFFFFFFFFFFFFFFFFFF00 AND DUP8 ISZERO ISZERO OR SWAP1 SSTORE MLOAD SWAP3 SWAP4 POP SWAP1 SWAP2 PUSH32 0xA8656E308026EEABCE8F0BC18048433252318AB80AC79DA0B3D3D8697DFBA891 SWAP1 PUSH2 0x1044 SWAP1 DUP7 SWAP1 PUSH2 0x4C07 JUMP JUMPDEST PUSH1 0x40 MLOAD DUP1 SWAP2 SUB SWAP1 LOG3 POP POP POP JUMP JUMPDEST PUSH1 0x7 PUSH1 0x20 SWAP1 DUP2 MSTORE PUSH1 0x0 SWAP3 DUP4 MSTORE PUSH1 0x40 DUP1 DUP5 KECCAK256 SWAP1 SWAP2 MSTORE SWAP1 DUP3 MSTORE SWAP1 KECCAK256 SLOAD PUSH1 0xFF AND DUP2 JUMP JUMPDEST PUSH2 0x1079 PUSH2 0x3B2C JUMP JUMPDEST PUSH1 0x60 PUSH1 0x0 DUP1 PUSH2 0x1086 PUSH2 0x3B2C JUMP JUMPDEST DUP8 PUSH1 0x0 DUP2 MLOAD DUP2 LT ISZERO ISZERO PUSH2 0x1095 JUMPI INVALID JUMPDEST SWAP1 PUSH1 0x20 ADD SWAP1 PUSH1 0x20 MUL ADD MLOAD PUSH2 0x160 ADD MLOAD SWAP4 POP PUSH1 0x0 SWAP3 POP JUMPDEST DUP8 MLOAD DUP4 LT ISZERO PUSH2 0x1137 JUMPI DUP4 DUP9 DUP5 DUP2 MLOAD DUP2 LT ISZERO ISZERO PUSH2 0x10C3 JUMPI INVALID JUMPDEST SWAP1 PUSH1 0x20 ADD SWAP1 PUSH1 0x20 MUL ADD MLOAD PUSH2 0x160 ADD DUP2 SWAP1 MSTORE POP PUSH2 0x10E3 DUP8 DUP7 PUSH1 0x20 ADD MLOAD PUSH2 0x2BD0 JUMP JUMPDEST SWAP2 POP PUSH2 0x110F DUP9 DUP5 DUP2 MLOAD DUP2 LT ISZERO ISZERO PUSH2 0x10F6 JUMPI INVALID JUMPDEST SWAP1 PUSH1 0x20 ADD SWAP1 PUSH1 0x20 MUL ADD MLOAD DUP4 DUP9 DUP7 DUP2 MLOAD DUP2 LT ISZERO ISZERO PUSH2 0x83E JUMPI INVALID JUMPDEST SWAP1 POP PUSH2 0x111B DUP6 DUP3 PUSH2 0x255D JUMP JUMPDEST DUP7 DUP6 PUSH1 0x20 ADD MLOAD EQ ISZERO PUSH2 0x112C JUMPI PUSH2 0x1137 JUMP JUMPDEST PUSH1 0x1 SWAP1 SWAP3 ADD SWAP2 PUSH2 0x10AB JUMP JUMPDEST POP POP POP POP SWAP4 SWAP3 POP POP POP JUMP JUMPDEST PUSH1 0x6 PUSH1 0x20 SWAP1 DUP2 MSTORE PUSH1 0x0 SWAP3 DUP4 MSTORE PUSH1 0x40 DUP1 DUP5 KECCAK256 SWAP1 SWAP2 MSTORE SWAP1 DUP3 MSTORE SWAP1 KECCAK256 SLOAD PUSH1 0xFF AND DUP2 JUMP JUMPDEST PUSH1 0x2 SLOAD PUSH1 0x0 SWAP1 DUP2 SWAP1 DUP2 SWAP1 PUSH20 0xFFFFFFFFFFFFFFFFFFFFFFFFFFFFFFFFFFFFFFFF AND CALLER EQ PUSH2 0x11BA JUMPI PUSH1 0x40 MLOAD PUSH32 0x8C379A000000000000000000000000000000000000000000000000000000000 DUP2 MSTORE PUSH1 0x4 ADD PUSH2 0x8F5 SWAP1 PUSH2 0x4E2C JUMP JUMPDEST PUSH32 0xFFFFFFFF00000000000000000000000000000000000000000000000000000000 DUP7 AND PUSH1 0x0 SWAP1 DUP2 MSTORE PUSH1 0xA PUSH1 0x20 MSTORE PUSH1 0x40 SWAP1 KECCAK256 SLOAD PUSH20 0xFFFFFFFFFFFFFFFFFFFFFFFFFFFFFFFFFFFFFFFF SWAP1 DUP2 AND SWAP4 POP DUP5 AND DUP4 EQ PUSH2 0x1240 JUMPI PUSH1 0x40 MLOAD PUSH32 0x8C379A000000000000000000000000000000000000000000000000000000000 DUP2 MSTORE PUSH1 0x4 ADD PUSH2 0x8F5 SWAP1 PUSH2 0x4E4C JUMP JUMPDEST DUP5 SWAP2 POP PUSH20 0xFFFFFFFFFFFFFFFFFFFFFFFFFFFFFFFFFFFFFFFF DUP3 AND ISZERO PUSH2 0x135B JUMPI DUP2 PUSH20 0xFFFFFFFFFFFFFFFFFFFFFFFFFFFFFFFFFFFFFFFF AND PUSH4 0xAE25532E PUSH1 0x40 MLOAD DUP2 PUSH4 0xFFFFFFFF AND PUSH29 0x100000000000000000000000000000000000000000000000000000000 MUL DUP2 MSTORE PUSH1 0x4 ADD PUSH1 0x20 PUSH1 0x40 MLOAD DUP1 DUP4 SUB DUP2 PUSH1 0x0 DUP8 DUP1 EXTCODESIZE ISZERO DUP1 ISZERO PUSH2 0x12C3 JUMPI PUSH1 0x0 DUP1 REVERT JUMPDEST POP GAS CALL ISZERO DUP1 ISZERO PUSH2 0x12D7 JUMPI RETURNDATASIZE PUSH1 0x0 DUP1 RETURNDATACOPY RETURNDATASIZE PUSH1 0x0 REVERT JUMPDEST POP POP POP POP PUSH1 0x40 MLOAD RETURNDATASIZE PUSH1 0x1F NOT PUSH1 0x1F DUP3 ADD AND DUP3 ADD DUP1 PUSH1 0x40 MSTORE POP PUSH2 0x12FB SWAP2 SWAP1 DUP2 ADD SWAP1 PUSH2 0x41DC JUMP JUMPDEST SWAP1 POP PUSH32 0xFFFFFFFF00000000000000000000000000000000000000000000000000000000 DUP1 DUP3 AND SWAP1 DUP8 AND EQ PUSH2 0x135B JUMPI PUSH1 0x40 MLOAD PUSH32 0x8C379A000000000000000000000000000000000000000000000000000000000 DUP2 MSTORE PUSH1 0x4 ADD PUSH2 0x8F5 SWAP1 PUSH2 0x4DAC JUMP JUMPDEST PUSH32 0xFFFFFFFF00000000000000000000000000000000000000000000000000000000 DUP7 AND PUSH1 0x0 SWAP1 DUP2 MSTORE PUSH1 0xA PUSH1 0x20 MSTORE PUSH1 0x40 SWAP1 DUP2 SWAP1 KECCAK256 DUP1 SLOAD PUSH32 0xFFFFFFFFFFFFFFFFFFFFFFFF0000000000000000000000000000000000000000 AND PUSH20 0xFFFFFFFFFFFFFFFFFFFFFFFFFFFFFFFFFFFFFFFF DUP6 AND OR SWAP1 SSTORE MLOAD PUSH32 0x8A2DD3A51CA5FFC0567E29C662BE273787EBA535497A208F9EF15BC4652F1214 SWAP1 PUSH2 0x13FE SWAP1 DUP9 SWAP1 DUP9 SWAP1 DUP9 SWAP1 PUSH2 0x4CA5 JUMP JUMPDEST PUSH1 0x40 MLOAD DUP1 SWAP2 SUB SWAP1 LOG1 POP POP POP POP POP POP JUMP JUMPDEST PUSH1 0x2 SLOAD PUSH20 0xFFFFFFFFFFFFFFFFFFFFFFFFFFFFFFFFFFFFFFFF AND DUP2 JUMP JUMPDEST PUSH1 0x0 DUP1 PUSH1 0x0 DUP1 PUSH1 0x0 DUP1 PUSH1 0x0 DUP1 PUSH1 0x0 DUP10 MLOAD GT ISZERO ISZERO PUSH2 0x1473 JUMPI PUSH1 0x40 MLOAD PUSH32 0x8C379A000000000000000000000000000000000000000000000000000000000 DUP2 MSTORE PUSH1 0x4 ADD PUSH2 0x8F5 SWAP1 PUSH2 0x4DDC JUMP JUMPDEST PUSH2 0x147C DUP10 PUSH2 0x2BE2 JUMP JUMPDEST PUSH32 0x100000000000000000000000000000000000000000000000000000000000000 SWAP1 DIV SWAP7 POP PUSH1 0x9 PUSH1 0xFF DUP9 AND LT PUSH2 0x14DE JUMPI PUSH1 0x40 MLOAD PUSH32 0x8C379A000000000000000000000000000000000000000000000000000000000 DUP2 MSTORE PUSH1 0x4 ADD PUSH2 0x8F5 SWAP1 PUSH2 0x4D1C JUMP JUMPDEST DUP7 PUSH1 0xFF AND PUSH1 0x9 DUP2 GT ISZERO PUSH2 0x14ED JUMPI INVALID JUMPDEST SWAP6 POP PUSH1 0x0 DUP7 PUSH1 0x9 DUP2 GT ISZERO PUSH2 0x14FD JUMPI INVALID JUMPDEST EQ ISZERO PUSH2 0x1535 JUMPI PUSH1 0x40 MLOAD PUSH32 0x8C379A000000000000000000000000000000000000000000000000000000000 DUP2 MSTORE PUSH1 0x4 ADD PUSH2 0x8F5 SWAP1 PUSH2 0x4DCC JUMP JUMPDEST PUSH1 0x1 DUP7 PUSH1 0x9 DUP2 GT ISZERO PUSH2 0x1543 JUMPI INVALID JUMPDEST EQ ISZERO PUSH2 0x158B JUMPI DUP9 MLOAD ISZERO PUSH2 0x1582 JUMPI PUSH1 0x40 MLOAD PUSH32 0x8C379A000000000000000000000000000000000000000000000000000000000 DUP2 MSTORE PUSH1 0x4 ADD PUSH2 0x8F5 SWAP1 PUSH2 0x4E9C JUMP JUMPDEST PUSH1 0x0 SWAP8 POP PUSH2 0x1C42 JUMP JUMPDEST PUSH1 0x2 DUP7 PUSH1 0x9 DUP2 GT ISZERO PUSH2 0x1599 JUMPI INVALID JUMPDEST EQ ISZERO PUSH2 0x16D4 JUMPI DUP9 MLOAD PUSH1 0x41 EQ PUSH2 0x15DA JUMPI PUSH1 0x40 MLOAD PUSH32 0x8C379A000000000000000000000000000000000000000000000000000000000 DUP2 MSTORE PUSH1 0x4 ADD PUSH2 0x8F5 SWAP1 PUSH2 0x4CEC JUMP JUMPDEST DUP9 PUSH1 0x0 DUP2 MLOAD DUP2 LT ISZERO ISZERO PUSH2 0x15E9 JUMPI INVALID JUMPDEST ADD PUSH1 0x20 ADD MLOAD PUSH32 0x100000000000000000000000000000000000000000000000000000000000000 SWAP1 DUP2 SWAP1 DIV DUP2 MUL DIV SWAP5 POP PUSH2 0x1629 DUP10 PUSH1 0x1 PUSH4 0xFFFFFFFF PUSH2 0x2CA6 AND JUMP JUMPDEST SWAP4 POP PUSH2 0x163C DUP10 PUSH1 0x21 PUSH4 0xFFFFFFFF PUSH2 0x2CA6 AND JUMP JUMPDEST SWAP3 POP PUSH1 0x1 DUP12 DUP7 DUP7 DUP7 PUSH1 0x40 MLOAD PUSH1 0x0 DUP2 MSTORE PUSH1 0x20 ADD PUSH1 0x40 MSTORE PUSH1 0x40 MLOAD PUSH2 0x1661 SWAP5 SWAP4 SWAP3 SWAP2 SWAP1 PUSH2 0x4C70 JUMP JUMPDEST PUSH1 0x20 PUSH1 0x40 MLOAD PUSH1 0x20 DUP2 SUB SWAP1 DUP1 DUP5 SUB SWAP1 PUSH1 0x0 DUP7 GAS CALL ISZERO DUP1 ISZERO PUSH2 0x1685 JUMPI RETURNDATASIZE PUSH1 0x0 DUP1 RETURNDATACOPY RETURNDATASIZE PUSH1 0x0 REVERT JUMPDEST POP POP PUSH1 0x40 MLOAD PUSH32 0xFFFFFFFFFFFFFFFFFFFFFFFFFFFFFFFFFFFFFFFFFFFFFFFFFFFFFFFFFFFFFFE0 ADD MLOAD PUSH20 0xFFFFFFFFFFFFFFFFFFFFFFFFFFFFFFFFFFFFFFFF DUP13 DUP2 AND SWAP1 DUP3 AND EQ SWAP10 POP SWAP3 POP PUSH2 0x1C42 SWAP1 POP JUMP JUMPDEST PUSH1 0x3 DUP7 PUSH1 0x9 DUP2 GT ISZERO PUSH2 0x16E2 JUMPI INVALID JUMPDEST EQ ISZERO PUSH2 0x1888 JUMPI DUP9 MLOAD PUSH1 0x41 EQ PUSH2 0x1723 JUMPI PUSH1 0x40 MLOAD PUSH32 0x8C379A000000000000000000000000000000000000000000000000000000000 DUP2 MSTORE PUSH1 0x4 ADD PUSH2 0x8F5 SWAP1 PUSH2 0x4CEC JUMP JUMPDEST DUP9 PUSH1 0x0 DUP2 MLOAD DUP2 LT ISZERO ISZERO PUSH2 0x1732 JUMPI INVALID JUMPDEST ADD PUSH1 0x20 ADD MLOAD PUSH32 0x100000000000000000000000000000000000000000000000000000000000000 SWAP1 DUP2 SWAP1 DIV DUP2 MUL DIV SWAP5 POP PUSH2 0x1772 DUP10 PUSH1 0x1 PUSH4 0xFFFFFFFF PUSH2 0x2CA6 AND JUMP JUMPDEST SWAP4 POP PUSH2 0x1785 DUP10 PUSH1 0x21 PUSH4 0xFFFFFFFF PUSH2 0x2CA6 AND JUMP JUMPDEST SWAP3 POP PUSH1 0x1 DUP12 PUSH1 0x40 MLOAD PUSH1 0x20 ADD DUP1 DUP1 PUSH32 0x19457468657265756D205369676E6564204D6573736167653A0A333200000000 DUP2 MSTORE POP PUSH1 0x1C ADD DUP3 PUSH1 0x0 NOT AND PUSH1 0x0 NOT AND DUP2 MSTORE PUSH1 0x20 ADD SWAP2 POP POP PUSH1 0x40 MLOAD PUSH1 0x20 DUP2 DUP4 SUB SUB DUP2 MSTORE SWAP1 PUSH1 0x40 MSTORE PUSH1 0x40 MLOAD DUP1 DUP3 DUP1 MLOAD SWAP1 PUSH1 0x20 ADD SWAP1 DUP1 DUP4 DUP4 JUMPDEST PUSH1 0x20 DUP4 LT PUSH2 0x1826 JUMPI DUP1 MLOAD DUP3 MSTORE PUSH32 0xFFFFFFFFFFFFFFFFFFFFFFFFFFFFFFFFFFFFFFFFFFFFFFFFFFFFFFFFFFFFFFE0 SWAP1 SWAP3 ADD SWAP2 PUSH1 0x20 SWAP2 DUP3 ADD SWAP2 ADD PUSH2 0x17E9 JUMP JUMPDEST MLOAD DUP2 MLOAD PUSH1 0x20 SWAP4 DUP5 SUB PUSH2 0x100 EXP PUSH32 0xFFFFFFFFFFFFFFFFFFFFFFFFFFFFFFFFFFFFFFFFFFFFFFFFFFFFFFFFFFFFFFFF ADD DUP1 NOT SWAP1 SWAP3 AND SWAP2 AND OR SWAP1 MSTORE PUSH1 0x40 DUP1 MLOAD SWAP3 SWAP1 SWAP5 ADD DUP3 SWAP1 SUB DUP3 KECCAK256 PUSH1 0x0 DUP4 MSTORE SWAP2 ADD SWAP3 DUP4 SWAP1 MSTORE PUSH2 0x1661 SWAP5 POP SWAP3 POP DUP10 SWAP2 DUP10 SWAP2 POP DUP9 SWAP1 PUSH2 0x4C70 JUMP JUMPDEST PUSH1 0x4 DUP7 PUSH1 0x9 DUP2 GT ISZERO PUSH2 0x1896 JUMPI INVALID JUMPDEST EQ ISZERO PUSH2 0x18F5 JUMPI DUP9 MLOAD ISZERO PUSH2 0x18D5 JUMPI PUSH1 0x40 MLOAD PUSH32 0x8C379A000000000000000000000000000000000000000000000000000000000 DUP2 MSTORE PUSH1 0x4 ADD PUSH2 0x8F5 SWAP1 PUSH2 0x4E9C JUMP JUMPDEST PUSH20 0xFFFFFFFFFFFFFFFFFFFFFFFFFFFFFFFFFFFFFFFF DUP11 AND CALLER EQ SWAP8 POP PUSH2 0x1C42 JUMP JUMPDEST PUSH1 0x5 DUP7 PUSH1 0x9 DUP2 GT ISZERO PUSH2 0x1903 JUMPI INVALID JUMPDEST EQ ISZERO PUSH2 0x19B6 JUMPI PUSH1 0x40 MLOAD PUSH32 0x1626BA7E00000000000000000000000000000000000000000000000000000000 DUP2 MSTORE PUSH20 0xFFFFFFFFFFFFFFFFFFFFFFFFFFFFFFFFFFFFFFFF DUP12 AND SWAP1 PUSH4 0x1626BA7E SWAP1 PUSH2 0x195D SWAP1 DUP15 SWAP1 DUP14 SWAP1 PUSH1 0x4 ADD PUSH2 0x4C50 JUMP JUMPDEST PUSH1 0x20 PUSH1 0x40 MLOAD DUP1 DUP4 SUB DUP2 PUSH1 0x0 DUP8 DUP1 EXTCODESIZE ISZERO DUP1 ISZERO PUSH2 0x1977 JUMPI PUSH1 0x0 DUP1 REVERT JUMPDEST POP GAS CALL ISZERO DUP1 ISZERO PUSH2 0x198B JUMPI RETURNDATASIZE PUSH1 0x0 DUP1 RETURNDATACOPY RETURNDATASIZE PUSH1 0x0 REVERT JUMPDEST POP POP POP POP PUSH1 0x40 MLOAD RETURNDATASIZE PUSH1 0x1F NOT PUSH1 0x1F DUP3 ADD AND DUP3 ADD DUP1 PUSH1 0x40 MSTORE POP PUSH2 0x19AF SWAP2 SWAP1 DUP2 ADD SWAP1 PUSH2 0x40A0 JUMP JUMPDEST SWAP8 POP PUSH2 0x1C42 JUMP JUMPDEST PUSH1 0x6 DUP7 PUSH1 0x9 DUP2 GT ISZERO PUSH2 0x19C4 JUMPI INVALID JUMPDEST EQ ISZERO PUSH2 0x1A71 JUMPI PUSH2 0x19D3 DUP10 PUSH2 0x2CF1 JUMP JUMPDEST PUSH20 0xFFFFFFFFFFFFFFFFFFFFFFFFFFFFFFFFFFFFFFFF DUP1 DUP13 AND PUSH1 0x0 SWAP1 DUP2 MSTORE PUSH1 0x7 PUSH1 0x20 SWAP1 DUP2 MSTORE PUSH1 0x40 DUP1 DUP4 KECCAK256 SWAP4 DUP6 AND DUP4 MSTORE SWAP3 SWAP1 MSTORE KECCAK256 SLOAD SWAP1 SWAP2 POP PUSH1 0xFF AND ISZERO ISZERO PUSH2 0x1A1B JUMPI PUSH1 0x0 SWAP8 POP PUSH2 0x1C42 JUMP JUMPDEST PUSH1 0x40 MLOAD PUSH32 0x9363470200000000000000000000000000000000000000000000000000000000 DUP2 MSTORE PUSH20 0xFFFFFFFFFFFFFFFFFFFFFFFFFFFFFFFFFFFFFFFF DUP3 AND SWAP1 PUSH4 0x93634702 SWAP1 PUSH2 0x195D SWAP1 DUP15 SWAP1 DUP15 SWAP1 DUP15 SWAP1 PUSH1 0x4 ADD PUSH2 0x4C23 JUMP JUMPDEST PUSH1 0x7 DUP7 PUSH1 0x9 DUP2 GT ISZERO PUSH2 0x1A7F JUMPI INVALID JUMPDEST EQ ISZERO PUSH2 0x1ABF JUMPI PUSH1 0x0 DUP12 DUP2 MSTORE PUSH1 0x6 PUSH1 0x20 SWAP1 DUP2 MSTORE PUSH1 0x40 DUP1 DUP4 KECCAK256 PUSH20 0xFFFFFFFFFFFFFFFFFFFFFFFFFFFFFFFFFFFFFFFF DUP15 AND DUP5 MSTORE SWAP1 SWAP2 MSTORE SWAP1 KECCAK256 SLOAD PUSH1 0xFF AND SWAP8 POP PUSH2 0x1C42 JUMP JUMPDEST PUSH1 0x8 DUP7 PUSH1 0x9 DUP2 GT ISZERO PUSH2 0x1ACD JUMPI INVALID JUMPDEST EQ ISZERO PUSH2 0x1C10 JUMPI DUP9 MLOAD PUSH1 0x41 EQ PUSH2 0x1B0E JUMPI PUSH1 0x40 MLOAD PUSH32 0x8C379A000000000000000000000000000000000000000000000000000000000 DUP2 MSTORE PUSH1 0x4 ADD PUSH2 0x8F5 SWAP1 PUSH2 0x4CEC JUMP JUMPDEST DUP9 PUSH1 0x0 DUP2 MLOAD DUP2 LT ISZERO ISZERO PUSH2 0x1B1D JUMPI INVALID JUMPDEST ADD PUSH1 0x20 ADD MLOAD PUSH32 0x100000000000000000000000000000000000000000000000000000000000000 SWAP1 DUP2 SWAP1 DIV DUP2 MUL DIV SWAP5 POP PUSH2 0x1B5D DUP10 PUSH1 0x1 PUSH4 0xFFFFFFFF PUSH2 0x2CA6 AND JUMP JUMPDEST SWAP4 POP PUSH2 0x1B70 DUP10 PUSH1 0x21 PUSH4 0xFFFFFFFF PUSH2 0x2CA6 AND JUMP JUMPDEST SWAP3 POP PUSH1 0x1 DUP12 PUSH1 0x40 MLOAD PUSH1 0x20 ADD DUP1 DUP1 PUSH32 0x19457468657265756D205369676E6564204D6573736167653A0A200000000000 DUP2 MSTORE POP PUSH1 0x1B ADD DUP3 PUSH1 0x0 NOT AND PUSH1 0x0 NOT AND DUP2 MSTORE PUSH1 0x20 ADD SWAP2 POP POP PUSH1 0x40 MLOAD PUSH1 0x20 DUP2 DUP4 SUB SUB DUP2 MSTORE SWAP1 PUSH1 0x40 MSTORE PUSH1 0x40 MLOAD DUP1 DUP3 DUP1 MLOAD SWAP1 PUSH1 0x20 ADD SWAP1 DUP1 DUP4 DUP4 PUSH1 0x20 DUP4 LT PUSH2 0x1826 JUMPI DUP1 MLOAD DUP3 MSTORE PUSH32 0xFFFFFFFFFFFFFFFFFFFFFFFFFFFFFFFFFFFFFFFFFFFFFFFFFFFFFFFFFFFFFFE0 SWAP1 SWAP3 ADD SWAP2 PUSH1 0x20 SWAP2 DUP3 ADD SWAP2 ADD PUSH2 0x17E9 JUMP JUMPDEST PUSH1 0x40 MLOAD PUSH32 0x8C379A000000000000000000000000000000000000000000000000000000000 DUP2 MSTORE PUSH1 0x4 ADD PUSH2 0x8F5 SWAP1 PUSH2 0x4D1C JUMP JUMPDEST POP POP POP POP POP POP POP SWAP4 SWAP3 POP POP POP JUMP JUMPDEST PUSH2 0x1C58 PUSH2 0x3B2C JUMP JUMPDEST PUSH1 0x60 PUSH1 0x0 DUP1 PUSH1 0x0 PUSH2 0x1C67 PUSH2 0x3B2C JUMP JUMPDEST DUP9 PUSH1 0x0 DUP2 MLOAD DUP2 LT ISZERO ISZERO PUSH2 0x1C76 JUMPI INVALID JUMPDEST SWAP1 PUSH1 0x20 ADD SWAP1 PUSH1 0x20 MUL ADD MLOAD PUSH2 0x140 ADD MLOAD SWAP5 POP PUSH1 0x0 SWAP4 POP JUMPDEST DUP9 MLOAD DUP5 LT ISZERO PUSH2 0x1D54 JUMPI DUP5 DUP10 DUP6 DUP2 MLOAD DUP2 LT ISZERO ISZERO PUSH2 0x1CA4 JUMPI INVALID JUMPDEST PUSH1 0x20 SWAP1 DUP2 MUL SWAP1 SWAP2 ADD ADD MLOAD PUSH2 0x140 ADD MSTORE DUP6 MLOAD PUSH2 0x1CC0 SWAP1 DUP10 SWAP1 PUSH2 0x2BD0 JUMP JUMPDEST SWAP3 POP PUSH2 0x1D03 DUP10 DUP6 DUP2 MLOAD DUP2 LT ISZERO ISZERO PUSH2 0x1CD3 JUMPI INVALID JUMPDEST SWAP1 PUSH1 0x20 ADD SWAP1 PUSH1 0x20 MUL ADD MLOAD PUSH1 0xA0 ADD MLOAD DUP11 DUP7 DUP2 MLOAD DUP2 LT ISZERO ISZERO PUSH2 0x1CEF JUMPI INVALID JUMPDEST SWAP1 PUSH1 0x20 ADD SWAP1 PUSH1 0x20 MUL ADD MLOAD PUSH1 0x80 ADD MLOAD DUP6 PUSH2 0x2D6A JUMP JUMPDEST SWAP2 POP PUSH2 0x1D2F DUP10 DUP6 DUP2 MLOAD DUP2 LT ISZERO ISZERO PUSH2 0x1D16 JUMPI INVALID JUMPDEST SWAP1 PUSH1 0x20 ADD SWAP1 PUSH1 0x20 MUL ADD MLOAD DUP4 DUP10 DUP8 DUP2 MLOAD DUP2 LT ISZERO ISZERO PUSH2 0xEC3 JUMPI INVALID JUMPDEST SWAP1 POP PUSH2 0x1D3B DUP7 DUP3 PUSH2 0x255D JUMP JUMPDEST DUP6 MLOAD DUP9 EQ ISZERO PUSH2 0x1D49 JUMPI PUSH2 0x1D54 JUMP JUMPDEST PUSH1 0x1 SWAP1 SWAP4 ADD SWAP3 PUSH2 0x1C8C JUMP JUMPDEST POP POP POP POP POP SWAP4 SWAP3 POP POP POP JUMP JUMPDEST PUSH2 0x1D68 PUSH2 0x3B2C JUMP JUMPDEST PUSH1 0x20 DUP2 ADD DUP3 SWAP1 MSTORE PUSH1 0xA0 DUP4 ADD MLOAD PUSH1 0x80 DUP5 ADD MLOAD PUSH2 0x1D84 SWAP2 DUP5 SWAP2 PUSH2 0x2D6A JUMP JUMPDEST DUP2 MSTORE PUSH1 0x20 DUP2 ADD MLOAD PUSH1 0xA0 DUP5 ADD MLOAD PUSH1 0xC0 DUP6 ADD MLOAD PUSH2 0x1DA0 SWAP3 SWAP2 SWAP1 PUSH2 0x2D6A JUMP JUMPDEST PUSH1 0x40 DUP3 ADD MSTORE PUSH1 0x20 DUP2 ADD MLOAD PUSH1 0xA0 DUP5 ADD MLOAD PUSH1 0xE0 DUP6 ADD MLOAD PUSH2 0x1DBF SWAP3 SWAP2 SWAP1 PUSH2 0x2D6A JUMP JUMPDEST PUSH1 0x60 DUP3 ADD MSTORE JUMPDEST SWAP3 SWAP2 POP POP JUMP JUMPDEST PUSH2 0x1DD3 PUSH2 0x3B2C JUMP JUMPDEST PUSH2 0x1DDB PUSH2 0x3B84 JUMP JUMPDEST PUSH1 0x0 DUP1 PUSH1 0x0 PUSH2 0x1DE9 DUP9 PUSH2 0x20CA JUMP JUMPDEST SWAP4 POP PUSH2 0x1DF3 PUSH2 0x25BF JUMP JUMPDEST SWAP3 POP PUSH2 0x1E07 DUP9 PUSH1 0xA0 ADD MLOAD DUP6 PUSH1 0x40 ADD MLOAD PUSH2 0x2BD0 JUMP JUMPDEST SWAP2 POP PUSH2 0x1E13 DUP8 DUP4 PUSH2 0x2D87 JUMP JUMPDEST SWAP1 POP PUSH2 0x1E23 DUP9 DUP6 DUP6 DUP11 DUP6 DUP12 PUSH2 0x2727 JUMP JUMPDEST PUSH2 0x1E2D DUP9 DUP3 PUSH2 0x1D60 JUMP JUMPDEST SWAP5 POP PUSH2 0x1E44 DUP9 DUP5 DUP7 PUSH1 0x20 ADD MLOAD DUP8 PUSH1 0x40 ADD MLOAD DUP10 PUSH2 0x2944 JUMP JUMPDEST PUSH2 0x1137 DUP9 DUP5 DUP8 PUSH2 0x2D9D JUMP JUMPDEST PUSH1 0x9 SLOAD PUSH1 0x0 SWAP1 PUSH20 0xFFFFFFFFFFFFFFFFFFFFFFFFFFFFFFFFFFFFFFFF AND ISZERO PUSH2 0x1EA2 JUMPI PUSH1 0x40 MLOAD PUSH32 0x8C379A000000000000000000000000000000000000000000000000000000000 DUP2 MSTORE PUSH1 0x4 ADD PUSH2 0x8F5 SWAP1 PUSH2 0x4E1C JUMP JUMPDEST PUSH2 0x1EE5 PUSH2 0x1EE0 DUP9 DUP9 DUP9 DUP9 DUP1 DUP1 PUSH1 0x1F ADD PUSH1 0x20 DUP1 SWAP2 DIV MUL PUSH1 0x20 ADD PUSH1 0x40 MLOAD SWAP1 DUP2 ADD PUSH1 0x40 MSTORE DUP1 SWAP4 SWAP3 SWAP2 SWAP1 DUP2 DUP2 MSTORE PUSH1 0x20 ADD DUP4 DUP4 DUP1 DUP3 DUP5 CALLDATACOPY POP PUSH2 0x2EB2 SWAP5 POP POP POP POP POP JUMP JUMPDEST PUSH2 0x30F3 JUMP JUMPDEST PUSH1 0x0 DUP2 DUP2 MSTORE PUSH1 0x8 PUSH1 0x20 MSTORE PUSH1 0x40 SWAP1 KECCAK256 SLOAD SWAP1 SWAP2 POP PUSH1 0xFF AND ISZERO PUSH2 0x1F31 JUMPI PUSH1 0x40 MLOAD PUSH32 0x8C379A000000000000000000000000000000000000000000000000000000000 DUP2 MSTORE PUSH1 0x4 ADD PUSH2 0x8F5 SWAP1 PUSH2 0x4D4C JUMP JUMPDEST PUSH20 0xFFFFFFFFFFFFFFFFFFFFFFFFFFFFFFFFFFFFFFFF DUP7 AND CALLER EQ PUSH2 0x2002 JUMPI PUSH2 0x1F89 DUP2 DUP8 DUP6 DUP6 DUP1 DUP1 PUSH1 0x1F ADD PUSH1 0x20 DUP1 SWAP2 DIV MUL PUSH1 0x20 ADD PUSH1 0x40 MLOAD SWAP1 DUP2 ADD PUSH1 0x40 MSTORE DUP1 SWAP4 SWAP3 SWAP2 SWAP1 DUP2 DUP2 MSTORE PUSH1 0x20 ADD DUP4 DUP4 DUP1 DUP3 DUP5 CALLDATACOPY POP PUSH2 0x142A SWAP5 POP POP POP POP POP JUMP JUMPDEST ISZERO ISZERO PUSH2 0x1FC1 JUMPI PUSH1 0x40 MLOAD PUSH32 0x8C379A000000000000000000000000000000000000000000000000000000000 DUP2 MSTORE PUSH1 0x4 ADD PUSH2 0x8F5 SWAP1 PUSH2 0x4E8C JUMP JUMPDEST PUSH1 0x9 DUP1 SLOAD PUSH32 0xFFFFFFFFFFFFFFFFFFFFFFFF0000000000000000000000000000000000000000 AND PUSH20 0xFFFFFFFFFFFFFFFFFFFFFFFFFFFFFFFFFFFFFFFF DUP9 AND OR SWAP1 SSTORE JUMPDEST PUSH1 0x0 DUP2 DUP2 MSTORE PUSH1 0x8 PUSH1 0x20 MSTORE PUSH1 0x40 SWAP1 DUP2 SWAP1 KECCAK256 DUP1 SLOAD PUSH32 0xFFFFFFFFFFFFFFFFFFFFFFFFFFFFFFFFFFFFFFFFFFFFFFFFFFFFFFFFFFFFFF00 AND PUSH1 0x1 OR SWAP1 SSTORE MLOAD ADDRESS SWAP1 DUP7 SWAP1 DUP7 SWAP1 DUP1 DUP4 DUP4 DUP1 DUP3 DUP5 CALLDATACOPY DUP3 ADD SWAP2 POP POP SWAP3 POP POP POP PUSH1 0x0 PUSH1 0x40 MLOAD DUP1 DUP4 SUB DUP2 DUP6 GAS DELEGATECALL SWAP2 POP POP ISZERO ISZERO PUSH2 0x2099 JUMPI PUSH1 0x40 MLOAD PUSH32 0x8C379A000000000000000000000000000000000000000000000000000000000 DUP2 MSTORE PUSH1 0x4 ADD PUSH2 0x8F5 SWAP1 PUSH2 0x4D7C JUMP JUMPDEST POP POP PUSH1 0x9 DUP1 SLOAD PUSH32 0xFFFFFFFFFFFFFFFFFFFFFFFF0000000000000000000000000000000000000000 AND SWAP1 SSTORE POP POP POP POP POP JUMP JUMPDEST PUSH2 0x20D2 PUSH2 0x3B84 JUMP JUMPDEST PUSH2 0x20DB DUP3 PUSH2 0x3273 JUMP JUMPDEST PUSH1 0x20 DUP3 ADD MSTORE PUSH1 0x80 DUP3 ADD MLOAD ISZERO ISZERO PUSH2 0x20F8 JUMPI PUSH1 0x1 JUMPDEST PUSH1 0xFF AND DUP2 MSTORE PUSH2 0xF32 JUMP JUMPDEST PUSH1 0xA0 DUP3 ADD MLOAD ISZERO ISZERO PUSH2 0x210A JUMPI PUSH1 0x2 PUSH2 0x20EE JUMP JUMPDEST PUSH2 0x100 DUP3 ADD MLOAD TIMESTAMP LT PUSH2 0x211D JUMPI PUSH1 0x4 PUSH2 0x20EE JUMP JUMPDEST PUSH1 0x20 DUP1 DUP3 ADD MLOAD PUSH1 0x0 SWAP1 DUP2 MSTORE PUSH1 0x4 SWAP1 SWAP2 MSTORE PUSH1 0x40 SWAP1 KECCAK256 SLOAD PUSH1 0xFF AND ISZERO PUSH2 0x2141 JUMPI PUSH1 0x6 PUSH2 0x20EE JUMP JUMPDEST PUSH2 0x120 DUP3 ADD MLOAD DUP3 MLOAD PUSH20 0xFFFFFFFFFFFFFFFFFFFFFFFFFFFFFFFFFFFFFFFF SWAP1 DUP2 AND PUSH1 0x0 SWAP1 DUP2 MSTORE PUSH1 0x5 PUSH1 0x20 SWAP1 DUP2 MSTORE PUSH1 0x40 DUP1 DUP4 KECCAK256 PUSH1 0x60 DUP9 ADD MLOAD SWAP1 SWAP5 AND DUP4 MSTORE SWAP3 SWAP1 MSTORE KECCAK256 SLOAD GT ISZERO PUSH2 0x218E JUMPI PUSH1 0x6 PUSH2 0x20EE JUMP JUMPDEST PUSH1 0x20 DUP1 DUP3 ADD MLOAD PUSH1 0x0 SWAP1 DUP2 MSTORE PUSH1 0x3 SWAP1 SWAP2 MSTORE PUSH1 0x40 SWAP1 DUP2 SWAP1 KECCAK256 SLOAD SWAP1 DUP3 ADD DUP2 SWAP1 MSTORE PUSH1 0xA0 DUP4 ADD MLOAD GT PUSH2 0x21BC JUMPI PUSH1 0x5 PUSH2 0x20EE JUMP JUMPDEST PUSH1 0x3 DUP2 MSTORE SWAP2 SWAP1 POP JUMP JUMPDEST PUSH2 0x21CD PUSH2 0x3B84 JUMP JUMPDEST PUSH2 0x21D6 DUP3 PUSH2 0x20CA JUMP JUMPDEST SWAP1 POP PUSH2 0x21E2 DUP3 DUP3 PUSH2 0x3281 JUMP JUMPDEST PUSH2 0xCB3 DUP3 DUP3 PUSH1 0x20 ADD MLOAD PUSH2 0x3398 JUMP JUMPDEST PUSH1 0x5 PUSH1 0x20 SWAP1 DUP2 MSTORE PUSH1 0x0 SWAP3 DUP4 MSTORE PUSH1 0x40 DUP1 DUP5 KECCAK256 SWAP1 SWAP2 MSTORE SWAP1 DUP3 MSTORE SWAP1 KECCAK256 SLOAD DUP2 JUMP JUMPDEST PUSH1 0x0 DUP1 SLOAD PUSH1 0x40 DUP1 MLOAD PUSH1 0x20 PUSH1 0x2 PUSH1 0x1 DUP6 AND ISZERO PUSH2 0x100 MUL PUSH32 0xFFFFFFFFFFFFFFFFFFFFFFFFFFFFFFFFFFFFFFFFFFFFFFFFFFFFFFFFFFFFFFFF ADD SWAP1 SWAP5 AND SWAP4 SWAP1 SWAP4 DIV PUSH1 0x1F DUP2 ADD DUP5 SWAP1 DIV DUP5 MUL DUP3 ADD DUP5 ADD SWAP1 SWAP3 MSTORE DUP2 DUP2 MSTORE SWAP3 SWAP2 DUP4 ADD DUP3 DUP3 DUP1 ISZERO PUSH2 0x22B1 JUMPI DUP1 PUSH1 0x1F LT PUSH2 0x2286 JUMPI PUSH2 0x100 DUP1 DUP4 SLOAD DIV MUL DUP4 MSTORE SWAP2 PUSH1 0x20 ADD SWAP2 PUSH2 0x22B1 JUMP JUMPDEST DUP3 ADD SWAP2 SWAP1 PUSH1 0x0 MSTORE PUSH1 0x20 PUSH1 0x0 KECCAK256 SWAP1 JUMPDEST DUP2 SLOAD DUP2 MSTORE SWAP1 PUSH1 0x1 ADD SWAP1 PUSH1 0x20 ADD DUP1 DUP4 GT PUSH2 0x2294 JUMPI DUP3 SWAP1 SUB PUSH1 0x1F AND DUP3 ADD SWAP2 JUMPDEST POP POP POP POP POP DUP2 JUMP JUMPDEST PUSH2 0x22C1 PUSH2 0x3B2C JUMP JUMPDEST PUSH1 0x60 PUSH1 0x0 DUP1 PUSH2 0x22CE PUSH2 0x3B2C JUMP JUMPDEST DUP8 PUSH1 0x0 DUP2 MLOAD DUP2 LT ISZERO ISZERO PUSH2 0x22DD JUMPI INVALID JUMPDEST SWAP1 PUSH1 0x20 ADD SWAP1 PUSH1 0x20 MUL ADD MLOAD PUSH2 0x160 ADD MLOAD SWAP4 POP PUSH1 0x0 SWAP3 POP JUMPDEST DUP8 MLOAD DUP4 LT ISZERO PUSH2 0x1137 JUMPI DUP4 DUP9 DUP5 DUP2 MLOAD DUP2 LT ISZERO ISZERO PUSH2 0x230B JUMPI INVALID JUMPDEST SWAP1 PUSH1 0x20 ADD SWAP1 PUSH1 0x20 MUL ADD MLOAD PUSH2 0x160 ADD DUP2 SWAP1 MSTORE POP PUSH2 0x232B DUP8 DUP7 PUSH1 0x20 ADD MLOAD PUSH2 0x2BD0 JUMP JUMPDEST SWAP2 POP PUSH2 0x2357 DUP9 DUP5 DUP2 MLOAD DUP2 LT ISZERO ISZERO PUSH2 0x233E JUMPI INVALID JUMPDEST SWAP1 PUSH1 0x20 ADD SWAP1 PUSH1 0x20 MUL ADD MLOAD DUP4 DUP9 DUP7 DUP2 MLOAD DUP2 LT ISZERO ISZERO PUSH2 0xEC3 JUMPI INVALID JUMPDEST SWAP1 POP PUSH2 0x2363 DUP6 DUP3 PUSH2 0x255D JUMP JUMPDEST DUP7 DUP6 PUSH1 0x20 ADD MLOAD EQ ISZERO PUSH2 0x2374 JUMPI PUSH2 0x1137 JUMP JUMPDEST PUSH1 0x1 SWAP1 SWAP3 ADD SWAP2 PUSH2 0x22F3 JUMP JUMPDEST PUSH1 0x1 SLOAD DUP2 JUMP JUMPDEST PUSH2 0x238D PUSH2 0x3B2C JUMP JUMPDEST PUSH1 0x60 PUSH1 0x0 DUP1 PUSH1 0x0 PUSH2 0x239C PUSH2 0x3B2C JUMP JUMPDEST DUP9 PUSH1 0x0 DUP2 MLOAD DUP2 LT ISZERO ISZERO PUSH2 0x23AB JUMPI INVALID JUMPDEST SWAP1 PUSH1 0x20 ADD SWAP1 PUSH1 0x20 MUL ADD MLOAD PUSH2 0x140 ADD MLOAD SWAP5 POP PUSH1 0x0 SWAP4 POP JUMPDEST DUP9 MLOAD DUP5 LT ISZERO PUSH2 0x1D54 JUMPI DUP5 DUP10 DUP6 DUP2 MLOAD DUP2 LT ISZERO ISZERO PUSH2 0x23D9 JUMPI INVALID JUMPDEST PUSH1 0x20 SWAP1 DUP2 MUL SWAP1 SWAP2 ADD ADD MLOAD PUSH2 0x140 ADD MSTORE DUP6 MLOAD PUSH2 0x23F5 SWAP1 DUP10 SWAP1 PUSH2 0x2BD0 JUMP JUMPDEST SWAP3 POP PUSH2 0x2408 DUP10 DUP6 DUP2 MLOAD DUP2 LT ISZERO ISZERO PUSH2 0x1CD3 JUMPI INVALID JUMPDEST SWAP2 POP PUSH2 0x2434 DUP10 DUP6 DUP2 MLOAD DUP2 LT ISZERO ISZERO PUSH2 0x241B JUMPI INVALID JUMPDEST SWAP1 PUSH1 0x20 ADD SWAP1 PUSH1 0x20 MUL ADD MLOAD DUP4 DUP10 DUP8 DUP2 MLOAD DUP2 LT ISZERO ISZERO PUSH2 0x83E JUMPI INVALID JUMPDEST SWAP1 POP PUSH2 0x2440 DUP7 DUP3 PUSH2 0x255D JUMP JUMPDEST DUP6 MLOAD DUP9 EQ ISZERO PUSH2 0x244E JUMPI PUSH2 0x1D54 JUMP JUMPDEST PUSH1 0x1 SWAP1 SWAP4 ADD SWAP3 PUSH2 0x23C1 JUMP JUMPDEST PUSH1 0x9 SLOAD PUSH20 0xFFFFFFFFFFFFFFFFFFFFFFFFFFFFFFFFFFFFFFFF AND DUP2 JUMP JUMPDEST PUSH1 0x2 SLOAD PUSH20 0xFFFFFFFFFFFFFFFFFFFFFFFFFFFFFFFFFFFFFFFF AND CALLER EQ PUSH2 0x24C6 JUMPI PUSH1 0x40 MLOAD PUSH32 0x8C379A000000000000000000000000000000000000000000000000000000000 DUP2 MSTORE PUSH1 0x4 ADD PUSH2 0x8F5 SWAP1 PUSH2 0x4E2C JUMP JUMPDEST PUSH20 0xFFFFFFFFFFFFFFFFFFFFFFFFFFFFFFFFFFFFFFFF DUP2 AND ISZERO PUSH2 0x2523 JUMPI PUSH1 0x2 DUP1 SLOAD PUSH32 0xFFFFFFFFFFFFFFFFFFFFFFFF0000000000000000000000000000000000000000 AND PUSH20 0xFFFFFFFFFFFFFFFFFFFFFFFFFFFFFFFFFFFFFFFF DUP4 AND OR SWAP1 SSTORE JUMPDEST POP JUMP JUMPDEST PUSH1 0x40 DUP1 MLOAD DUP1 DUP3 ADD SWAP1 SWAP2 MSTORE PUSH1 0xB DUP2 MSTORE PUSH32 0x322E302E312D616C706861000000000000000000000000000000000000000000 PUSH1 0x20 DUP3 ADD MSTORE DUP2 JUMP JUMPDEST DUP2 MLOAD DUP2 MLOAD PUSH2 0x256B SWAP2 SWAP1 PUSH2 0x343F JUMP JUMPDEST DUP3 MSTORE PUSH1 0x20 DUP1 DUP4 ADD MLOAD SWAP1 DUP3 ADD MLOAD PUSH2 0x2581 SWAP2 SWAP1 PUSH2 0x343F JUMP JUMPDEST PUSH1 0x20 DUP4 ADD MSTORE PUSH1 0x40 DUP1 DUP4 ADD MLOAD SWAP1 DUP3 ADD MLOAD PUSH2 0x259A SWAP2 SWAP1 PUSH2 0x343F JUMP JUMPDEST PUSH1 0x40 DUP4 ADD MSTORE PUSH1 0x60 DUP1 DUP4 ADD MLOAD SWAP1 DUP3 ADD MLOAD PUSH2 0x25B3 SWAP2 SWAP1 PUSH2 0x343F JUMP JUMPDEST PUSH1 0x60 SWAP1 SWAP3 ADD SWAP2 SWAP1 SWAP2 MSTORE POP JUMP JUMPDEST PUSH1 0x9 SLOAD PUSH1 0x0 SWAP1 DUP2 SWAP1 PUSH20 0xFFFFFFFFFFFFFFFFFFFFFFFFFFFFFFFFFFFFFFFF AND ISZERO PUSH2 0x2600 JUMPI PUSH1 0x9 SLOAD PUSH20 0xFFFFFFFFFFFFFFFFFFFFFFFFFFFFFFFFFFFFFFFF AND PUSH2 0x1DC5 JUMP JUMPDEST CALLER SWAP3 SWAP2 POP POP JUMP JUMPDEST PUSH2 0x2619 DUP3 PUSH1 0xA0 ADD MLOAD DUP3 PUSH1 0xA0 ADD MLOAD PUSH2 0x344E JUMP JUMPDEST PUSH2 0x262B DUP4 PUSH1 0x80 ADD MLOAD DUP4 PUSH1 0x80 ADD MLOAD PUSH2 0x344E JUMP JUMPDEST LT ISZERO PUSH2 0xCB3 JUMPI PUSH1 0x40 MLOAD PUSH32 0x8C379A000000000000000000000000000000000000000000000000000000000 DUP2 MSTORE PUSH1 0x4 ADD PUSH2 0x8F5 SWAP1 PUSH2 0x4E7C JUMP JUMPDEST PUSH2 0x266B PUSH2 0x3B55 JUMP JUMPDEST PUSH1 0x0 DUP1 PUSH1 0x0 DUP1 PUSH2 0x267F DUP10 PUSH1 0xA0 ADD MLOAD DUP9 PUSH2 0x2BD0 JUMP JUMPDEST SWAP4 POP PUSH2 0x268F DUP9 PUSH1 0xA0 ADD MLOAD DUP8 PUSH2 0x2BD0 JUMP JUMPDEST SWAP3 POP PUSH2 0x269F DUP4 DUP10 PUSH1 0x80 ADD MLOAD PUSH2 0x344E JUMP JUMPDEST PUSH2 0x26AD DUP6 DUP11 PUSH1 0xA0 ADD MLOAD PUSH2 0x344E JUMP JUMPDEST GT PUSH2 0x26CF JUMPI DUP4 SWAP2 POP PUSH2 0x26C8 DUP9 PUSH1 0xA0 ADD MLOAD DUP10 PUSH1 0x80 ADD MLOAD DUP5 PUSH2 0x2D6A JUMP JUMPDEST SWAP1 POP PUSH2 0x26E8 JUMP JUMPDEST DUP3 SWAP1 POP PUSH2 0x26E5 DUP9 PUSH1 0x80 ADD MLOAD DUP10 PUSH1 0xA0 ADD MLOAD DUP4 PUSH2 0x2D6A JUMP JUMPDEST SWAP2 POP JUMPDEST PUSH2 0x26F2 DUP10 DUP4 PUSH2 0x1D60 JUMP JUMPDEST DUP6 MSTORE PUSH2 0x26FE DUP9 DUP3 PUSH2 0x1D60 JUMP JUMPDEST PUSH1 0x20 DUP1 DUP8 ADD DUP3 SWAP1 MSTORE DUP7 MLOAD MLOAD SWAP2 ADD MLOAD PUSH2 0x2716 SWAP2 SWAP1 PUSH2 0x2BD0 JUMP JUMPDEST PUSH1 0x40 DUP7 ADD MSTORE POP POP POP POP SWAP5 SWAP4 POP POP POP POP JUMP JUMPDEST DUP5 MLOAD PUSH1 0xFF AND PUSH1 0x3 EQ PUSH2 0x2765 JUMPI PUSH1 0x40 MLOAD PUSH32 0x8C379A000000000000000000000000000000000000000000000000000000000 DUP2 MSTORE PUSH1 0x4 ADD PUSH2 0x8F5 SWAP1 PUSH2 0x4E5C JUMP JUMPDEST DUP3 ISZERO ISZERO PUSH2 0x279E JUMPI PUSH1 0x40 MLOAD PUSH32 0x8C379A000000000000000000000000000000000000000000000000000000000 DUP2 MSTORE PUSH1 0x4 ADD PUSH2 0x8F5 SWAP1 PUSH2 0x4D8C JUMP JUMPDEST PUSH1 0x60 DUP7 ADD MLOAD PUSH20 0xFFFFFFFFFFFFFFFFFFFFFFFFFFFFFFFFFFFFFFFF AND ISZERO PUSH2 0x2811 JUMPI PUSH1 0x60 DUP7 ADD MLOAD PUSH20 0xFFFFFFFFFFFFFFFFFFFFFFFFFFFFFFFFFFFFFFFF AND CALLER EQ PUSH2 0x2811 JUMPI PUSH1 0x40 MLOAD PUSH32 0x8C379A000000000000000000000000000000000000000000000000000000000 DUP2 MSTORE PUSH1 0x4 ADD PUSH2 0x8F5 SWAP1 PUSH2 0x4E6C JUMP JUMPDEST PUSH1 0x20 DUP7 ADD MLOAD PUSH20 0xFFFFFFFFFFFFFFFFFFFFFFFFFFFFFFFFFFFFFFFF AND ISZERO PUSH2 0x289C JUMPI DUP4 PUSH20 0xFFFFFFFFFFFFFFFFFFFFFFFFFFFFFFFFFFFFFFFF AND DUP7 PUSH1 0x20 ADD MLOAD PUSH20 0xFFFFFFFFFFFFFFFFFFFFFFFFFFFFFFFFFFFFFFFF AND EQ ISZERO ISZERO PUSH2 0x289C JUMPI PUSH1 0x40 MLOAD PUSH32 0x8C379A000000000000000000000000000000000000000000000000000000000 DUP2 MSTORE PUSH1 0x4 ADD PUSH2 0x8F5 SWAP1 PUSH2 0x4CFC JUMP JUMPDEST PUSH1 0x40 DUP6 ADD MLOAD ISZERO ISZERO PUSH2 0x28F2 JUMPI PUSH2 0x28BA DUP6 PUSH1 0x20 ADD MLOAD DUP8 PUSH1 0x0 ADD MLOAD DUP4 PUSH2 0x142A JUMP JUMPDEST ISZERO ISZERO PUSH2 0x28F2 JUMPI PUSH1 0x40 MLOAD PUSH32 0x8C379A000000000000000000000000000000000000000000000000000000000 DUP2 MSTORE PUSH1 0x4 ADD PUSH2 0x8F5 SWAP1 PUSH2 0x4D2C JUMP JUMPDEST PUSH2 0x2905 DUP3 DUP8 PUSH1 0xA0 ADD MLOAD DUP9 PUSH1 0x80 ADD MLOAD PUSH2 0x3472 JUMP JUMPDEST ISZERO PUSH2 0x293C JUMPI PUSH1 0x40 MLOAD PUSH32 0x8C379A000000000000000000000000000000000000000000000000000000000 DUP2 MSTORE PUSH1 0x4 ADD PUSH2 0x8F5 SWAP1 PUSH2 0x4D6C JUMP JUMPDEST POP POP POP POP POP POP JUMP JUMPDEST PUSH2 0x2952 DUP3 DUP3 PUSH1 0x20 ADD MLOAD PUSH2 0x343F JUMP JUMPDEST PUSH1 0x0 DUP5 DUP2 MSTORE PUSH1 0x3 PUSH1 0x20 SWAP1 DUP2 MSTORE PUSH1 0x40 SWAP2 DUP3 SWAP1 KECCAK256 SWAP3 SWAP1 SWAP3 SSTORE DUP7 DUP2 ADD MLOAD DUP8 MLOAD DUP5 MLOAD SWAP4 DUP6 ADD MLOAD DUP6 DUP5 ADD MLOAD PUSH1 0x60 DUP8 ADD MLOAD PUSH2 0x140 DUP13 ADD MLOAD PUSH2 0x160 DUP14 ADD MLOAD SWAP7 MLOAD DUP12 SWAP9 PUSH20 0xFFFFFFFFFFFFFFFFFFFFFFFFFFFFFFFFFFFFFFFF SWAP8 DUP9 AND SWAP9 SWAP8 SWAP1 SWAP7 AND SWAP7 PUSH32 0xBCC4C97732E47D9946F229EDB95F5B6323F601300E4690DE719993F3C371129 SWAP7 PUSH2 0x29E1 SWAP7 DUP16 SWAP7 CALLER SWAP7 SWAP3 SWAP6 SWAP2 SWAP5 SWAP1 SWAP4 SWAP1 PUSH2 0x4B46 JUMP JUMPDEST PUSH1 0x40 MLOAD DUP1 SWAP2 SUB SWAP1 LOG4 POP POP POP POP POP JUMP JUMPDEST PUSH1 0x0 DUP1 SLOAD PUSH1 0x40 DUP1 MLOAD PUSH1 0x20 PUSH1 0x1F PUSH1 0x2 PUSH32 0xFFFFFFFFFFFFFFFFFFFFFFFFFFFFFFFFFFFFFFFFFFFFFFFFFFFFFFFFFFFFFFFF PUSH2 0x100 PUSH1 0x1 DUP9 AND ISZERO MUL ADD SWAP1 SWAP6 AND SWAP5 SWAP1 SWAP5 DIV SWAP4 DUP5 ADD DUP2 SWAP1 DIV DUP2 MUL DUP3 ADD DUP2 ADD SWAP1 SWAP3 MSTORE DUP3 DUP2 MSTORE PUSH1 0x60 SWAP4 SWAP1 SWAP3 SWAP1 SWAP2 DUP4 ADD DUP3 DUP3 DUP1 ISZERO PUSH2 0x2A9A JUMPI DUP1 PUSH1 0x1F LT PUSH2 0x2A6F JUMPI PUSH2 0x100 DUP1 DUP4 SLOAD DIV MUL DUP4 MSTORE SWAP2 PUSH1 0x20 ADD SWAP2 PUSH2 0x2A9A JUMP JUMPDEST DUP3 ADD SWAP2 SWAP1 PUSH1 0x0 MSTORE PUSH1 0x20 PUSH1 0x0 KECCAK256 SWAP1 JUMPDEST DUP2 SLOAD DUP2 MSTORE SWAP1 PUSH1 0x1 ADD SWAP1 PUSH1 0x20 ADD DUP1 DUP4 GT PUSH2 0x2A7D JUMPI DUP3 SWAP1 SUB PUSH1 0x1F AND DUP3 ADD SWAP2 JUMPDEST POP POP POP POP POP SWAP1 POP PUSH2 0x2AC2 DUP6 PUSH2 0x140 ADD MLOAD DUP7 PUSH1 0x0 ADD MLOAD DUP7 PUSH1 0x0 ADD MLOAD DUP6 PUSH1 0x20 ADD MLOAD PUSH1 0x20 ADD MLOAD PUSH2 0x34C3 JUMP JUMPDEST PUSH2 0x140 DUP5 ADD MLOAD DUP5 MLOAD DUP7 MLOAD DUP5 MLOAD PUSH1 0x20 ADD MLOAD PUSH2 0x2ADE SWAP4 SWAP3 SWAP2 SWAP1 PUSH2 0x34C3 JUMP JUMPDEST PUSH2 0x2AF7 DUP6 PUSH2 0x140 ADD MLOAD DUP7 PUSH1 0x0 ADD MLOAD DUP6 DUP6 PUSH1 0x40 ADD MLOAD PUSH2 0x34C3 JUMP JUMPDEST PUSH2 0x2B13 DUP2 DUP7 PUSH1 0x0 ADD MLOAD DUP8 PUSH1 0x40 ADD MLOAD DUP6 PUSH1 0x0 ADD MLOAD PUSH1 0x40 ADD MLOAD PUSH2 0x34C3 JUMP JUMPDEST PUSH2 0x2B2F DUP2 DUP6 PUSH1 0x0 ADD MLOAD DUP7 PUSH1 0x40 ADD MLOAD DUP6 PUSH1 0x20 ADD MLOAD PUSH1 0x40 ADD MLOAD PUSH2 0x34C3 JUMP JUMPDEST DUP4 PUSH1 0x40 ADD MLOAD PUSH20 0xFFFFFFFFFFFFFFFFFFFFFFFFFFFFFFFFFFFFFFFF AND DUP6 PUSH1 0x40 ADD MLOAD PUSH20 0xFFFFFFFFFFFFFFFFFFFFFFFFFFFFFFFFFFFFFFFF AND EQ ISZERO PUSH2 0x2B99 JUMPI PUSH2 0x2B94 DUP2 DUP5 DUP8 PUSH1 0x40 ADD MLOAD PUSH2 0x2B8F DUP7 PUSH1 0x0 ADD MLOAD PUSH1 0x60 ADD MLOAD DUP8 PUSH1 0x20 ADD MLOAD PUSH1 0x60 ADD MLOAD PUSH2 0x343F JUMP JUMPDEST PUSH2 0x34C3 JUMP JUMPDEST PUSH2 0x2BC9 JUMP JUMPDEST PUSH2 0x2BB1 DUP2 DUP5 DUP8 PUSH1 0x40 ADD MLOAD DUP6 PUSH1 0x0 ADD MLOAD PUSH1 0x60 ADD MLOAD PUSH2 0x34C3 JUMP JUMPDEST PUSH2 0x2BC9 DUP2 DUP5 DUP7 PUSH1 0x40 ADD MLOAD DUP6 PUSH1 0x20 ADD MLOAD PUSH1 0x60 ADD MLOAD PUSH2 0x34C3 JUMP JUMPDEST POP POP POP POP POP JUMP JUMPDEST PUSH1 0x0 DUP3 DUP3 GT ISZERO PUSH2 0x2BDC JUMPI INVALID JUMPDEST POP SWAP1 SUB SWAP1 JUMP JUMPDEST PUSH1 0x0 DUP1 DUP3 MLOAD GT ISZERO ISZERO PUSH2 0x2C20 JUMPI PUSH1 0x40 MLOAD PUSH32 0x8C379A000000000000000000000000000000000000000000000000000000000 DUP2 MSTORE PUSH1 0x4 ADD PUSH2 0x8F5 SWAP1 PUSH2 0x4DBC JUMP JUMPDEST DUP2 MLOAD DUP3 SWAP1 PUSH32 0xFFFFFFFFFFFFFFFFFFFFFFFFFFFFFFFFFFFFFFFFFFFFFFFFFFFFFFFFFFFFFFFF DUP2 ADD SWAP1 DUP2 LT PUSH2 0x2C50 JUMPI INVALID JUMPDEST ADD PUSH1 0x20 ADD MLOAD DUP3 MLOAD PUSH32 0xFFFFFFFFFFFFFFFFFFFFFFFFFFFFFFFFFFFFFFFFFFFFFFFFFFFFFFFFFFFFFFFF ADD SWAP1 SWAP3 MSTORE POP PUSH32 0x100000000000000000000000000000000000000000000000000000000000000 SWAP1 DUP2 SWAP1 DIV MUL SWAP1 JUMP JUMPDEST PUSH1 0x0 DUP2 PUSH1 0x20 ADD DUP4 MLOAD LT ISZERO ISZERO ISZERO PUSH2 0x2CE8 JUMPI PUSH1 0x40 MLOAD PUSH32 0x8C379A000000000000000000000000000000000000000000000000000000000 DUP2 MSTORE PUSH1 0x4 ADD PUSH2 0x8F5 SWAP1 PUSH2 0x4D0C JUMP JUMPDEST POP ADD PUSH1 0x20 ADD MLOAD SWAP1 JUMP JUMPDEST PUSH1 0x0 PUSH1 0x14 DUP3 MLOAD LT ISZERO ISZERO ISZERO PUSH2 0x2D31 JUMPI PUSH1 0x40 MLOAD PUSH32 0x8C379A000000000000000000000000000000000000000000000000000000000 DUP2 MSTORE PUSH1 0x4 ADD PUSH2 0x8F5 SWAP1 PUSH2 0x4E3C JUMP JUMPDEST PUSH2 0x2D3F DUP3 PUSH1 0x14 DUP5 MLOAD SUB PUSH2 0x365B JUMP JUMPDEST DUP3 MLOAD PUSH32 0xFFFFFFFFFFFFFFFFFFFFFFFFFFFFFFFFFFFFFFFFFFFFFFFFFFFFFFFFFFFFFFEC ADD SWAP1 SWAP3 MSTORE POP SWAP1 JUMP JUMPDEST PUSH1 0x0 PUSH2 0x2D7F PUSH2 0x2D79 DUP6 DUP5 PUSH2 0x344E JUMP JUMPDEST DUP5 PUSH2 0x36BC JUMP JUMPDEST SWAP5 SWAP4 POP POP POP POP JUMP JUMPDEST PUSH1 0x0 DUP2 DUP4 LT PUSH2 0x2D96 JUMPI DUP2 PUSH2 0xF9F JUMP JUMPDEST POP SWAP1 SWAP2 SWAP1 POP JUMP JUMPDEST PUSH1 0x0 DUP1 SLOAD PUSH1 0x40 DUP1 MLOAD PUSH1 0x20 PUSH1 0x1F PUSH1 0x2 PUSH32 0xFFFFFFFFFFFFFFFFFFFFFFFFFFFFFFFFFFFFFFFFFFFFFFFFFFFFFFFFFFFFFFFF PUSH2 0x100 PUSH1 0x1 DUP9 AND ISZERO MUL ADD SWAP1 SWAP6 AND SWAP5 SWAP1 SWAP5 DIV SWAP4 DUP5 ADD DUP2 SWAP1 DIV DUP2 MUL DUP3 ADD DUP2 ADD SWAP1 SWAP3 MSTORE DUP3 DUP2 MSTORE PUSH1 0x60 SWAP4 SWAP1 SWAP3 SWAP1 SWAP2 DUP4 ADD DUP3 DUP3 DUP1 ISZERO PUSH2 0x2E47 JUMPI DUP1 PUSH1 0x1F LT PUSH2 0x2E1C JUMPI PUSH2 0x100 DUP1 DUP4 SLOAD DIV MUL DUP4 MSTORE SWAP2 PUSH1 0x20 ADD SWAP2 PUSH2 0x2E47 JUMP JUMPDEST DUP3 ADD SWAP2 SWAP1 PUSH1 0x0 MSTORE PUSH1 0x20 PUSH1 0x0 KECCAK256 SWAP1 JUMPDEST DUP2 SLOAD DUP2 MSTORE SWAP1 PUSH1 0x1 ADD SWAP1 PUSH1 0x20 ADD DUP1 DUP4 GT PUSH2 0x2E2A JUMPI DUP3 SWAP1 SUB PUSH1 0x1F AND DUP3 ADD SWAP2 JUMPDEST POP POP POP POP POP SWAP1 POP PUSH2 0x2E67 DUP5 PUSH2 0x140 ADD MLOAD DUP6 PUSH1 0x0 ADD MLOAD DUP6 DUP6 PUSH1 0x0 ADD MLOAD PUSH2 0x34C3 JUMP JUMPDEST PUSH2 0x2E80 DUP5 PUSH2 0x160 ADD MLOAD DUP5 DUP7 PUSH1 0x0 ADD MLOAD DUP6 PUSH1 0x20 ADD MLOAD PUSH2 0x34C3 JUMP JUMPDEST PUSH2 0x2E98 DUP2 DUP6 PUSH1 0x0 ADD MLOAD DUP7 PUSH1 0x40 ADD MLOAD DUP6 PUSH1 0x40 ADD MLOAD PUSH2 0x34C3 JUMP JUMPDEST PUSH2 0x2EAC DUP2 DUP5 DUP7 PUSH1 0x40 ADD MLOAD DUP6 PUSH1 0x60 ADD MLOAD PUSH2 0x34C3 JUMP JUMPDEST POP POP POP POP JUMP JUMPDEST PUSH1 0x40 DUP1 MLOAD PUSH32 0x5A65726F45785472616E73616374696F6E280000000000000000000000000000 PUSH1 0x20 DUP1 DUP4 ADD SWAP2 SWAP1 SWAP2 MSTORE PUSH32 0x75696E743235362073616C742C00000000000000000000000000000000000000 PUSH1 0x32 DUP4 ADD MSTORE PUSH32 0x61646472657373207369676E6572416464726573732C00000000000000000000 PUSH1 0x3F DUP4 ADD MSTORE PUSH32 0x6279746573206461746100000000000000000000000000000000000000000000 PUSH1 0x55 DUP4 ADD MSTORE PUSH32 0x2900000000000000000000000000000000000000000000000000000000000000 PUSH1 0x5F DUP4 ADD MSTORE DUP3 MLOAD DUP1 DUP4 SUB DUP5 ADD DUP2 MSTORE PUSH1 0x60 SWAP1 SWAP3 ADD SWAP3 DUP4 SWAP1 MSTORE DUP2 MLOAD PUSH1 0x0 SWAP4 DUP5 SWAP4 DUP5 SWAP4 SWAP1 SWAP3 DUP3 SWAP2 DUP5 ADD SWAP1 DUP1 DUP4 DUP4 JUMPDEST PUSH1 0x20 DUP4 LT PUSH2 0x2FDB JUMPI DUP1 MLOAD DUP3 MSTORE PUSH32 0xFFFFFFFFFFFFFFFFFFFFFFFFFFFFFFFFFFFFFFFFFFFFFFFFFFFFFFFFFFFFFFE0 SWAP1 SWAP3 ADD SWAP2 PUSH1 0x20 SWAP2 DUP3 ADD SWAP2 ADD PUSH2 0x2F9E JUMP JUMPDEST MLOAD DUP2 MLOAD PUSH1 0x20 SWAP4 DUP5 SUB PUSH2 0x100 EXP PUSH32 0xFFFFFFFFFFFFFFFFFFFFFFFFFFFFFFFFFFFFFFFFFFFFFFFFFFFFFFFFFFFFFFFF ADD DUP1 NOT SWAP1 SWAP3 AND SWAP2 AND OR SWAP1 MSTORE PUSH1 0x40 MLOAD SWAP2 SWAP1 SWAP4 ADD DUP2 SWAP1 SUB DUP2 KECCAK256 DUP10 MLOAD SWAP1 SWAP8 POP DUP10 SWAP6 POP SWAP1 SWAP4 POP DUP4 SWAP3 DUP6 ADD SWAP2 POP DUP1 DUP4 DUP4 JUMPDEST PUSH1 0x20 DUP4 LT PUSH2 0x3071 JUMPI DUP1 MLOAD DUP3 MSTORE PUSH32 0xFFFFFFFFFFFFFFFFFFFFFFFFFFFFFFFFFFFFFFFFFFFFFFFFFFFFFFFFFFFFFFE0 SWAP1 SWAP3 ADD SWAP2 PUSH1 0x20 SWAP2 DUP3 ADD SWAP2 ADD PUSH2 0x3034 JUMP JUMPDEST MLOAD DUP2 MLOAD PUSH1 0x20 SWAP4 DUP5 SUB PUSH2 0x100 EXP PUSH32 0xFFFFFFFFFFFFFFFFFFFFFFFFFFFFFFFFFFFFFFFFFFFFFFFFFFFFFFFFFFFFFFFF ADD DUP1 NOT SWAP1 SWAP3 AND SWAP2 AND OR SWAP1 MSTORE PUSH1 0x40 DUP1 MLOAD SWAP3 SWAP1 SWAP5 ADD DUP3 SWAP1 SUB DUP3 KECCAK256 SWAP8 DUP3 MSTORE DUP2 ADD SWAP11 SWAP1 SWAP11 MSTORE POP PUSH20 0xFFFFFFFFFFFFFFFFFFFFFFFFFFFFFFFFFFFFFFFF SWAP8 SWAP1 SWAP8 AND SWAP7 DUP9 ADD SWAP7 SWAP1 SWAP7 MSTORE POP POP PUSH1 0x60 DUP6 ADD MSTORE POP POP PUSH1 0x80 SWAP1 SWAP2 KECCAK256 SWAP2 SWAP1 POP JUMP JUMPDEST PUSH1 0x0 PUSH1 0x40 DUP1 MLOAD SWAP1 DUP2 ADD PUSH1 0x40 MSTORE DUP1 PUSH1 0x2 DUP2 MSTORE PUSH1 0x20 ADD PUSH32 0x1901000000000000000000000000000000000000000000000000000000000000 DUP2 MSTORE POP PUSH1 0x1 SLOAD DUP4 PUSH1 0x40 MLOAD PUSH1 0x20 ADD DUP1 DUP5 DUP1 MLOAD SWAP1 PUSH1 0x20 ADD SWAP1 DUP1 DUP4 DUP4 JUMPDEST PUSH1 0x20 DUP4 LT PUSH2 0x317F JUMPI DUP1 MLOAD DUP3 MSTORE PUSH32 0xFFFFFFFFFFFFFFFFFFFFFFFFFFFFFFFFFFFFFFFFFFFFFFFFFFFFFFFFFFFFFFE0 SWAP1 SWAP3 ADD SWAP2 PUSH1 0x20 SWAP2 DUP3 ADD SWAP2 ADD PUSH2 0x3142 JUMP JUMPDEST MLOAD DUP2 MLOAD PUSH1 0x20 SWAP4 DUP5 SUB PUSH2 0x100 EXP PUSH32 0xFFFFFFFFFFFFFFFFFFFFFFFFFFFFFFFFFFFFFFFFFFFFFFFFFFFFFFFFFFFFFFFF ADD DUP1 NOT SWAP1 SWAP3 AND SWAP2 AND OR SWAP1 MSTORE SWAP3 ADD SWAP5 DUP6 MSTORE POP DUP4 DUP2 ADD SWAP3 SWAP1 SWAP3 MSTORE POP PUSH1 0x40 DUP1 MLOAD DUP1 DUP5 SUB DUP4 ADD DUP2 MSTORE SWAP3 DUP2 ADD SWAP1 DUP2 SWAP1 MSTORE DUP3 MLOAD SWAP3 SWAP4 POP SWAP2 DUP3 SWAP2 DUP5 ADD SWAP1 DUP1 DUP4 DUP4 JUMPDEST PUSH1 0x20 DUP4 LT PUSH2 0x3223 JUMPI DUP1 MLOAD DUP3 MSTORE PUSH32 0xFFFFFFFFFFFFFFFFFFFFFFFFFFFFFFFFFFFFFFFFFFFFFFFFFFFFFFFFFFFFFFE0 SWAP1 SWAP3 ADD SWAP2 PUSH1 0x20 SWAP2 DUP3 ADD SWAP2 ADD PUSH2 0x31E6 JUMP JUMPDEST MLOAD DUP2 MLOAD PUSH1 0x20 SWAP4 SWAP1 SWAP4 SUB PUSH2 0x100 EXP PUSH32 0xFFFFFFFFFFFFFFFFFFFFFFFFFFFFFFFFFFFFFFFFFFFFFFFFFFFFFFFFFFFFFFFF ADD DUP1 NOT SWAP1 SWAP2 AND SWAP3 AND SWAP2 SWAP1 SWAP2 OR SWAP1 MSTORE PUSH1 0x40 MLOAD SWAP3 ADD DUP3 SWAP1 SUB SWAP1 SWAP2 KECCAK256 SWAP6 SWAP5 POP POP POP POP POP JUMP JUMPDEST PUSH1 0x0 PUSH2 0x1DC5 PUSH2 0x1EE0 DUP4 PUSH2 0x36D3 JUMP JUMPDEST DUP1 MLOAD PUSH1 0x0 SWAP1 PUSH1 0xFF AND PUSH1 0x3 EQ PUSH2 0x32C2 JUMPI PUSH1 0x40 MLOAD PUSH32 0x8C379A000000000000000000000000000000000000000000000000000000000 DUP2 MSTORE PUSH1 0x4 ADD PUSH2 0x8F5 SWAP1 PUSH2 0x4E5C JUMP JUMPDEST PUSH1 0x60 DUP4 ADD MLOAD PUSH20 0xFFFFFFFFFFFFFFFFFFFFFFFFFFFFFFFFFFFFFFFF AND ISZERO PUSH2 0x3335 JUMPI PUSH1 0x60 DUP4 ADD MLOAD PUSH20 0xFFFFFFFFFFFFFFFFFFFFFFFFFFFFFFFFFFFFFFFF AND CALLER EQ PUSH2 0x3335 JUMPI PUSH1 0x40 MLOAD PUSH32 0x8C379A000000000000000000000000000000000000000000000000000000000 DUP2 MSTORE PUSH1 0x4 ADD PUSH2 0x8F5 SWAP1 PUSH2 0x4E6C JUMP JUMPDEST PUSH2 0x333D PUSH2 0x25BF JUMP JUMPDEST DUP4 MLOAD SWAP1 SWAP2 POP PUSH20 0xFFFFFFFFFFFFFFFFFFFFFFFFFFFFFFFFFFFFFFFF DUP1 DUP4 AND SWAP2 AND EQ PUSH2 0x3393 JUMPI PUSH1 0x40 MLOAD PUSH32 0x8C379A000000000000000000000000000000000000000000000000000000000 DUP2 MSTORE PUSH1 0x4 ADD PUSH2 0x8F5 SWAP1 PUSH2 0x4D3C JUMP JUMPDEST POP POP POP JUMP JUMPDEST PUSH1 0x0 DUP2 DUP2 MSTORE PUSH1 0x4 PUSH1 0x20 MSTORE PUSH1 0x40 SWAP1 DUP2 SWAP1 KECCAK256 DUP1 SLOAD PUSH32 0xFFFFFFFFFFFFFFFFFFFFFFFFFFFFFFFFFFFFFFFFFFFFFFFFFFFFFFFFFFFFFF00 AND PUSH1 0x1 OR SWAP1 SSTORE DUP3 DUP2 ADD MLOAD DUP4 MLOAD PUSH2 0x140 DUP6 ADD MLOAD PUSH2 0x160 DUP7 ADD MLOAD SWAP4 MLOAD DUP6 SWAP5 PUSH20 0xFFFFFFFFFFFFFFFFFFFFFFFFFFFFFFFFFFFFFFFF SWAP5 DUP6 AND SWAP5 SWAP4 SWAP1 SWAP4 AND SWAP3 PUSH32 0xDC47B3613D9FE400085F6DBDC99453462279057E6207385042827ED6B1A62CF7 SWAP3 PUSH2 0x3433 SWAP3 CALLER SWAP3 SWAP1 PUSH2 0x4BCA JUMP JUMPDEST PUSH1 0x40 MLOAD DUP1 SWAP2 SUB SWAP1 LOG4 POP POP JUMP JUMPDEST PUSH1 0x0 DUP3 DUP3 ADD DUP4 DUP2 LT ISZERO PUSH2 0xF9F JUMPI INVALID JUMPDEST PUSH1 0x0 DUP3 DUP3 MUL DUP4 ISZERO DUP1 PUSH2 0x346A JUMPI POP DUP3 DUP5 DUP3 DUP2 ISZERO ISZERO PUSH2 0x3467 JUMPI INVALID JUMPDEST DIV EQ JUMPDEST ISZERO ISZERO PUSH2 0xF9F JUMPI INVALID JUMPDEST PUSH1 0x0 DUP1 PUSH1 0x0 DUP5 DUP1 ISZERO ISZERO PUSH2 0x3481 JUMPI INVALID JUMPDEST DUP7 DUP6 MULMOD SWAP2 POP DUP2 ISZERO ISZERO PUSH2 0x3496 JUMPI PUSH1 0x0 SWAP3 POP PUSH2 0x864 JUMP JUMPDEST PUSH2 0x34B5 PUSH2 0x34A6 DUP4 PUSH3 0xF4240 PUSH2 0x344E JUMP JUMPDEST PUSH2 0x34B0 DUP9 DUP8 PUSH2 0x344E JUMP JUMPDEST PUSH2 0x36BC JUMP JUMPDEST PUSH2 0x3E8 LT SWAP7 SWAP6 POP POP POP POP POP POP JUMP JUMPDEST PUSH1 0x0 DUP1 PUSH1 0x0 DUP1 DUP5 GT ISZERO PUSH2 0x3652 JUMPI DUP7 MLOAD PUSH1 0x3 LT PUSH2 0x350B JUMPI PUSH1 0x40 MLOAD PUSH32 0x8C379A000000000000000000000000000000000000000000000000000000000 DUP2 MSTORE PUSH1 0x4 ADD PUSH2 0x8F5 SWAP1 PUSH2 0x4DFC JUMP JUMPDEST PUSH1 0x20 DUP8 DUP2 ADD MLOAD PUSH32 0xFFFFFFFF00000000000000000000000000000000000000000000000000000000 AND PUSH1 0x0 DUP2 DUP2 MSTORE PUSH1 0xA SWAP1 SWAP3 MSTORE PUSH1 0x40 SWAP1 SWAP2 KECCAK256 SLOAD SWAP1 SWAP4 POP PUSH20 0xFFFFFFFFFFFFFFFFFFFFFFFFFFFFFFFFFFFFFFFF AND SWAP2 POP DUP2 ISZERO ISZERO PUSH2 0x3597 JUMPI PUSH1 0x40 MLOAD PUSH32 0x8C379A000000000000000000000000000000000000000000000000000000000 DUP2 MSTORE PUSH1 0x4 ADD PUSH2 0x8F5 SWAP1 PUSH2 0x4D9C JUMP JUMPDEST PUSH1 0x40 MLOAD PUSH7 0xFFFFFFFFFFFE0 PUSH1 0x3F DUP10 MLOAD ADD AND DUP1 PUSH1 0x84 ADD DUP3 ADD PUSH32 0xA85E59E400000000000000000000000000000000000000000000000000000000 DUP4 MSTORE PUSH1 0x80 PUSH1 0x4 DUP5 ADD MSTORE PUSH20 0xFFFFFFFFFFFFFFFFFFFFFFFFFFFFFFFFFFFFFFFF DUP10 AND PUSH1 0x24 DUP5 ADD MSTORE PUSH20 0xFFFFFFFFFFFFFFFFFFFFFFFFFFFFFFFFFFFFFFFF DUP9 AND PUSH1 0x44 DUP5 ADD MSTORE DUP7 PUSH1 0x64 DUP5 ADD MSTORE PUSH1 0x84 DUP4 ADD JUMPDEST DUP2 DUP2 LT ISZERO PUSH2 0x3633 JUMPI DUP11 MLOAD DUP2 MSTORE PUSH1 0x20 SWAP11 DUP12 ADD SWAP11 ADD PUSH2 0x361B JUMP JUMPDEST PUSH2 0x200 DUP5 DUP6 DUP5 SUB DUP7 PUSH1 0x0 DUP11 GAS CALL SWAP5 POP DUP5 ISZERO ISZERO PUSH2 0x364D JUMPI RETURNDATASIZE DUP5 REVERT JUMPDEST POP POP POP POP JUMPDEST POP POP POP POP POP POP POP JUMP JUMPDEST PUSH1 0x0 DUP2 PUSH1 0x14 ADD DUP4 MLOAD LT ISZERO ISZERO ISZERO PUSH2 0x369D JUMPI PUSH1 0x40 MLOAD PUSH32 0x8C379A000000000000000000000000000000000000000000000000000000000 DUP2 MSTORE PUSH1 0x4 ADD PUSH2 0x8F5 SWAP1 PUSH2 0x4E3C JUMP JUMPDEST POP ADD PUSH1 0x14 ADD MLOAD PUSH20 0xFFFFFFFFFFFFFFFFFFFFFFFFFFFFFFFFFFFFFFFF AND SWAP1 JUMP JUMPDEST PUSH1 0x0 DUP1 DUP3 DUP5 DUP2 ISZERO ISZERO PUSH2 0x36CA JUMPI INVALID JUMPDEST DIV SWAP5 SWAP4 POP POP POP POP JUMP JUMPDEST PUSH1 0x40 DUP1 MLOAD PUSH32 0x4F72646572280000000000000000000000000000000000000000000000000000 PUSH1 0x20 DUP1 DUP4 ADD SWAP2 SWAP1 SWAP2 MSTORE PUSH32 0x61646472657373206D616B6572416464726573732C0000000000000000000000 PUSH1 0x26 DUP4 ADD MSTORE PUSH32 0x616464726573732074616B6572416464726573732C0000000000000000000000 PUSH1 0x3B DUP4 ADD MSTORE PUSH32 0x6164647265737320666565526563697069656E74416464726573732C00000000 PUSH1 0x50 DUP4 ADD MSTORE PUSH32 0x616464726573732073656E646572416464726573732C00000000000000000000 PUSH1 0x6C DUP4 ADD MSTORE PUSH32 0x75696E74323536206D616B65724173736574416D6F756E742C00000000000000 PUSH1 0x82 DUP4 ADD MSTORE PUSH32 0x75696E743235362074616B65724173736574416D6F756E742C00000000000000 PUSH1 0x9B DUP4 ADD MSTORE PUSH32 0x75696E74323536206D616B65724665652C000000000000000000000000000000 PUSH1 0xB4 DUP4 ADD MSTORE PUSH32 0x75696E743235362074616B65724665652C000000000000000000000000000000 PUSH1 0xC5 DUP4 ADD MSTORE PUSH32 0x75696E743235362065787069726174696F6E54696D655365636F6E64732C0000 PUSH1 0xD6 DUP4 ADD MSTORE PUSH32 0x75696E743235362073616C742C00000000000000000000000000000000000000 PUSH1 0xF4 DUP4 ADD MSTORE PUSH32 0x6279746573206D616B65724173736574446174612C0000000000000000000000 PUSH2 0x101 DUP4 ADD MSTORE PUSH32 0x62797465732074616B6572417373657444617461000000000000000000000000 PUSH2 0x116 DUP4 ADD MSTORE PUSH32 0x2900000000000000000000000000000000000000000000000000000000000000 PUSH2 0x12A DUP4 ADD MSTORE DUP3 MLOAD PUSH2 0x10B DUP2 DUP5 SUB ADD DUP2 MSTORE PUSH2 0x12B SWAP1 SWAP3 ADD SWAP3 DUP4 SWAP1 MSTORE DUP2 MLOAD PUSH1 0x0 SWAP4 DUP5 SWAP4 DUP5 SWAP4 DUP5 SWAP4 SWAP2 SWAP3 SWAP2 DUP3 SWAP2 DUP5 ADD SWAP1 DUP1 DUP4 DUP4 JUMPDEST PUSH1 0x20 DUP4 LT PUSH2 0x395B JUMPI DUP1 MLOAD DUP3 MSTORE PUSH32 0xFFFFFFFFFFFFFFFFFFFFFFFFFFFFFFFFFFFFFFFFFFFFFFFFFFFFFFFFFFFFFFE0 SWAP1 SWAP3 ADD SWAP2 PUSH1 0x20 SWAP2 DUP3 ADD SWAP2 ADD PUSH2 0x391E JUMP JUMPDEST MLOAD DUP2 MLOAD PUSH1 0x20 SWAP4 DUP5 SUB PUSH2 0x100 EXP PUSH32 0xFFFFFFFFFFFFFFFFFFFFFFFFFFFFFFFFFFFFFFFFFFFFFFFFFFFFFFFFFFFFFFFF ADD DUP1 NOT SWAP1 SWAP3 AND SWAP2 AND OR SWAP1 MSTORE PUSH1 0x40 MLOAD SWAP2 SWAP1 SWAP4 ADD DUP2 SWAP1 SUB DUP2 KECCAK256 PUSH2 0x140 DUP12 ADD MLOAD DUP1 MLOAD SWAP2 SWAP10 POP SWAP6 POP SWAP1 SWAP4 POP DUP4 SWAP3 DUP6 ADD SWAP2 POP DUP1 DUP4 DUP4 JUMPDEST PUSH1 0x20 DUP4 LT PUSH2 0x39F6 JUMPI DUP1 MLOAD DUP3 MSTORE PUSH32 0xFFFFFFFFFFFFFFFFFFFFFFFFFFFFFFFFFFFFFFFFFFFFFFFFFFFFFFFFFFFFFFE0 SWAP1 SWAP3 ADD SWAP2 PUSH1 0x20 SWAP2 DUP3 ADD SWAP2 ADD PUSH2 0x39B9 JUMP JUMPDEST MLOAD DUP2 MLOAD PUSH1 0x20 SWAP4 DUP5 SUB PUSH2 0x100 EXP PUSH32 0xFFFFFFFFFFFFFFFFFFFFFFFFFFFFFFFFFFFFFFFFFFFFFFFFFFFFFFFFFFFFFFFF ADD DUP1 NOT SWAP1 SWAP3 AND SWAP2 AND OR SWAP1 MSTORE PUSH1 0x40 MLOAD SWAP2 SWAP1 SWAP4 ADD DUP2 SWAP1 SUB DUP2 KECCAK256 PUSH2 0x160 DUP12 ADD MLOAD DUP1 MLOAD SWAP2 SWAP9 POP SWAP6 POP SWAP1 SWAP4 POP DUP4 SWAP3 DUP6 ADD SWAP2 POP DUP1 DUP4 DUP4 JUMPDEST PUSH1 0x20 DUP4 LT PUSH2 0x3A91 JUMPI DUP1 MLOAD DUP3 MSTORE PUSH32 0xFFFFFFFFFFFFFFFFFFFFFFFFFFFFFFFFFFFFFFFFFFFFFFFFFFFFFFFFFFFFFFE0 SWAP1 SWAP3 ADD SWAP2 PUSH1 0x20 SWAP2 DUP3 ADD SWAP2 ADD PUSH2 0x3A54 JUMP JUMPDEST MLOAD DUP2 MLOAD PUSH1 0x20 SWAP4 SWAP1 SWAP4 SUB PUSH2 0x100 EXP PUSH32 0xFFFFFFFFFFFFFFFFFFFFFFFFFFFFFFFFFFFFFFFFFFFFFFFFFFFFFFFFFFFFFFFF ADD DUP1 NOT SWAP1 SWAP2 AND SWAP3 AND SWAP2 SWAP1 SWAP2 OR SWAP1 MSTORE PUSH1 0x40 MLOAD SWAP3 ADD DUP3 SWAP1 SUB SWAP1 SWAP2 KECCAK256 PUSH32 0xFFFFFFFFFFFFFFFFFFFFFFFFFFFFFFFFFFFFFFFFFFFFFFFFFFFFFFFFFFFFFFE0 DUP10 ADD DUP1 MLOAD PUSH2 0x140 DUP12 ADD DUP1 MLOAD PUSH2 0x160 SWAP1 SWAP13 ADD DUP1 MLOAD SWAP11 DUP5 MSTORE SWAP9 DUP2 MSTORE SWAP3 DUP9 MSTORE PUSH2 0x1A0 DUP3 KECCAK256 SWAP2 MSTORE SWAP9 SWAP1 MSTORE POP POP POP SWAP2 SWAP1 MSTORE POP SWAP1 SWAP2 SWAP1 POP JUMP JUMPDEST PUSH1 0x80 PUSH1 0x40 MLOAD SWAP1 DUP2 ADD PUSH1 0x40 MSTORE DUP1 PUSH1 0x0 DUP2 MSTORE PUSH1 0x20 ADD PUSH1 0x0 DUP2 MSTORE PUSH1 0x20 ADD PUSH1 0x0 DUP2 MSTORE PUSH1 0x20 ADD PUSH1 0x0 DUP2 MSTORE POP SWAP1 JUMP JUMPDEST PUSH2 0x120 PUSH1 0x40 MLOAD SWAP1 DUP2 ADD PUSH1 0x40 MSTORE DUP1 PUSH2 0x3B6A PUSH2 0x3B2C JUMP JUMPDEST DUP2 MSTORE PUSH1 0x20 ADD PUSH2 0x3B77 PUSH2 0x3B2C JUMP JUMPDEST DUP2 MSTORE PUSH1 0x20 ADD PUSH1 0x0 DUP2 MSTORE POP SWAP1 JUMP JUMPDEST PUSH1 0x40 DUP1 MLOAD PUSH1 0x60 DUP2 ADD DUP3 MSTORE PUSH1 0x0 DUP1 DUP3 MSTORE PUSH1 0x20 DUP3 ADD DUP2 SWAP1 MSTORE SWAP2 DUP2 ADD SWAP2 SWAP1 SWAP2 MSTORE SWAP1 JUMP JUMPDEST PUSH1 0x0 PUSH2 0xF9F DUP3 CALLDATALOAD PUSH2 0x4F69 JUMP JUMPDEST PUSH1 0x0 PUSH1 0x1F DUP3 ADD DUP4 SGT PUSH2 0x3BC1 JUMPI PUSH1 0x0 DUP1 REVERT JUMPDEST DUP2 CALLDATALOAD PUSH2 0x3BD4 PUSH2 0x3BCF DUP3 PUSH2 0x4EFE JUMP JUMPDEST PUSH2 0x4ED7 JUMP JUMPDEST DUP2 DUP2 MSTORE PUSH1 0x20 SWAP4 DUP5 ADD SWAP4 SWAP1 SWAP3 POP DUP3 ADD DUP4 PUSH1 0x0 JUMPDEST DUP4 DUP2 LT ISZERO PUSH2 0x3C12 JUMPI DUP2 CALLDATALOAD DUP7 ADD PUSH2 0x3BFC DUP9 DUP3 PUSH2 0x3D6E JUMP JUMPDEST DUP5 MSTORE POP PUSH1 0x20 SWAP3 DUP4 ADD SWAP3 SWAP2 SWAP1 SWAP2 ADD SWAP1 PUSH1 0x1 ADD PUSH2 0x3BE6 JUMP JUMPDEST POP POP POP POP SWAP3 SWAP2 POP POP JUMP JUMPDEST PUSH1 0x0 PUSH1 0x1F DUP3 ADD DUP4 SGT PUSH2 0x3C2D JUMPI PUSH1 0x0 DUP1 REVERT JUMPDEST DUP2 CALLDATALOAD PUSH2 0x3C3B PUSH2 0x3BCF DUP3 PUSH2 0x4EFE JUMP JUMPDEST DUP2 DUP2 MSTORE PUSH1 0x20 SWAP4 DUP5 ADD SWAP4 SWAP1 SWAP3 POP DUP3 ADD DUP4 PUSH1 0x0 JUMPDEST DUP4 DUP2 LT ISZERO PUSH2 0x3C12 JUMPI DUP2 CALLDATALOAD DUP7 ADD PUSH2 0x3C63 DUP9 DUP3 PUSH2 0x3DBD JUMP JUMPDEST DUP5 MSTORE POP PUSH1 0x20 SWAP3 DUP4 ADD SWAP3 SWAP2 SWAP1 SWAP2 ADD SWAP1 PUSH1 0x1 ADD PUSH2 0x3C4D JUMP JUMPDEST PUSH1 0x0 PUSH1 0x1F DUP3 ADD DUP4 SGT PUSH2 0x3C8A JUMPI PUSH1 0x0 DUP1 REVERT JUMPDEST DUP2 CALLDATALOAD PUSH2 0x3C98 PUSH2 0x3BCF DUP3 PUSH2 0x4EFE JUMP JUMPDEST SWAP2 POP DUP2 DUP2 DUP4 MSTORE PUSH1 0x20 DUP5 ADD SWAP4 POP PUSH1 0x20 DUP2 ADD SWAP1 POP DUP4 DUP6 PUSH1 0x20 DUP5 MUL DUP3 ADD GT ISZERO PUSH2 0x3CBD JUMPI PUSH1 0x0 DUP1 REVERT JUMPDEST PUSH1 0x0 JUMPDEST DUP4 DUP2 LT ISZERO PUSH2 0x3C12 JUMPI DUP2 PUSH2 0x3CD3 DUP9 DUP3 PUSH2 0x3D01 JUMP JUMPDEST DUP5 MSTORE POP PUSH1 0x20 SWAP3 DUP4 ADD SWAP3 SWAP2 SWAP1 SWAP2 ADD SWAP1 PUSH1 0x1 ADD PUSH2 0x3CC0 JUMP JUMPDEST PUSH1 0x0 PUSH2 0xF9F DUP3 CALLDATALOAD PUSH2 0x4F82 JUMP JUMPDEST PUSH1 0x0 PUSH2 0xF9F DUP3 MLOAD PUSH2 0x4F82 JUMP JUMPDEST PUSH1 0x0 PUSH2 0xF9F DUP3 CALLDATALOAD PUSH2 0x4F87 JUMP JUMPDEST PUSH1 0x0 PUSH2 0xF9F DUP3 CALLDATALOAD PUSH2 0x4F8A JUMP JUMPDEST PUSH1 0x0 PUSH2 0xF9F DUP3 MLOAD PUSH2 0x4F8A JUMP JUMPDEST PUSH1 0x0 DUP1 PUSH1 0x1F DUP4 ADD DUP5 SGT PUSH2 0x3D37 JUMPI PUSH1 0x0 DUP1 REVERT JUMPDEST POP DUP2 CALLDATALOAD PUSH8 0xFFFFFFFFFFFFFFFF DUP2 GT ISZERO PUSH2 0x3D4F JUMPI PUSH1 0x0 DUP1 REVERT JUMPDEST PUSH1 0x20 DUP4 ADD SWAP2 POP DUP4 PUSH1 0x1 DUP3 MUL DUP4 ADD GT ISZERO PUSH2 0x3D67 JUMPI PUSH1 0x0 DUP1 REVERT JUMPDEST SWAP3 POP SWAP3 SWAP1 POP JUMP JUMPDEST PUSH1 0x0 PUSH1 0x1F DUP3 ADD DUP4 SGT PUSH2 0x3D7F JUMPI PUSH1 0x0 DUP1 REVERT JUMPDEST DUP2 CALLDATALOAD PUSH2 0x3D8D PUSH2 0x3BCF DUP3 PUSH2 0x4F1F JUMP JUMPDEST SWAP2 POP DUP1 DUP3 MSTORE PUSH1 0x20 DUP4 ADD PUSH1 0x20 DUP4 ADD DUP6 DUP4 DUP4 ADD GT ISZERO PUSH2 0x3DA9 JUMPI PUSH1 0x0 DUP1 REVERT JUMPDEST PUSH2 0x3DB4 DUP4 DUP3 DUP5 PUSH2 0x4FC0 JUMP JUMPDEST POP POP POP SWAP3 SWAP2 POP POP JUMP JUMPDEST PUSH1 0x0 PUSH2 0x180 DUP3 DUP5 SUB SLT ISZERO PUSH2 0x3DD0 JUMPI PUSH1 0x0 DUP1 REVERT JUMPDEST PUSH2 0x3DDB PUSH2 0x180 PUSH2 0x4ED7 JUMP JUMPDEST SWAP1 POP PUSH1 0x0 PUSH2 0x3DE9 DUP5 DUP5 PUSH2 0x3BA4 JUMP JUMPDEST DUP3 MSTORE POP PUSH1 0x20 PUSH2 0x3DFA DUP5 DUP5 DUP4 ADD PUSH2 0x3BA4 JUMP JUMPDEST PUSH1 0x20 DUP4 ADD MSTORE POP PUSH1 0x40 PUSH2 0x3E0E DUP5 DUP3 DUP6 ADD PUSH2 0x3BA4 JUMP JUMPDEST PUSH1 0x40 DUP4 ADD MSTORE POP PUSH1 0x60 PUSH2 0x3E22 DUP5 DUP3 DUP6 ADD PUSH2 0x3BA4 JUMP JUMPDEST PUSH1 0x60 DUP4 ADD MSTORE POP PUSH1 0x80 PUSH2 0x3E36 DUP5 DUP3 DUP6 ADD PUSH2 0x3D01 JUMP JUMPDEST PUSH1 0x80 DUP4 ADD MSTORE POP PUSH1 0xA0 PUSH2 0x3E4A DUP5 DUP3 DUP6 ADD PUSH2 0x3D01 JUMP JUMPDEST PUSH1 0xA0 DUP4 ADD MSTORE POP PUSH1 0xC0 PUSH2 0x3E5E DUP5 DUP3 DUP6 ADD PUSH2 0x3D01 JUMP JUMPDEST PUSH1 0xC0 DUP4 ADD MSTORE POP PUSH1 0xE0 PUSH2 0x3E72 DUP5 DUP3 DUP6 ADD PUSH2 0x3D01 JUMP JUMPDEST PUSH1 0xE0 DUP4 ADD MSTORE POP PUSH2 0x100 PUSH2 0x3E87 DUP5 DUP3 DUP6 ADD PUSH2 0x3D01 JUMP JUMPDEST PUSH2 0x100 DUP4 ADD MSTORE POP PUSH2 0x120 PUSH2 0x3E9D DUP5 DUP3 DUP6 ADD PUSH2 0x3D01 JUMP JUMPDEST PUSH2 0x120 DUP4 ADD MSTORE POP PUSH2 0x140 DUP3 ADD CALLDATALOAD PUSH8 0xFFFFFFFFFFFFFFFF DUP2 GT ISZERO PUSH2 0x3EBF JUMPI PUSH1 0x0 DUP1 REVERT JUMPDEST PUSH2 0x3ECB DUP5 DUP3 DUP6 ADD PUSH2 0x3D6E JUMP JUMPDEST PUSH2 0x140 DUP4 ADD MSTORE POP PUSH2 0x160 DUP3 ADD CALLDATALOAD PUSH8 0xFFFFFFFFFFFFFFFF DUP2 GT ISZERO PUSH2 0x3EED JUMPI PUSH1 0x0 DUP1 REVERT JUMPDEST PUSH2 0x3EF9 DUP5 DUP3 DUP6 ADD PUSH2 0x3D6E JUMP JUMPDEST PUSH2 0x160 DUP4 ADD MSTORE POP SWAP3 SWAP2 POP POP JUMP JUMPDEST PUSH1 0x0 PUSH1 0x20 DUP3 DUP5 SUB SLT ISZERO PUSH2 0x3F18 JUMPI PUSH1 0x0 DUP1 REVERT JUMPDEST PUSH1 0x0 PUSH2 0x2D7F DUP5 DUP5 PUSH2 0x3BA4 JUMP JUMPDEST PUSH1 0x0 DUP1 PUSH1 0x40 DUP4 DUP6 SUB SLT ISZERO PUSH2 0x3F37 JUMPI PUSH1 0x0 DUP1 REVERT JUMPDEST PUSH1 0x0 PUSH2 0x3F43 DUP6 DUP6 PUSH2 0x3BA4 JUMP JUMPDEST SWAP3 POP POP PUSH1 0x20 PUSH2 0x3F54 DUP6 DUP3 DUP7 ADD PUSH2 0x3BA4 JUMP JUMPDEST SWAP2 POP POP SWAP3 POP SWAP3 SWAP1 POP JUMP JUMPDEST PUSH1 0x0 DUP1 PUSH1 0x40 DUP4 DUP6 SUB SLT ISZERO PUSH2 0x3F71 JUMPI PUSH1 0x0 DUP1 REVERT JUMPDEST PUSH1 0x0 PUSH2 0x3F7D DUP6 DUP6 PUSH2 0x3BA4 JUMP JUMPDEST SWAP3 POP POP PUSH1 0x20 PUSH2 0x3F54 DUP6 DUP3 DUP7 ADD PUSH2 0x3CE9 JUMP JUMPDEST PUSH1 0x0 PUSH1 0x20 DUP3 DUP5 SUB SLT ISZERO PUSH2 0x3FA0 JUMPI PUSH1 0x0 DUP1 REVERT JUMPDEST DUP2 CALLDATALOAD PUSH8 0xFFFFFFFFFFFFFFFF DUP2 GT ISZERO PUSH2 0x3FB7 JUMPI PUSH1 0x0 DUP1 REVERT JUMPDEST PUSH2 0x2D7F DUP5 DUP3 DUP6 ADD PUSH2 0x3C1C JUMP JUMPDEST PUSH1 0x0 DUP1 PUSH1 0x0 PUSH1 0x60 DUP5 DUP7 SUB SLT ISZERO PUSH2 0x3FD8 JUMPI PUSH1 0x0 DUP1 REVERT JUMPDEST DUP4 CALLDATALOAD PUSH8 0xFFFFFFFFFFFFFFFF DUP2 GT ISZERO PUSH2 0x3FEF JUMPI PUSH1 0x0 DUP1 REVERT JUMPDEST PUSH2 0x3FFB DUP7 DUP3 DUP8 ADD PUSH2 0x3C1C JUMP JUMPDEST SWAP4 POP POP PUSH1 0x20 DUP5 ADD CALLDATALOAD PUSH8 0xFFFFFFFFFFFFFFFF DUP2 GT ISZERO PUSH2 0x4018 JUMPI PUSH1 0x0 DUP1 REVERT JUMPDEST PUSH2 0x4024 DUP7 DUP3 DUP8 ADD PUSH2 0x3C79 JUMP JUMPDEST SWAP3 POP POP PUSH1 0x40 DUP5 ADD CALLDATALOAD PUSH8 0xFFFFFFFFFFFFFFFF DUP2 GT ISZERO PUSH2 0x4041 JUMPI PUSH1 0x0 DUP1 REVERT JUMPDEST PUSH2 0x404D DUP7 DUP3 DUP8 ADD PUSH2 0x3BB0 JUMP JUMPDEST SWAP2 POP POP SWAP3 POP SWAP3 POP SWAP3 JUMP JUMPDEST PUSH1 0x0 DUP1 PUSH1 0x0 PUSH1 0x60 DUP5 DUP7 SUB SLT ISZERO PUSH2 0x406C JUMPI PUSH1 0x0 DUP1 REVERT JUMPDEST DUP4 CALLDATALOAD PUSH8 0xFFFFFFFFFFFFFFFF DUP2 GT ISZERO PUSH2 0x4083 JUMPI PUSH1 0x0 DUP1 REVERT JUMPDEST PUSH2 0x408F DUP7 DUP3 DUP8 ADD PUSH2 0x3C1C JUMP JUMPDEST SWAP4 POP POP PUSH1 0x20 PUSH2 0x4024 DUP7 DUP3 DUP8 ADD PUSH2 0x3D01 JUMP JUMPDEST PUSH1 0x0 PUSH1 0x20 DUP3 DUP5 SUB SLT ISZERO PUSH2 0x40B2 JUMPI PUSH1 0x0 DUP1 REVERT JUMPDEST PUSH1 0x0 PUSH2 0x2D7F DUP5 DUP5 PUSH2 0x3CF5 JUMP JUMPDEST PUSH1 0x0 PUSH1 0x20 DUP3 DUP5 SUB SLT ISZERO PUSH2 0x40D0 JUMPI PUSH1 0x0 DUP1 REVERT JUMPDEST PUSH1 0x0 PUSH2 0x2D7F DUP5 DUP5 PUSH2 0x3D01 JUMP JUMPDEST PUSH1 0x0 DUP1 PUSH1 0x40 DUP4 DUP6 SUB SLT ISZERO PUSH2 0x40EF JUMPI PUSH1 0x0 DUP1 REVERT JUMPDEST PUSH1 0x0 PUSH2 0x3F43 DUP6 DUP6 PUSH2 0x3D01 JUMP JUMPDEST PUSH1 0x0 DUP1 PUSH1 0x0 DUP1 PUSH1 0x60 DUP6 DUP8 SUB SLT ISZERO PUSH2 0x4111 JUMPI PUSH1 0x0 DUP1 REVERT JUMPDEST PUSH1 0x0 PUSH2 0x411D DUP8 DUP8 PUSH2 0x3D01 JUMP JUMPDEST SWAP5 POP POP PUSH1 0x20 PUSH2 0x412E DUP8 DUP3 DUP9 ADD PUSH2 0x3BA4 JUMP JUMPDEST SWAP4 POP POP PUSH1 0x40 DUP6 ADD CALLDATALOAD PUSH8 0xFFFFFFFFFFFFFFFF DUP2 GT ISZERO PUSH2 0x414B JUMPI PUSH1 0x0 DUP1 REVERT JUMPDEST PUSH2 0x4157 DUP8 DUP3 DUP9 ADD PUSH2 0x3D25 JUMP JUMPDEST SWAP6 SWAP9 SWAP5 SWAP8 POP SWAP6 POP POP POP POP JUMP JUMPDEST PUSH1 0x0 DUP1 PUSH1 0x0 PUSH1 0x60 DUP5 DUP7 SUB SLT ISZERO PUSH2 0x4178 JUMPI PUSH1 0x0 DUP1 REVERT JUMPDEST PUSH1 0x0 PUSH2 0x4184 DUP7 DUP7 PUSH2 0x3D01 JUMP JUMPDEST SWAP4 POP POP PUSH1 0x20 PUSH2 0x4195 DUP7 DUP3 DUP8 ADD PUSH2 0x3BA4 JUMP JUMPDEST SWAP3 POP POP PUSH1 0x40 DUP5 ADD CALLDATALOAD PUSH8 0xFFFFFFFFFFFFFFFF DUP2 GT ISZERO PUSH2 0x41B2 JUMPI PUSH1 0x0 DUP1 REVERT JUMPDEST PUSH2 0x404D DUP7 DUP3 DUP8 ADD PUSH2 0x3D6E JUMP JUMPDEST PUSH1 0x0 PUSH1 0x20 DUP3 DUP5 SUB SLT ISZERO PUSH2 0x41D0 JUMPI PUSH1 0x0 DUP1 REVERT JUMPDEST PUSH1 0x0 PUSH2 0x2D7F DUP5 DUP5 PUSH2 0x3D0D JUMP JUMPDEST PUSH1 0x0 PUSH1 0x20 DUP3 DUP5 SUB SLT ISZERO PUSH2 0x41EE JUMPI PUSH1 0x0 DUP1 REVERT JUMPDEST PUSH1 0x0 PUSH2 0x2D7F DUP5 DUP5 PUSH2 0x3D19 JUMP JUMPDEST PUSH1 0x0 DUP1 PUSH1 0x0 PUSH1 0x60 DUP5 DUP7 SUB SLT ISZERO PUSH2 0x420F JUMPI PUSH1 0x0 DUP1 REVERT JUMPDEST PUSH1 0x0 PUSH2 0x421B DUP7 DUP7 PUSH2 0x3D0D JUMP JUMPDEST SWAP4 POP POP PUSH1 0x20 PUSH2 0x422C DUP7 DUP3 DUP8 ADD PUSH2 0x3BA4 JUMP JUMPDEST SWAP3 POP POP PUSH1 0x40 PUSH2 0x404D DUP7 DUP3 DUP8 ADD PUSH2 0x3BA4 JUMP JUMPDEST PUSH1 0x0 PUSH1 0x20 DUP3 DUP5 SUB SLT ISZERO PUSH2 0x424F JUMPI PUSH1 0x0 DUP1 REVERT JUMPDEST DUP2 CALLDATALOAD PUSH8 0xFFFFFFFFFFFFFFFF DUP2 GT ISZERO PUSH2 0x4266 JUMPI PUSH1 0x0 DUP1 REVERT JUMPDEST PUSH2 0x2D7F DUP5 DUP3 DUP6 ADD PUSH2 0x3DBD JUMP JUMPDEST PUSH1 0x0 DUP1 PUSH1 0x0 DUP1 PUSH1 0x80 DUP6 DUP8 SUB SLT ISZERO PUSH2 0x4288 JUMPI PUSH1 0x0 DUP1 REVERT JUMPDEST DUP5 CALLDATALOAD PUSH8 0xFFFFFFFFFFFFFFFF DUP2 GT ISZERO PUSH2 0x429F JUMPI PUSH1 0x0 DUP1 REVERT JUMPDEST PUSH2 0x42AB DUP8 DUP3 DUP9 ADD PUSH2 0x3DBD JUMP JUMPDEST SWAP5 POP POP PUSH1 0x20 DUP6 ADD CALLDATALOAD PUSH8 0xFFFFFFFFFFFFFFFF DUP2 GT ISZERO PUSH2 0x42C8 JUMPI PUSH1 0x0 DUP1 REVERT JUMPDEST PUSH2 0x42D4 DUP8 DUP3 DUP9 ADD PUSH2 0x3DBD JUMP JUMPDEST SWAP4 POP POP PUSH1 0x40 DUP6 ADD CALLDATALOAD PUSH8 0xFFFFFFFFFFFFFFFF DUP2 GT ISZERO PUSH2 0x42F1 JUMPI PUSH1 0x0 DUP1 REVERT JUMPDEST PUSH2 0x42FD DUP8 DUP3 DUP9 ADD PUSH2 0x3D6E JUMP JUMPDEST SWAP3 POP POP PUSH1 0x60 DUP6 ADD CALLDATALOAD PUSH8 0xFFFFFFFFFFFFFFFF DUP2 GT ISZERO PUSH2 0x431A JUMPI PUSH1 0x0 DUP1 REVERT JUMPDEST PUSH2 0x4326 DUP8 DUP3 DUP9 ADD PUSH2 0x3D6E JUMP JUMPDEST SWAP2 POP POP SWAP3 SWAP6 SWAP2 SWAP5 POP SWAP3 POP JUMP JUMPDEST PUSH1 0x0 DUP1 PUSH1 0x40 DUP4 DUP6 SUB SLT ISZERO PUSH2 0x4345 JUMPI PUSH1 0x0 DUP1 REVERT JUMPDEST DUP3 CALLDATALOAD PUSH8 0xFFFFFFFFFFFFFFFF DUP2 GT ISZERO PUSH2 0x435C JUMPI PUSH1 0x0 DUP1 REVERT JUMPDEST PUSH2 0x4368 DUP6 DUP3 DUP7 ADD PUSH2 0x3DBD JUMP JUMPDEST SWAP3 POP POP PUSH1 0x20 PUSH2 0x3F54 DUP6 DUP3 DUP7 ADD PUSH2 0x3D01 JUMP JUMPDEST PUSH1 0x0 DUP1 PUSH1 0x0 PUSH1 0x60 DUP5 DUP7 SUB SLT ISZERO PUSH2 0x438E JUMPI PUSH1 0x0 DUP1 REVERT JUMPDEST DUP4 CALLDATALOAD PUSH8 0xFFFFFFFFFFFFFFFF DUP2 GT ISZERO PUSH2 0x43A5 JUMPI PUSH1 0x0 DUP1 REVERT JUMPDEST PUSH2 0x43B1 DUP7 DUP3 DUP8 ADD PUSH2 0x3DBD JUMP JUMPDEST SWAP4 POP POP PUSH1 0x20 PUSH2 0x4195 DUP7 DUP3 DUP8 ADD PUSH2 0x3D01 JUMP JUMPDEST PUSH1 0x0 DUP1 PUSH1 0x0 DUP1 PUSH1 0x0 DUP1 PUSH1 0x80 DUP8 DUP10 SUB SLT ISZERO PUSH2 0x43DB JUMPI PUSH1 0x0 DUP1 REVERT JUMPDEST PUSH1 0x0 PUSH2 0x43E7 DUP10 DUP10 PUSH2 0x3D01 JUMP JUMPDEST SWAP7 POP POP PUSH1 0x20 PUSH2 0x43F8 DUP10 DUP3 DUP11 ADD PUSH2 0x3BA4 JUMP JUMPDEST SWAP6 POP POP PUSH1 0x40 DUP8 ADD CALLDATALOAD PUSH8 0xFFFFFFFFFFFFFFFF DUP2 GT ISZERO PUSH2 0x4415 JUMPI PUSH1 0x0 DUP1 REVERT JUMPDEST PUSH2 0x4421 DUP10 DUP3 DUP11 ADD PUSH2 0x3D25 JUMP JUMPDEST SWAP5 POP SWAP5 POP POP PUSH1 0x60 DUP8 ADD CALLDATALOAD PUSH8 0xFFFFFFFFFFFFFFFF DUP2 GT ISZERO PUSH2 0x4440 JUMPI PUSH1 0x0 DUP1 REVERT JUMPDEST PUSH2 0x444C DUP10 DUP3 DUP11 ADD PUSH2 0x3D25 JUMP JUMPDEST SWAP3 POP SWAP3 POP POP SWAP3 SWAP6 POP SWAP3 SWAP6 POP SWAP3 SWAP6 JUMP JUMPDEST PUSH2 0x4464 DUP2 PUSH2 0x4F69 JUMP JUMPDEST DUP3 MSTORE POP POP JUMP JUMPDEST PUSH2 0x4464 DUP2 PUSH2 0x4F82 JUMP JUMPDEST PUSH2 0x4464 DUP2 PUSH2 0x4F87 JUMP JUMPDEST PUSH2 0x4464 DUP2 PUSH2 0x4F8A JUMP JUMPDEST PUSH1 0x0 PUSH2 0x4490 DUP3 PUSH2 0x4F65 JUMP JUMPDEST DUP1 DUP5 MSTORE PUSH2 0x44A4 DUP2 PUSH1 0x20 DUP7 ADD PUSH1 0x20 DUP7 ADD PUSH2 0x4FCC JUMP JUMPDEST PUSH2 0x44AD DUP2 PUSH2 0x4FF8 JUMP JUMPDEST SWAP1 SWAP4 ADD PUSH1 0x20 ADD SWAP4 SWAP3 POP POP POP JUMP JUMPDEST PUSH2 0x4464 DUP2 PUSH2 0x4FB5 JUMP JUMPDEST PUSH1 0x12 DUP2 MSTORE PUSH32 0x4C454E4754485F36355F52455155495245440000000000000000000000000000 PUSH1 0x20 DUP3 ADD MSTORE PUSH1 0x40 ADD SWAP1 JUMP JUMPDEST PUSH1 0xD DUP2 MSTORE PUSH32 0x494E56414C49445F54414B455200000000000000000000000000000000000000 PUSH1 0x20 DUP3 ADD MSTORE PUSH1 0x40 ADD SWAP1 JUMP JUMPDEST PUSH1 0x26 DUP2 MSTORE PUSH32 0x475245415445525F4F525F455155414C5F544F5F33325F4C454E4754485F5245 PUSH1 0x20 DUP3 ADD MSTORE PUSH32 0x5155495245440000000000000000000000000000000000000000000000000000 PUSH1 0x40 DUP3 ADD MSTORE PUSH1 0x60 ADD SWAP1 JUMP JUMPDEST PUSH1 0x15 DUP2 MSTORE PUSH32 0x5349474E41545552455F554E535550504F525445440000000000000000000000 PUSH1 0x20 DUP3 ADD MSTORE PUSH1 0x40 ADD SWAP1 JUMP JUMPDEST PUSH1 0x17 DUP2 MSTORE PUSH32 0x494E56414C49445F4F524445525F5349474E4154555245000000000000000000 PUSH1 0x20 DUP3 ADD MSTORE PUSH1 0x40 ADD SWAP1 JUMP JUMPDEST PUSH1 0xD DUP2 MSTORE PUSH32 0x494E56414C49445F4D414B455200000000000000000000000000000000000000 PUSH1 0x20 DUP3 ADD MSTORE PUSH1 0x40 ADD SWAP1 JUMP JUMPDEST PUSH1 0xF DUP2 MSTORE PUSH32 0x494E56414C49445F54585F484153480000000000000000000000000000000000 PUSH1 0x20 DUP3 ADD MSTORE PUSH1 0x40 ADD SWAP1 JUMP JUMPDEST PUSH1 0x11 DUP2 MSTORE PUSH32 0x494E56414C49445F5349474E4154555245000000000000000000000000000000 PUSH1 0x20 DUP3 ADD MSTORE PUSH1 0x40 ADD SWAP1 JUMP JUMPDEST PUSH1 0xE DUP2 MSTORE PUSH32 0x524F554E44494E475F4552524F52000000000000000000000000000000000000 PUSH1 0x20 DUP3 ADD MSTORE PUSH1 0x40 ADD SWAP1 JUMP JUMPDEST PUSH1 0x10 DUP2 MSTORE PUSH32 0x4641494C45445F455845435554494F4E00000000000000000000000000000000 PUSH1 0x20 DUP3 ADD MSTORE PUSH1 0x40 ADD SWAP1 JUMP JUMPDEST PUSH1 0x14 DUP2 MSTORE PUSH32 0x494E56414C49445F54414B45525F414D4F554E54000000000000000000000000 PUSH1 0x20 DUP3 ADD MSTORE PUSH1 0x40 ADD SWAP1 JUMP JUMPDEST PUSH1 0x1A DUP2 MSTORE PUSH32 0x41535345545F50524F58595F444F45535F4E4F545F4558495354000000000000 PUSH1 0x20 DUP3 ADD MSTORE PUSH1 0x40 ADD SWAP1 JUMP JUMPDEST PUSH1 0x17 DUP2 MSTORE PUSH32 0x41535345545F50524F58595F49445F4D49534D41544348000000000000000000 PUSH1 0x20 DUP3 ADD MSTORE PUSH1 0x40 ADD SWAP1 JUMP JUMPDEST PUSH1 0x21 DUP2 MSTORE PUSH32 0x475245415445525F5448414E5F5A45524F5F4C454E4754485F52455155495245 PUSH1 0x20 DUP3 ADD MSTORE PUSH32 0x4400000000000000000000000000000000000000000000000000000000000000 PUSH1 0x40 DUP3 ADD MSTORE PUSH1 0x60 ADD SWAP1 JUMP JUMPDEST PUSH1 0x11 DUP2 MSTORE PUSH32 0x5349474E41545552455F494C4C4547414C000000000000000000000000000000 PUSH1 0x20 DUP3 ADD MSTORE PUSH1 0x40 ADD SWAP1 JUMP JUMPDEST PUSH1 0x1E DUP2 MSTORE PUSH32 0x4C454E4754485F475245415445525F5448414E5F305F52455155495245440000 PUSH1 0x20 DUP3 ADD MSTORE PUSH1 0x40 ADD SWAP1 JUMP JUMPDEST PUSH1 0x17 DUP2 MSTORE PUSH32 0x494E56414C49445F4E45575F4F524445525F45504F4348000000000000000000 PUSH1 0x20 DUP3 ADD MSTORE PUSH1 0x40 ADD SWAP1 JUMP JUMPDEST PUSH1 0x1E DUP2 MSTORE PUSH32 0x4C454E4754485F475245415445525F5448414E5F335F52455155495245440000 PUSH1 0x20 DUP3 ADD MSTORE PUSH1 0x40 ADD SWAP1 JUMP JUMPDEST PUSH1 0x14 DUP2 MSTORE PUSH32 0x434F4D504C4554455F46494C4C5F4641494C4544000000000000000000000000 PUSH1 0x20 DUP3 ADD MSTORE PUSH1 0x40 ADD SWAP1 JUMP JUMPDEST PUSH1 0x12 DUP2 MSTORE PUSH32 0x5245454E5452414E43595F494C4C4547414C0000000000000000000000000000 PUSH1 0x20 DUP3 ADD MSTORE PUSH1 0x40 ADD SWAP1 JUMP JUMPDEST PUSH1 0x13 DUP2 MSTORE PUSH32 0x4F4E4C595F434F4E54524143545F4F574E455200000000000000000000000000 PUSH1 0x20 DUP3 ADD MSTORE PUSH1 0x40 ADD SWAP1 JUMP JUMPDEST PUSH1 0x26 DUP2 MSTORE PUSH32 0x475245415445525F4F525F455155414C5F544F5F32305F4C454E4754485F5245 PUSH1 0x20 DUP3 ADD MSTORE PUSH32 0x5155495245440000000000000000000000000000000000000000000000000000 PUSH1 0x40 DUP3 ADD MSTORE PUSH1 0x60 ADD SWAP1 JUMP JUMPDEST PUSH1 0x14 DUP2 MSTORE PUSH32 0x41535345545F50524F58595F4D49534D41544348000000000000000000000000 PUSH1 0x20 DUP3 ADD MSTORE PUSH1 0x40 ADD SWAP1 JUMP JUMPDEST PUSH1 0x10 DUP2 MSTORE PUSH32 0x4F524445525F554E46494C4C41424C4500000000000000000000000000000000 PUSH1 0x20 DUP3 ADD MSTORE PUSH1 0x40 ADD SWAP1 JUMP JUMPDEST PUSH1 0xE DUP2 MSTORE PUSH32 0x494E56414C49445F53454E444552000000000000000000000000000000000000 PUSH1 0x20 DUP3 ADD MSTORE PUSH1 0x40 ADD SWAP1 JUMP JUMPDEST PUSH1 0x18 DUP2 MSTORE PUSH32 0x4E454741544956455F5350524541445F52455155495245440000000000000000 PUSH1 0x20 DUP3 ADD MSTORE PUSH1 0x40 ADD SWAP1 JUMP JUMPDEST PUSH1 0x14 DUP2 MSTORE PUSH32 0x494E56414C49445F54585F5349474E4154555245000000000000000000000000 PUSH1 0x20 DUP3 ADD MSTORE PUSH1 0x40 ADD SWAP1 JUMP JUMPDEST PUSH1 0x11 DUP2 MSTORE PUSH32 0x4C454E4754485F305F5245515549524544000000000000000000000000000000 PUSH1 0x20 DUP3 ADD MSTORE PUSH1 0x40 ADD SWAP1 JUMP JUMPDEST DUP1 MLOAD PUSH1 0x80 DUP4 ADD SWAP1 PUSH2 0x4A86 DUP5 DUP3 PUSH2 0x4473 JUMP JUMPDEST POP PUSH1 0x20 DUP3 ADD MLOAD PUSH2 0x4A99 PUSH1 0x20 DUP6 ADD DUP3 PUSH2 0x4473 JUMP JUMPDEST POP PUSH1 0x40 DUP3 ADD MLOAD PUSH2 0x4AAC PUSH1 0x40 DUP6 ADD DUP3 PUSH2 0x4473 JUMP JUMPDEST POP PUSH1 0x60 DUP3 ADD MLOAD PUSH2 0x2EAC PUSH1 0x60 DUP6 ADD DUP3 PUSH2 0x4473 JUMP JUMPDEST DUP1 MLOAD PUSH2 0x120 DUP4 ADD SWAP1 PUSH2 0x4AD1 DUP5 DUP3 PUSH2 0x4A75 JUMP JUMPDEST POP PUSH1 0x20 DUP3 ADD MLOAD PUSH2 0x4AE4 PUSH1 0x80 DUP6 ADD DUP3 PUSH2 0x4A75 JUMP JUMPDEST POP PUSH1 0x40 DUP3 ADD MLOAD PUSH2 0x2EAC PUSH2 0x100 DUP6 ADD DUP3 PUSH2 0x4473 JUMP JUMPDEST DUP1 MLOAD PUSH1 0x60 DUP4 ADD SWAP1 PUSH2 0x4B09 DUP5 DUP3 PUSH2 0x4B2F JUMP JUMPDEST POP PUSH1 0x20 DUP3 ADD MLOAD PUSH2 0x4B1C PUSH1 0x20 DUP6 ADD DUP3 PUSH2 0x4473 JUMP JUMPDEST POP PUSH1 0x40 DUP3 ADD MLOAD PUSH2 0x2EAC PUSH1 0x40 DUP6 ADD DUP3 PUSH2 0x4473 JUMP JUMPDEST PUSH2 0x4464 DUP2 PUSH2 0x4FAF JUMP JUMPDEST PUSH1 0x20 DUP2 ADD PUSH2 0x1DC5 DUP3 DUP5 PUSH2 0x445B JUMP JUMPDEST PUSH2 0x100 DUP2 ADD PUSH2 0x4B55 DUP3 DUP12 PUSH2 0x445B JUMP JUMPDEST PUSH2 0x4B62 PUSH1 0x20 DUP4 ADD DUP11 PUSH2 0x445B JUMP JUMPDEST PUSH2 0x4B6F PUSH1 0x40 DUP4 ADD DUP10 PUSH2 0x4473 JUMP JUMPDEST PUSH2 0x4B7C PUSH1 0x60 DUP4 ADD DUP9 PUSH2 0x4473 JUMP JUMPDEST PUSH2 0x4B89 PUSH1 0x80 DUP4 ADD DUP8 PUSH2 0x4473 JUMP JUMPDEST PUSH2 0x4B96 PUSH1 0xA0 DUP4 ADD DUP7 PUSH2 0x4473 JUMP JUMPDEST DUP2 DUP2 SUB PUSH1 0xC0 DUP4 ADD MSTORE PUSH2 0x4BA8 DUP2 DUP6 PUSH2 0x4485 JUMP JUMPDEST SWAP1 POP DUP2 DUP2 SUB PUSH1 0xE0 DUP4 ADD MSTORE PUSH2 0x4BBC DUP2 DUP5 PUSH2 0x4485 JUMP JUMPDEST SWAP11 SWAP10 POP POP POP POP POP POP POP POP POP POP JUMP JUMPDEST PUSH1 0x60 DUP2 ADD PUSH2 0x4BD8 DUP3 DUP7 PUSH2 0x445B JUMP JUMPDEST DUP2 DUP2 SUB PUSH1 0x20 DUP4 ADD MSTORE PUSH2 0x4BEA DUP2 DUP6 PUSH2 0x4485 JUMP JUMPDEST SWAP1 POP DUP2 DUP2 SUB PUSH1 0x40 DUP4 ADD MSTORE PUSH2 0x4BFE DUP2 DUP5 PUSH2 0x4485 JUMP JUMPDEST SWAP6 SWAP5 POP POP POP POP POP JUMP JUMPDEST PUSH1 0x20 DUP2 ADD PUSH2 0x1DC5 DUP3 DUP5 PUSH2 0x446A JUMP JUMPDEST PUSH1 0x20 DUP2 ADD PUSH2 0x1DC5 DUP3 DUP5 PUSH2 0x4473 JUMP JUMPDEST PUSH1 0x60 DUP2 ADD PUSH2 0x4C31 DUP3 DUP7 PUSH2 0x4473 JUMP JUMPDEST PUSH2 0x4C3E PUSH1 0x20 DUP4 ADD DUP6 PUSH2 0x445B JUMP JUMPDEST DUP2 DUP2 SUB PUSH1 0x40 DUP4 ADD MSTORE PUSH2 0x4BFE DUP2 DUP5 PUSH2 0x4485 JUMP JUMPDEST PUSH1 0x40 DUP2 ADD PUSH2 0x4C5E DUP3 DUP6 PUSH2 0x4473 JUMP JUMPDEST DUP2 DUP2 SUB PUSH1 0x20 DUP4 ADD MSTORE PUSH2 0x2D7F DUP2 DUP5 PUSH2 0x4485 JUMP JUMPDEST PUSH1 0x80 DUP2 ADD PUSH2 0x4C7E DUP3 DUP8 PUSH2 0x4473 JUMP JUMPDEST PUSH2 0x4C8B PUSH1 0x20 DUP4 ADD DUP7 PUSH2 0x4B2F JUMP JUMPDEST PUSH2 0x4C98 PUSH1 0x40 DUP4 ADD DUP6 PUSH2 0x4473 JUMP JUMPDEST PUSH2 0x4BFE PUSH1 0x60 DUP4 ADD DUP5 PUSH2 0x4473 JUMP JUMPDEST PUSH1 0x60 DUP2 ADD PUSH2 0x4CB3 DUP3 DUP7 PUSH2 0x447C JUMP JUMPDEST PUSH2 0x4CC0 PUSH1 0x20 DUP4 ADD DUP6 PUSH2 0x445B JUMP JUMPDEST PUSH2 0x2D7F PUSH1 0x40 DUP4 ADD DUP5 PUSH2 0x445B JUMP JUMPDEST PUSH1 0x20 DUP1 DUP3 MSTORE DUP2 ADD PUSH2 0xF9F DUP2 DUP5 PUSH2 0x4485 JUMP JUMPDEST PUSH1 0x20 DUP2 ADD PUSH2 0x1DC5 DUP3 DUP5 PUSH2 0x44BA JUMP JUMPDEST PUSH1 0x20 DUP1 DUP3 MSTORE DUP2 ADD PUSH2 0x1DC5 DUP2 PUSH2 0x44C3 JUMP JUMPDEST PUSH1 0x20 DUP1 DUP3 MSTORE DUP2 ADD PUSH2 0x1DC5 DUP2 PUSH2 0x44F3 JUMP JUMPDEST PUSH1 0x20 DUP1 DUP3 MSTORE DUP2 ADD PUSH2 0x1DC5 DUP2 PUSH2 0x4523 JUMP JUMPDEST PUSH1 0x20 DUP1 DUP3 MSTORE DUP2 ADD PUSH2 0x1DC5 DUP2 PUSH2 0x4579 JUMP JUMPDEST PUSH1 0x20 DUP1 DUP3 MSTORE DUP2 ADD PUSH2 0x1DC5 DUP2 PUSH2 0x45A9 JUMP JUMPDEST PUSH1 0x20 DUP1 DUP3 MSTORE DUP2 ADD PUSH2 0x1DC5 DUP2 PUSH2 0x45D9 JUMP JUMPDEST PUSH1 0x20 DUP1 DUP3 MSTORE DUP2 ADD PUSH2 0x1DC5 DUP2 PUSH2 0x4609 JUMP JUMPDEST PUSH1 0x20 DUP1 DUP3 MSTORE DUP2 ADD PUSH2 0x1DC5 DUP2 PUSH2 0x4639 JUMP JUMPDEST PUSH1 0x20 DUP1 DUP3 MSTORE DUP2 ADD PUSH2 0x1DC5 DUP2 PUSH2 0x4669 JUMP JUMPDEST PUSH1 0x20 DUP1 DUP3 MSTORE DUP2 ADD PUSH2 0x1DC5 DUP2 PUSH2 0x4699 JUMP JUMPDEST PUSH1 0x20 DUP1 DUP3 MSTORE DUP2 ADD PUSH2 0x1DC5 DUP2 PUSH2 0x46C9 JUMP JUMPDEST PUSH1 0x20 DUP1 DUP3 MSTORE DUP2 ADD PUSH2 0x1DC5 DUP2 PUSH2 0x46F9 JUMP JUMPDEST PUSH1 0x20 DUP1 DUP3 MSTORE DUP2 ADD PUSH2 0x1DC5 DUP2 PUSH2 0x4729 JUMP JUMPDEST PUSH1 0x20 DUP1 DUP3 MSTORE DUP2 ADD PUSH2 0x1DC5 DUP2 PUSH2 0x4759 JUMP JUMPDEST PUSH1 0x20 DUP1 DUP3 MSTORE DUP2 ADD PUSH2 0x1DC5 DUP2 PUSH2 0x47AF JUMP JUMPDEST PUSH1 0x20 DUP1 DUP3 MSTORE DUP2 ADD PUSH2 0x1DC5 DUP2 PUSH2 0x47DF JUMP JUMPDEST PUSH1 0x20 DUP1 DUP3 MSTORE DUP2 ADD PUSH2 0x1DC5 DUP2 PUSH2 0x480F JUMP JUMPDEST PUSH1 0x20 DUP1 DUP3 MSTORE DUP2 ADD PUSH2 0x1DC5 DUP2 PUSH2 0x483F JUMP JUMPDEST PUSH1 0x20 DUP1 DUP3 MSTORE DUP2 ADD PUSH2 0x1DC5 DUP2 PUSH2 0x486F JUMP JUMPDEST PUSH1 0x20 DUP1 DUP3 MSTORE DUP2 ADD PUSH2 0x1DC5 DUP2 PUSH2 0x489F JUMP JUMPDEST PUSH1 0x20 DUP1 DUP3 MSTORE DUP2 ADD PUSH2 0x1DC5 DUP2 PUSH2 0x48CF JUMP JUMPDEST PUSH1 0x20 DUP1 DUP3 MSTORE DUP2 ADD PUSH2 0x1DC5 DUP2 PUSH2 0x48FF JUMP JUMPDEST PUSH1 0x20 DUP1 DUP3 MSTORE DUP2 ADD PUSH2 0x1DC5 DUP2 PUSH2 0x4955 JUMP JUMPDEST PUSH1 0x20 DUP1 DUP3 MSTORE DUP2 ADD PUSH2 0x1DC5 DUP2 PUSH2 0x4985 JUMP JUMPDEST PUSH1 0x20 DUP1 DUP3 MSTORE DUP2 ADD PUSH2 0x1DC5 DUP2 PUSH2 0x49B5 JUMP JUMPDEST PUSH1 0x20 DUP1 DUP3 MSTORE DUP2 ADD PUSH2 0x1DC5 DUP2 PUSH2 0x49E5 JUMP JUMPDEST PUSH1 0x20 DUP1 DUP3 MSTORE DUP2 ADD PUSH2 0x1DC5 DUP2 PUSH2 0x4A15 JUMP JUMPDEST PUSH1 0x20 DUP1 DUP3 MSTORE DUP2 ADD PUSH2 0x1DC5 DUP2 PUSH2 0x4A45 JUMP JUMPDEST PUSH1 0x80 DUP2 ADD PUSH2 0x1DC5 DUP3 DUP5 PUSH2 0x4A75 JUMP JUMPDEST PUSH2 0x120 DUP2 ADD PUSH2 0x1DC5 DUP3 DUP5 PUSH2 0x4ABF JUMP JUMPDEST PUSH1 0x60 DUP2 ADD PUSH2 0x1DC5 DUP3 DUP5 PUSH2 0x4AF8 JUMP JUMPDEST PUSH1 0x40 MLOAD DUP2 DUP2 ADD PUSH8 0xFFFFFFFFFFFFFFFF DUP2 GT DUP3 DUP3 LT OR ISZERO PUSH2 0x4EF6 JUMPI PUSH1 0x0 DUP1 REVERT JUMPDEST PUSH1 0x40 MSTORE SWAP2 SWAP1 POP JUMP JUMPDEST PUSH1 0x0 PUSH8 0xFFFFFFFFFFFFFFFF DUP3 GT ISZERO PUSH2 0x4F15 JUMPI PUSH1 0x0 DUP1 REVERT JUMPDEST POP PUSH1 0x20 SWAP1 DUP2 MUL ADD SWAP1 JUMP JUMPDEST PUSH1 0x0 PUSH8 0xFFFFFFFFFFFFFFFF DUP3 GT ISZERO PUSH2 0x4F36 JUMPI PUSH1 0x0 DUP1 REVERT JUMPDEST POP PUSH1 0x20 PUSH1 0x1F SWAP2 SWAP1 SWAP2 ADD PUSH32 0xFFFFFFFFFFFFFFFFFFFFFFFFFFFFFFFFFFFFFFFFFFFFFFFFFFFFFFFFFFFFFFE0 AND ADD SWAP1 JUMP JUMPDEST MLOAD SWAP1 JUMP JUMPDEST PUSH20 0xFFFFFFFFFFFFFFFFFFFFFFFFFFFFFFFFFFFFFFFF AND SWAP1 JUMP JUMPDEST ISZERO ISZERO SWAP1 JUMP JUMPDEST SWAP1 JUMP JUMPDEST PUSH32 0xFFFFFFFF00000000000000000000000000000000000000000000000000000000 AND SWAP1 JUMP JUMPDEST PUSH1 0xFF AND SWAP1 JUMP JUMPDEST PUSH1 0x0 PUSH2 0x1DC5 DUP3 PUSH2 0x4F69 JUMP JUMPDEST DUP3 DUP2 DUP4 CALLDATACOPY POP PUSH1 0x0 SWAP2 ADD MSTORE JUMP JUMPDEST PUSH1 0x0 JUMPDEST DUP4 DUP2 LT ISZERO PUSH2 0x4FE7 JUMPI DUP2 DUP2 ADD MLOAD DUP4 DUP3 ADD MSTORE PUSH1 0x20 ADD PUSH2 0x4FCF JUMP JUMPDEST DUP4 DUP2 GT ISZERO PUSH2 0x2EAC JUMPI POP POP PUSH1 0x0 SWAP2 ADD MSTORE JUMP JUMPDEST PUSH1 0x1F ADD PUSH32 0xFFFFFFFFFFFFFFFFFFFFFFFFFFFFFFFFFFFFFFFFFFFFFFFFFFFFFFFFFFFFFFE0 AND SWAP1 JUMP STOP LOG2 PUSH6 0x627A7A723058 KECCAK256 0x28 0xbb DUP13 0xc5 DUP3 0xb1 SWAP14 CALLDATASIZE BLOCKHASH 0x1f MUL MUL 0xaf STATICCALL CALLDATACOPY PUSH14 0x7F5A5E53FDE5A91C1B1FE4391C65 SWAP9 SWAP13 PUSH13 0x6578706572696D656E74616CF5 STOP CALLDATACOPY "
			}
		}
	},
	"sourceTreeHashHex": "0x87ff893a5e5d51a5e525fb978329f0db92c6fa1be3f4019db6884d5c0d0bef31",
	"compiler": {
		"name": "solc",
		"version": "soljson-v0.4.24+commit.e67f0147.js",
		"settings": {
			"optimizer": {
				"enabled": true,
				"runs": 1000000
			},
			"outputSelection": {
				"*": {
					"*": [
						"abi",
						"evm.bytecode.object",
						"evm.bytecode.sourceMap",
						"evm.deployedBytecode.object",
						"evm.deployedBytecode.sourceMap"
					]
				}
			}
		}
	}
}